:020000040800F2
:10000000801D002401001008B1290008992910085A
:10001000A9290008C90010081935000800000000CF
:100020000000000000000000000000002937100858
:100030000904000800000000F9351008D134000858
:100040001B0010081B0010081B0010081B001008E4
:100050001B0010081B0010081B00100811040008EA
:100060001B0010081B0010081B0010081B001008C4
:100070001B0010081B0010081B0010081B001008B4
:100080001B0010081B0010081B0010081B001008A4
:100090001B0010081B0010081B0010081B00100894
:1000A000D934000851391008E934000841391008E2
:1000B0001B0010081B0010081B0010081B00100874
:1000C0001B0010081B0010081B0010081B00100864
:1000D0001B0010081B0010081B0010081B00100854
:1000E0001B0010081B00100800000000F934000875
:1000F0001B0010081B0010081B0010081B00100834
:100100001B0010081B0010081B0010081B00100823
:100110001B0010081B0010081B0010081B00100813
:100120001B0010081B0010081B0010081B00100803
:100130001B0010081B0010081B0010081B001008F3
:1001400000000000000000000000000000000000AF
:100150001B0010081B0010081B0010081B001008D3
:100160001B0010081B0010081B0010081B001008C3
:100170001B0010081B0010081B00100800000000E6
:100180001B0010081B0010081B0010081B001008A3
:100190001B0010081B0010081B0010081B00100893
:1001A0001B0010081B0010081B0010081B00100883
:1001B0001B0010081B0010081B0010081B00100873
:1001C0001B0010081B0010081B0010081B00100863
:1001D0001B0010081B0010081B0010081B00100853
:1001E0001B0010081B0010081B0010081B00100843
:1001F0001B0010081B0010081B0010081B00100833
:100200001B0010081B0010081B0010081B00100822
:100210001B0010081B0010081B0010081B00100812
:100220001B0010081B0010081B0010080000000035
:100230001B0010081B001008000000001B00100825
:100240001B0010081B0010081B0010081B001008E2
:100250001B0010081B0010081B0010081B001008D2
:100260001B0010081B0010081B0010081B001008C2
:100270001B0010081B0010081B00100800000000E5
:100280001B0010081B0010081B00100800000000D5
:10029000000000001B001008DFF80CD000F08AF806
:1002A0000048004759350008801D0024D2B201E003
:1002B00000F8012B491EFBD270470022F6E710B56B
:1002C00013460A4604461946FFF7F0FF204610BDC4
:1002D0003EB5CA17CB0F002450405140C0186141B1
:1002E000DA0740F233430094CDE901232246234646
:1002F00000F011F803B030BD10B5141E73F1000406
:1003000008DA401C41F1000192185B411A4301D107
:1003100020F0010010BD2DE9F04D92469B4611B131
:10032000B1FA81F202E0B0FA80F220329046FFF09A
:10033000AAFE04460F4640EA0A0041EA0B01534672
:100340005A46084313D0114653EA010019D0C8F1A8
:1003500040025046FFF0A6FE05460E46504659465E
:100360004246FFF090FE084305D0012004E02046FD
:100370003946BDE8F08D0020054346EAE0762C437F
:1003800037430A986305E40AA0EB08000022FD0A3F
:1003900044EA47540A3002D500200146E9E7010546
:1003A00010196941DDE9084500196941BDE8F04DC2
:1003B000A2E700001CB509480090094801900546D5
:1003C000009C06E0E06840F0010394E807009847CD
:1003D0001034AC42F6D3FFF763FF0000206C000836
:1003E000406C0008000000000138C0B2022888BF3D
:1003F000704702A252F820000170704730010024BB
:100400003101002432010024704700000000000088
:10041000022000F009B80000EFF3108072B600BFB0
:10042000FEE70000000000008821C5F600010A6810
:10043000024208BF70470860FFF0E2BF0000000002
:10044000002A08BF09048161704700000000000015
:1004500041F20000C5F600400068000C7047000043
:1004600040F67C60C2F20040006870470000000067
:1004700090F84120202A03D190F84020012A01D190
:1004800002207047242280F841200268136823F07C
:1004900001031360136823F4805313601368194336
:1004A0001160116841F001011160202180F84110B4
:1004B000002180F84010084670470000000000004E
:1004C00081B044F2F441C5F602010A6842F002022A
:1004D0000A60096801F00201009140F20441009AAB
:1004E000C5F600010A681043086001B070470000BB
:1004F00010B310B5044690F8410028B9002084F8E4
:100500004000204600F068F9242084F8410094E877
:100510000910E2680168012A21F00101016023F05D
:1005200070610161816821F40041816006D14CF461
:10053000004181600CE000BF01207047022A4CF4AA
:100540000441816004D1416841F4006103E000BFCF
:10055000416821F40061416004F1100C416841F0F0
:10056000007141F400414160C16821F40041C16063
:100570009CE80E10114341EA0321C160216A41EA5F
:100580000C010160016841F001010160002060641C
:10059000202184F84110206384F8420010BD00003F
:1005A0002DE9F04F81B0044690F8410020280DD18C
:1005B000DDF82880B8F1000F0CD0DDF82CA0BAF1DE
:1005C000000F07D094F8400001280BD1022001B0A1
:1005D000BDE8F08F4FF400706064012001B0BDE809
:1005E000F08F00BF1D4617468946012084F8400061
:1005F000FFF736FF216806468A69120449D4212094
:1006000084F84100402084F84200E8B24FF0000B2B
:100610006FF39F29C4F844B0C4F8248049EA00402D
:10062000A4F82AA049F6004ACFF6004AC4F834B02C
:100630004A68AAF580631A40DDF8308010443246DB
:1006400040F0807040F4005048602046414602F17E
:100650005BFAA8B9012D206808D0390A81622046CA
:100660004146324602F150FA50B92068F9B281622F
:100670008021002220464346009602F191F948B3BA
:1006800084F840B0012001B0BDE8F08F8869000413
:10069000B5D519212046324601F02AFD00289CD10B
:1006A000FFF7DEFE801B21681A28EFD3886900045B
:1006B000ECD5606C40F020006064202084F841009C
:1006C000002084F8420084F84000012001B0BDE819
:1006D000F08F00BF608D0025C0F2FF15B0F5807F60
:1006E00008D320682B4650F8041F01EA0A02FF21B4
:1006F0000BE000BF618D2068CAB250F8043F03EAE6
:100700000A0343EA02424FF000731A43FF2742EA0A
:1007100009020260218511E0618D20682185C9B23E
:1007200050F8042F02EA0A0242EA01414FF0007237
:10073000114341EA09010160608D78B320464146CA
:10074000324602F1E1F900287FF447AF606A216880
:1007500010F8012B8A626062608D01386085208DFF
:1007600001382085618D0029E6D00004E4D1802184
:10077000002220464346009602F112F900287FF439
:100780002CAF608DB0F5807FC6D3206827852A46C0
:1007900050F8041F01EA0A01CAE700BF204641469B
:1007A000324602F171F900287FF417AF206820214A
:1007B0004EF60003C161CFF6006342681A40426002
:1007C00084F84110002084F8420084F8400001B011
:1007D000BDE8F08F00000000B0B5B8B002A9044633
:1007E00001F10800B821FFF768FD45F200412068DB
:1007F000C4F20001884201D038B0B0BD0820029098
:1008000002A80024039400F1ABF808B1FFF704FE3E
:1008100044F2E04533A9C5F60205286840F002001D
:100820002860286800F0020033903398C02033908D
:100830001220CDE934040420379040F20040369471
:10084000C5F60200FFF008FEA86840F40010A8609A
:10085000A86800F400100190019838B0B0BD000005
:1008600080B5032000F0CCF800F00EFA44F21841F5
:1008700046F6E833C5F60201C0F610030A68C2F373
:1008800003229A5C096801F00F0102F01F02595C13
:10089000D04040F22C02C2F2004201F01F0120FAC7
:1008A00001F1116040F22801C2F2004108600F20FE
:1008B00000F00AF800281CBF012080BD00F118F8E4
:1008C000002080BD0000000070B540F22006C2F29A
:1008D00000463178E1B1044640F22800C2F20040FF
:1008E0004FF47A72B2FBF1F10068B0FBF1F000F066
:1008F000E3FC0F2C4FF0010508D838B94FF0FF305A
:1009000000222146002500F04BF87460284670BD97
:10091000012070BD0000000010B54EF6A05E4178C9
:10092000CEF2000E90F800C04EF8081CDEF8001061
:1009300021F00101CEF8001041684EF8041C017B43
:10094000C37A827A447B1B0643EA0171837B41EAC6
:10095000C241C27B41EA8441447A41EA4341007A80
:1009600041EA024141EA042141EA400040EA0C0028
:10097000CEF8000010BD0000002848BF704700F00E
:100980001F01012202FA01F14EF20012C0F34A10D7
:10099000CEF2000242F82010704700000000000074
:1009A00070B54EF60C5C4FF0FF36CEF2000C00F145
:1009B000604505F56445DCF80030C3F3022E8EF087
:1009C0000703042B28BF0423BEF1030406FA03F334
:1009D00021EA030100F00F0338BF0024043B002884
:1009E000634406FA04F048BF03F10C05A14022EA73
:1009F000000008430001287070BD000000000000E6
:100A00004EF60C514FF6FF03CEF200010A681A4071
:100A100060F30A2242F0806040F0FD700860704789
:100A20002DE9F04381B0002800F02A8142F200084D
:100A30000446C5F200288946D8F8000000F00F00EF
:100A400088420ED2D8F8000020F00F0040EA0900DA
:100A5000C8F80000D8F8000000F00F00484540F04A
:100A60000F81206844F218474107C5F602070AD5EE
:100A700021693A6802F07002914204D93A6822F082
:100A800070021143396001070AD561697A6802F082
:100A90007002914204D97A6822F0700211437960A1
:100AA000C1060AD5A1697A6802F4E062914204D9CC
:100AB0007A6822F4E0621143796081060AD5E1691F
:100AC000BA6802F07002914204D9BA6822F070024A
:100AD0001143B96010F002010AD0E2683B6803F0EC
:100AE0000F039A4204D93B6823F00F031A433A607C
:100AF000C20746D03968D4E9010221F470610128A7
:100B000041EA0201396009D003280DD0022811D131
:100B100057F8181C890312D4B2E000BF57F8181C0C
:100B2000C9050CD4ACE000BF57F8181C890106D4E5
:100B3000A6E000BF57F8181C490740F1A18057F8FC
:100B4000081C21F00701084347F8080CFFF788FC50
:100B5000064641F2883500BF57F8080C616800F07E
:100B60003800B0EBC10F09D0FFF77AFC801BA84218
:100B7000F2D9032001B0BDE8F08300BF206800F087
:100B8000020151B1E1683A6802F00F02914204D2C9
:100B90003A6822F00F0211433960D8F8001001F0D2
:100BA0000F0149450DD9D8F8001021F00F0141EA95
:100BB0000901C8F80010D8F8001001F00F014945EC
:100BC0005ED141070AD521693A6802F0700291426C
:100BD00004D23A6822F070021143396001070AD545
:100BE00061697A6802F07002914204D27A6822F058
:100BF000700211437960C1060AD5A1697A6802F4CE
:100C0000E062914204D27A6822F4E0621143796092
:100C100080060AD5E069B96801F07001884204D203
:100C2000B96821F070010843B86000F02DF8396808
:100C300046F6E832C0F61002C1F30321515C3B686E
:100C400003F00F0301F01F01D25C20FA01F102F062
:100C50001F0040F22C02C2F2004221FA00F01060A4
:100C600040F2240040F22802C2F20040C2F20042E8
:100C70000068116001B0BDE8F043FFF725BE00BF7A
:100C8000012001B0BDE8F08344F20041C5F6020145
:100C90000869C0F3C200032810D002282ED098BBE8
:100CA0000868800649F20000C0F2D03058BF704793
:100CB0000968C1F3C101C840704700BF8A6A886AE9
:100CC000C0F3051CC86ABCF1000F4B6B22D000F0CA
:100CD000010002F003024042022A00EAD3006FF34F
:100CE0005F3000EE100AB8EE400A15D0C2B90868AD
:100CF000800619D49FED281A23E000BF47F6400074
:100D0000C0F27D10704700BF40F60010C0F23D00F9
:100D1000704700BF002070479FED1E1A11E000BF12
:100D20009FED1B1A0DE000BF086849F20002C0F2F7
:100D3000D032C0F3C10022FA00F001EE100AB8EE82
:100D4000411A086B9FED153A6FF35F2002EE100A0F
:100D5000086BC0F34620B8EE422A013000EE032AA9
:100D600000EE10CAB7EE003AB8EE400A81EE000A73
:100D700032EE031A20EE010A01EE100AB8EE411A13
:100D800080EE010ABCEEC00A10EE100A704700BFE8
:100D90000024744A20BCBE4B0024744C000000396F
:100DA00000284DD02DE9F04F81B043F600010446F4
:100DB0000068C4F2000143F2000E43F6004C884282
:100DC000C4F2010EC4F2000C4FF00002A26203D084
:100DD000604518BF704541D1E36B0125E268884248
:100DE00002F1080205EB53134FEAD20202FB03F3B0
:100DF00018BF704526D1102B33D894F8810028B93C
:100E0000002084F88000204600F0AAF8022084F830
:100E10008100D4E90009D4F818800368B8F1806F24
:100E200023F001030360836803F4F81E26D1B9F1AF
:100E3000000F1BD0B9F5800F20D1A36B23BB19E0A5
:100E400001207047604518BF082B0AD80CF5744183
:100E50008842D0D06045CED0CFE700BFE3680F2BEB
:100E6000BAD9012001B0BDE8F08F00BFA36BB3F188
:100E7000805F06D1036843F4805303605FEA49232F
:100E800002D44FF0010C0FE0E368072B0AD305688A
:100E900025F4807C256D45EA0C0505604FF0000CBB
:100EA00007E000BF4FF0000C036823F48073036079
:100EB000E368E769A26A47EA0E07E16B3A43A7686D
:100EC0001143B9F1000FD4E904BA41EA030181608A
:100ED000616BA56B626A41EA0201226A41EA05017F
:100EE00041EA0B0141EA0A01D4E9126341EA020135
:100EF000A26D41EA030141EA070141EA060141EA24
:100F0000020141EA080141EA0901C1600ED0016D08
:100F1000BCF1000F21F00101016515D1C168626DBE
:100F200021F000411143C1600EE000BF8168012241
:100F300062F3CC2181608168022262F34A218160E0
:100F4000016D21F0010101650020C4F88400012138
:100F500084F8811001B0BDE8F08F000000000000AF
:100F600043F200410068C4F20101884218BF704793
:100F70002DE9F04186B044F2E04041F20004C5F6AC
:100F80000200C5F6020401AD0026016941F40051DA
:100F90000161016901F4005101910199016841F079
:100FA00010010160016801F01001019101990168CF
:100FB00041F008010160016801F008010191019907
:100FC000016841F0100101600068294600F010003E
:100FD000019001984FF4B04001900220029003204C
:100FE00004900520059020460396FFF035FAA4F5FD
:100FF000806029464FF40048CDF80480012704960C
:10100000CDE90276FFF028FA20462946CDE901878E
:10101000CDE90366FFF020FA06B0BDE8F041704765
:101020002DE9F0471D4617460E460446D0F80090BD
:10103000FFF716FA94F8811001290BD180460120A0
:10104000002E18BF002F01D1BDE8F08794F8800072
:10105000012803D10220BDE8F08700BF012184F8F8
:101060008010032084F881000020C4F88400E66525
:10107000A4F86070A4F862706066A4F86800A4F830
:101080006A00A2682067B2F5C02F6067206805D1AA
:10109000016841F40061016004E000BFC26861F3CF
:1010A0005242C26041684FF6FF7291433944416039
:1010B000016841F0010101606168B1F5800F03D161
:1010C000016841F400710160E16810294ED3B4F861
:1010D0006200002800F0C680681C10D133E000BF19
:1010E000E16D51F8042B0262E165B4F86200013849
:1010F000A4F86200B4F86200002800F0B380206811
:1011000041698907ECD4FFF7ABF9A0EB0800A842CE
:10111000F0D3204601F0E4FCD4F8840040F4807061
:10112000C4F88400012084F88100002084F8800045
:101130000320BDE8F08700BFFFF792F9B4F8620022
:10114000002800F08F80206841698907F4D5E16D9F
:1011500051F8042B0262E165B4F862000138A4F88A
:101160006200B4F862000028EDD17BE0B4F86200C0
:10117000072933D9002875D04FF6FE706E1C471C26
:1011800013E000BFE06B0028E06D20D050F8042B86
:101190000A624FF6FE71E065B4F862000844A4F8F4
:1011A0006200B4F8620000285CD0216848698007BA
:1011B00008D4FFF755F9002EF3D0A0EB0800A842A1
:1011C000EFD3A6E7B4F862000128DBD8E06D30F871
:1011D000021BA9F820103946DDE700BF002841D0E6
:1011E0004FF6FE706E1CA0F1020A471C0EE000BF15
:1011F000E16D51F8042B02625046E165B4F86210CB
:101200000844A4F86200B4F8620058B32068416949
:10121000890709D4FFF724F9002EF4D0A0EB0800C9
:10122000A842F0D375E700BFB4F86210042902D3D6
:10123000E16B4129DCD2B4F8621001290AD9E16BD3
:101240000029E16D07D031F8020BA9F820004FF614
:10125000FE70D2E7E16D097880F82010E06D411C46
:101260003846CAE7681C13D020684069000713D4C9
:10127000FFF7F6F8A0EB0800A842F5D3D4F88400F5
:1012800040F02000C4F8840006E000BFFFF7E8F853
:10129000206840690007F9D5204601F021FC0120B3
:1012A00084F88100002084F88000D4F884000028AD
:1012B00018BF0120BDE8F087411E0020B0EB116F80
:1012C00002D00120704700BF4EF21002F023CEF290
:1012D000000251604EF62351CEF200010B7007213F
:1012E000906011607047000070470000000000002F
:1012F00090F83C20012A01D102207047B0B5CB689C
:1013000048F2FF7ED1E901C223F47C5322F47052EB
:10131000CFF6F07E1A430CEA0E03D1F800C042EA81
:10132000030E2CF477230A6943EA0E0322F4762293
:10133000D0F800E01A434B691A438B6A22F4742CEC
:1013400023F470238A6940F200454EF48064C4F2AD
:10135000010543EA0C03AC4243EA02430FD10025E6
:1013600023F07C724B6ACFF6F045CC6905EA035353
:101370001A4324F00073096A1A4342EA0103CEF8C3
:101380004430002180F83C10BDE8B040084670476A
:1013900090F83C20012A4FF002025ED0B0B580F8F0
:1013A0003D2040F2004C0268C4F2010C42F480631C
:1013B00063455368D2F808E002BF23F470034C6819
:1013C000234341F2FF740D68C4F2000423F070035C
:1013D000A24243EA050353600CDC40F2FF73C4F2FF
:1013E00000039A4216DCB2F1804F29D040F200434C
:1013F00018E000BF40F2FF33C4F201039A4217DC49
:1014000041F60003C4F200039A4219D00023C4F24B
:10141000010309E040F60003C4F200039A420FD032
:1014200040F60043C4F200039A4209D00DE000BF29
:1014300044F20003C4F201039A4201D0624504D190
:101440002EF080038968194391600022012180F801
:101450003D1080F83C20BDE8B040104670470000C9
:1014600060B310B5044690F83D0028B9002084F818
:101470003C00204600F024F8022084F83D0020685B
:10148000211D02F16DFA012084F8480084F83E0025
:1014900084F83F0084F8400084F8410084F842005A
:1014A00084F8430084F8440084F8450084F846003A
:1014B00084F8470084F83D00002010BD01207047EB
:1014C00080B586B04FF6FF710068C4F20001884213
:1014D0001EDC40F60001C4F20001884276D041F2E1
:1014E0000001C4F2000188427CD041F60001C4F240
:1014F0000001884240F08F8044F2E840C5F60200C7
:10150000016841F040010160006800F0400090E097
:1015100044F20001C4F2010188426FD040F2004160
:10152000C4F20101884279D00021C4F2010188424D
:1015300071D144F2E840C5F60200816841F0010132
:101540008160816801F001010191019950F8081C46
:1015500041F0100140F8081C50F8080C01A900F0F7
:101560001000019001984FF4007001900220029049
:101570000020CDE903000120059041F20000C5F6EE
:101580000200FEF069FF182000210022FFF708FA90
:101590001820FFF7F1F9192000210022FFF700FAC7
:1015A0001920FFF7E9F91A2000210022FFF7F8F9C6
:1015B0001A20FFF7E1F91B2000210022FFF7F0F9C4
:1015C0001B20FFF7D9F906B080BD00BF44F2E84008
:1015D000C5F60200016841F004010160006800F0F6
:1015E000040016E044F2E840C5F60200016841F04C
:1015F00010010160006800F010000AE044F2E840C9
:10160000C5F60200816841F480318160806800F491
:1016100080300190019806B080BD00BF44F2E840E0
:10162000C5F60200816841F002018160806800F027
:1016300002000190002101982B200022FFF7B0F951
:101640002B2006B0BDE88040FFF796B900000000EF
:1016500080B599B10A1F8B0743EA920EBEF1030FC2
:1016600018D8DFE80EF0031F273700BF00F13F0254
:1016700092F800C0082923D132E000BF90F83E2044
:1016800090F84430012A4FF0010208BF012B3DD0F1
:10169000104680BD00F1430292F800C008290FD126
:1016A0001EE000BF00F1400292F800C0082907D1F7
:1016B00016E000BF00F1410292F800C008290FD0E7
:1016C000042903D100F145020CE000BF00F14702FC
:1016D00008E000BF00F1420292F800C00829EFD1F3
:1016E00000F1460213780122BCF1010F08BF012B63
:1016F000CED1BEF1030F15D8DFE80EF0021A203A62
:10170000022280F83F2008291DD136E0022280F80D
:101710003E2080F844204FEAB1030122032BB7D8C2
:1017200033E000BF022280F8432008290BD124E0D7
:10173000022280F84020082905D11EE0022280F80C
:101740004120082919D0042908D180F845204FEA02
:10175000B1030122032B3FF69BAF16E080F8472030
:101760004FEAB1030122032B3FF692AF0DE000BF19
:10177000022280F842200829E5D180F846204FEA6D
:10178000B1030122032B3FF683AFD0F800C046F629
:10179000B030C0F6000050F82300DCF80C301843DD
:1017A000CCF80C0001F01F00DCF8201002FA00F069
:1017B0008143CCF8201041F2FF71DCF82020C4F204
:1017C000000110438C45CCF820000DDC40F2FF7086
:1017D000C4F20000844515DCBCF1804F2AD040F2F1
:1017E0000040C4F2000023E040F2FF30C4F20100E8
:1017F000844513DC41F60000C4F20000844519D092
:10180000002013E040F60000C4F20000844511D02F
:1018100040F60040C4F200000AE000BF44F20000BD
:10182000C4F20100844505D040F20040C4F201003A
:1018300084450CD10721DCF80800C0F20101002228
:101840000140062918BFB1F5803F3FF421AFDCF815
:101850000000002240F00100CCF80000104680BDDE
:10186000F0B581B004460068C5680669B10717D5B0
:1018700015F0020114D06FF00201016101212177FE
:101880008069800704D0204600F1E6FB06E000BF37
:10189000204600F09DF8204601F112F80020207744
:1018A000700719D515F0040016D020686FF00401F8
:1018B000016102212177806910F4407F04D0204625
:1018C00000F1CAFB06E000BF204600F081F8204688
:1018D00000F1F6FF00202077300717D515F008003B
:1018E00014D020686FF00801016104212177C069DC
:1018F000800703D0204600F1AFFB05E0204600F052
:1019000067F8204600F1DCFF00202077F00619D5AB
:1019100015F0100016D020686FF010010161082149
:101920002177C06910F4407F04D0204600F194FB79
:1019300006E000BF204600F04BF8204600F1C0FF53
:1019400000202077F00718BF15F0010006D02068AE
:101950006FF001010161204600F03AF905F08007BF
:1019600016F4025F18BF002F02D1F00509D410E071
:1019700020686FF4025101612046FFF7B5FCF005C5
:1019800007D537B120686FF480710161204600F1FE
:101990003FF8700609D515F0400006D020686FF0BA
:1019A00040010161204600F09FFBB0060CD515F008
:1019B000200009D020686FF020010161204601B0AD
:1019C000BDE8F04000F128B801B0F0BD0000000013
:1019D000704700000000000060B310B5044690F8A6
:1019E0003D0028B9002084F83C00204600F024F88F
:1019F000022084F83D002068211D01F1B1FF012083
:101A000084F8480084F83E0084F83F0084F84000E1
:101A100084F8410084F8420084F8430084F84400CC
:101A200084F8450084F8460084F8470084F83D00B7
:101A3000002010BD0120704770470000000000002A
:101A400081B10A1F8B0743EA9202032A12D8DFE80A
:101A500002F003171F2500BF00F13F031B78012B85
:101A600013D120E090F83E20012A0ED1022280F806
:101A70003E2032E000F143031B78012B05D112E038
:101A800000F140031B78012B0DD00120704700BFEF
:101A900000F141031B78012B05D0F6E700F142036A
:101AA0001B78012BF1D1032A08D8DFE802F0030BE1
:101AB0000F1300BF022280F83F200EE0022280F8C0
:101AC00043200AE0022280F8402006E0022280F84B
:101AD000412002E0022280F84220026801F01F004B
:101AE000012101FA00F0116A814311624FF6FF7182
:101AF000C4F200018A42116A40EA0100106219DC56
:101B000040F2FF70C4F2000082422FDD40F6000078
:101B1000C4F20000824243D040F60040C4F200000C
:101B200082423DD041F60000C4F20000824237D02C
:101B300048E000BF43F6FF700021C4F20100C4F288
:101B40000101824244F20000C4F2010018DD824229
:101B50001ED044F60003C4F201039A4218D044F2A6
:101B60000043C4F201039A4212D02BE0B2F1804F3D
:101B700016D040F20040C4F20000824210D021E0B2
:101B80008A4205D040F20043C4F201039A4219D1BF
:101B9000536C8A4243F40041516418BF82420BD116
:101BA00007219068C0F2010101400020062918BFFA
:101BB000B1F5803F06D1704740F20040C4F2010009
:101BC0008242EDD0106840F00100106000207047A4
:101BD0002DE9F04F81B02DED048B84B00446202018
:101BE000C4F201002168A0F12002914239D140F2F3
:101BF000C805C2F200456979C1B12A79012902F10B
:101C000001022A71D2B208BF022A05D001F0FE01FA
:101C1000022908BF072A09D100216971016821F052
:101C20000A010160016841F002010160A91C47201E
:101C300001F12EFBE91C482001F12AFB688801BA5A
:101C4000B5F90800C0EB2140821F090C12F10C0FFE
:101C5000298206D8D5E91012091842EBE070C5E9CF
:101C6000101040F61C40C2F20040844206D004B07E
:101C7000BDEC048B01B0BDE8F08F00BF002000F088
:101C8000EBFB6FF07F4001F1B7F940F2C80501208E
:101C9000C2F20045012103236A7800F1B1FF01205F
:101CA00001F03EFC024605209021042300F1A8FF2C
:101CB000022001F035FC02460520A821042300F192
:101CC0009FFF032001F02CFC02460520C0210423C5
:101CD00000F196FF2A6C50209021042300F190FF20
:101CE0002A6A5020A821042300F18AFF2A78502074
:101CF000C021032300F184FF6A69A02090210423FE
:101D000000F17EFFAA69A020A821042300F178FF3A
:101D1000EA69A020C021042300F172FF686B00284B
:101D200000F1A48100F1D0FD696B40F2881800EE4B
:101D3000101A78289FEDD88B28BF7820B8EEC00BFA
:101D4000C2F200489FEDD69B28F8110020EE080B48
:101D5000A86380EE090B01F067FE95ED0D1A95ED75
:101D60000E2AB8EEC11BB8EEC22B21EE081B9FED68
:101D7000CE8BB0EE483B81EE091BA0EE423BBCEEA1
:101D8000C30B10EE104AB0EE410B01F145FF95ED8B
:101D90000E1A6FF07F42B8EEC11B2046A0EE418BB9
:101DA000BCEEC80B10EE101A00F032FB686BB328C3
:101DB00000F101016963C0F2618100F1F1FE6FF091
:101DC00031006863B42001F01BFE98F828104FF62C
:101DD000E860CFF6FF7000BFCFB2283000EB0802FA
:101DE000B2F81831BB4238BF1946B2F81A31CFB237
:101DF000BB4238BF1946B2F81C31CFB2BB4238BF24
:101E00001946B2F81E31CFB2BB4238BF1946B2F8FC
:101E10002031CFB2BB4238BF1946B2F82231CFB21F
:101E2000BB4238BF1946B2F82431CFB2BB4238BFEB
:101E30001946B2F82631CFB2BB4238BF1946B2F8C4
:101E40002831CFB2BB4238BF1946B2F82A31CFB2DF
:101E5000BB4238BF1946B2F82C31CFB2BB4238BFB3
:101E60001946B2F82E31CFB2BB4238BF1946B2F88C
:101E70003031CFB2BB4238BF1946B2F83231CFB29F
:101E8000BB4238BF1946B2F83431CFB2BB4238BF7B
:101E90001946B2F83631CFB2BB4238BF1946B2F854
:101EA0003831CFB2BB4238BF1946B2F83A31CFB25F
:101EB000BB4238BF1946B2F83C31CFB2BB4238BF43
:101EC0001946B2F83E21CBB29A4238BF11460028DB
:101ED00082D1C8B202900A204FF0000C50FA81F073
:101EE00001906FF00B0A00200025DDE9019E00BF84
:101EF00008EB0A0B0026EFB208EB4C01BBF80C20F4
:101F00000CF1010400230AF10C0A724538BF0126C6
:101F100091454FF0000238BF01221643624618BFB8
:101F20000022002F18BF2A466546002E039118BFD5
:101F300005464E88002F08BF05460020764538BF6D
:101F40000120B1454FF0000638BF0126414650EA56
:101F500006072046D6B218BF2846BBF81080002ED0
:101F600008BF28460025F04538BF0125C1458846F1
:101F700038BF01230CF102012B430D4618BF002589
:101F8000002F08BF2546002E0CF1040418BF15468B
:101F9000002B0CF1030318BF0146002F08BF0846B1
:101FA000BBF81220002E18BF08460021724538BF2A
:101FB000012191454FF0000238BF0122EFB21E46C9
:101FC000114318BF0646039A002F128908BF064620
:101FD0000020724538BF012091454FF0000238BF04
:101FE00001221043224618BF0022002908BF1A46CA
:101FF000002F4FF0000318BF2A46002818BF3446B0
:1020000000294FF0000108BF2646BBF81600002F3C
:1020100018BF2646D4B2704538BF012181450CF166
:10202000050038BF012305460CF1060C194318BF03
:102030000025002C18BF1546002918BF3046002C7B
:1020400008BF3046BCF1B40F7FF452AFC0B240F2CB
:10205000C80150FA85F0C2F200414008087004B08F
:10206000BDEC048B01B0BDE8F08F00BF01306863A8
:1020700004B0BDEC048B01B0BDE8F08FC0F1B3003B
:1020800080B204B0BDEC048B01B0BDE8F04F01F0AC
:10209000B7BC00BF00BF00BF4AD8124DFB210940AA
:1020A00000000000008066400000000000005E406C
:1020B0004FEAB101032907D8DFE801F002080C104C
:1020C000006834300068704700207047006838307E
:1020D0000068704700683C30006870470068403016
:1020E000006870470000000070470000000000001A
:1020F00070B5044600688369DB0603D40021002222
:1021000069E000BF0E461021C161816989065ED475
:10211000711C52D0154636BBFEF7A2F92068426802
:1021200094F8421083691B040CD512F4804209D143
:10213000202907D0416841F480414160FEF790F9C1
:10214000054600BF20688169890605D4FEF788F935
:10215000401B1A28F6D328E081698906DCD536E0D1
:102160008169890633D4FEF77BF9401BB0422068B1
:10217000F6D9426894F8421083691B040CD512F416
:10218000804209D1202907D0416841F48041416053
:10219000FEF766F9054600BF206881698906DFD42D
:1021A000FEF75EF9401B1A28F6D3206801228169E8
:1021B000242110E08169890609D48169890606D441
:1021C000816989065CBF81695FEA8161F2D520215E
:1021D000C161012204218369DE0505D541F00101B9
:1021E0004FF48072C26101225E0505D49B050AD4BA
:1021F00072B9002070BD00BF41F008019A054FF48C
:102200008062C26104D541F002014FF40072C261E4
:102210008269920701D5002282628269D20703D1C6
:10222000826942F0010282614EF600034268CFF6F5
:1022300000631A404260606C08436064202084F8A8
:102240004100002084F8420084F84000012070BD65
:102250002DE9F04F83B040F21817C2F20047CDE9E4
:1022600001013B681D89002D00F09680203A40F264
:10227000F02E5FFA82F91868D7E902BA0027C2F295
:10228000004E00224FF0000805FB0904E55D1FFA2F
:1022900088F4EE075E4608BF56462EF81460561CBA
:1022A0001FFA86FC9C88A44508F1010454D0A6B20C
:1022B000AC075C4658BF54462EF81640961CB1B287
:1022C0009C88A14208F1020446D0A1B26E075E4686
:1022D00058BF56462EF81160D61CB4B299888C426D
:1022E00008F1030438D0A1B22E075E4658BF564607
:1022F0002EF81160161DB4B299888C4208F10404BE
:102300002AD0A1B2EE065E4658BF56462EF811609E
:10231000561DB4B299888C4208F105041CD0A1B2B4
:10232000AE065E4658BF56462EF81160961DB4B2F2
:1023300099888C4208F106040ED0A1B26E065E4662
:1023400058BF56462EF81160D61DB4B299888C42FB
:1023500008F1070408D100BF0022A0461D890137FB
:10236000AF4291D319E000BF69B208F10808A6B2E4
:102370000029594658BF51462EF8161002F108019F
:102380008AB29E88921B18BF0A461D890137AF4248
:10239000FFF47AAF01E000BF9E88DB8801980299C4
:1023A00082190B44013A92B2013B9BB200F17CFDD1
:1023B00040F218100122C2F2004000688188C088F3
:1023C00000FB01F541F20000C5F602004FF40041A8
:1023D000FEF736F840F648340F20C2F20044E060C1
:1023E0002046FEF7DDFCAAB240F2F021C2F2004125
:1023F0004FF47A732046FEF713FE0720E060204674
:1024000003B0BDE8F04FFEF7CBBC000000000000B9
:1024100010B582B0144602460B4600F145FD41F26C
:1024200000004FF40041C5F602000122FEF708F853
:1024300020BA0DF10601000CADF8060040F6483058
:102440000222C2F200404FF47A73FEF7E9FD02B0B7
:1024500010BD0000000000004FF478414FF4FC6212
:1024600001EA102102EA5012C0F3C400114440F204
:1024700018120844C2F20042D06070470000000009
:102480002DE9F04786B044F2E0404FF00008C5F671
:102490000200CDF8148040F6004A00220168C5F61B
:1024A000020A41F0040101600168AAF5006701F029
:1024B000040100910099016841F080010160016808
:1024C00040F6034601F0800100910099016841F057
:1024D00001010160016801F00101009100990168AA
:1024E00041F002010160016801F0020100910099D0
:1024F000016841F010010160016801F010010091D4
:102500000099016841F008010160006840F603414C
:1025100000F00800009000983846FDF791FF0AF59A
:1025200080654FF4C071002228464FF4C079FDF752
:1025300087FF0121002250460124FDF781FFCDE9EC
:10254000016401AE38463146CDE90388FDF084FFD1
:1025500028463146CDE90194CDE90388FDF07CFFA2
:1025600050463146CDE901440224CDE90348FDF04F
:1025700073FF4FF444103146CDE9020450460194F4
:10258000FDF06AFF072001210022FEF709FA07206B
:10259000FEF7F2F906B0BDE8F08700000000000089
:1025A00080B540F6F42045F20041C2F2004041F20D
:1025B000C772C4F20001C0F25002C0E9001200214B
:1025C00081600122C0E90321C0E90511C0E90711BA
:1025D000FDF78EFF08B1FDF71FFF40F6F420002144
:1025E000C2F20040FDF744FF08B1FDF715FF40F6C9
:1025F000F4200021C2F20040FEF00AF808B1FDF715
:102600000BFF0120BDE88040FDF75ABF000000002D
:1026100080B588B040F61C4041F60002C2F200408E
:1026200000210791C4F20002CDE905110291026078
:1026300040F65F12C0E9012140F21F32C0E90321D8
:1026400080218161FEF70CFF08B1FDF7E5FE4FF434
:102650008050049040F61C4004A9C2F20040FFF0F4
:10266000AFFA08B1FDF7D8FE00200190039040F6C4
:102670001C40C2F2004001A9FEF78AFE08B1FDF736
:10268000CBFE08B080BD000080B588B040F6684041
:1026900044F20002C2F2004000210791C4F201029C
:1026A000CDE905110291C0E9002181604FF6FF726A
:1026B000C0E90321C0E90511FEF7D2FE08B1FDF71C
:1026C000ABFE4FF48050049040F6684004A9C2F27B
:1026D0000040FFF075FA08B1FDF79EFE0020019062
:1026E000039040F66840C2F2004001A9FEF750FE98
:1026F00008B1FDF791FE08B080BD000000000000A9
:1027000010B58CB040F6D0300022C2F2004000215B
:102710000B91C4F20102CDE909110791CDE9051130
:10272000CDE90311CDE901110260EF22C0E90121D9
:1027300044F61F624161C0E9032180218161FEF7F7
:102740008FFE08B1FDF768FE4FF48050089040F608
:10275000D03008A9C2F20040FFF032FA08B1FDF70C
:102760005BFE40F6D030C2F20040FFF019FE08B127
:10277000FDF752FE40F6D03005A9C2F20040002419
:10278000CDE905440794FEF703FE08B1FDF744FECA
:1027900002200190012001A9CDE9020440F6D030C9
:1027A0000022C2F200400494FFF012FD08B1FDF7D0
:1027B00033FE0CB010BD000010B58CB040F6B44034
:1027C0000024C2F200404FF080410194C0E900149F
:1027D0004FF0FF318460C0E9031403218461CDE927
:1027E000031401210B94CDE90514CDE9091403A9C3
:1027F000CDE90744FFF0E4FA08B1FDF70DFE40F61D
:10280000B4406946C2F2004000940294FEF7C0FD55
:1028100008B1FDF701FE0CB010BD00000000000083
:10282000B0B594B040F64C5040F60005C2F20040FE
:1028300000210E91C4F20005CDE90C11CDE909117A
:10284000CDE90711CDE90511CDE90311CDE901115C
:1028500005606322C0E901214BF67F328161C0E946
:102860000321FEF7FDFD08B1FDF7D6FD4FF48050C2
:102870000B9040F64C500BA9C2F20040FFF0A0F9BB
:1028800008B1FDF7C9FD40F64C50C2F20040FFF719
:10289000A3F808B1FDF7C0FD40F64C5008A9C2F2FC
:1028A0000040002408940A94FEF772FD08B1FDF779
:1028B000B3FD60200394CDE90104059440F64C5427
:1028C000C2F2004401A900222046FFF09DFD08B19C
:1028D000FDF7A2FD40F200412068C4F201018842E8
:1028E00018D0A84234D144F2E0404FF48052C5F6EB
:1028F0000200016841F008010160006800F0080072
:102900000F9040F600000F99C5F60200022100F575
:10291000806013E044F2E0404FF43072C5F60200EC
:10292000016841F0040101600068032100F0040027
:102930000F900F9840F60000C5F6020013910FA902
:102940000F92022210920022CDE91122FDF084FDA7
:1029500014B0B0BD0000000010B584B040F6E450E3
:1029600041F20001C2F2004000240294C4F20001CE
:10297000016045F6BF51C0E901144FF6FE71C16018
:102980008461FEF76DFD08B1FDF746FD40F6E450A9
:1029900001A9C2F2004001940394FEF7F9FC08B1CA
:1029A000FDF73AFD04B010BDFEE700000000000096
:1029B000FEE7000000000000F0B581B044F22C47B3
:1029C000C5F6020757F8042C02F00302032A03D1CC
:1029D000012001B0F0BD00BF054657F82C0C0C4695
:1029E00020F0805047F82C0CFDF73AFD064600BF5A
:1029F00057F82C0C800005D5FDF732FD801B02280E
:102A0000F6D964E057F8040CEE6895E80E0020F063
:102A10007C70012C40EA0150A2F101016FF35F21AB
:102A20004FF47E4202EB432247F8040C92B24FF07F
:102A3000FE4302EB01004FF4FE012A6901EB06415F
:102A400001F4FE0103EB0262084402F0FE41084477
:102A500078613868696920F4406040EA01003860B4
:102A60003868A96920F4007040EA010038603868CD
:102A70004FF6F87120F480703860B869EA6920EA8E
:102A800001004FF0807140EAC200B861386808BFA9
:102A90004FF4000140F48070002C386008BF4FF400
:102AA000800138680843386057F82C0C40F080509B
:102AB00047F82C0CFDF7D4FC044600BF57F82C0C4B
:102AC000800007D4FDF7CCFC001B0328F6D30320BD
:102AD00001B0F0BD002001B0F0BD0000000000001A
:102AE000016840F26F32D1F814C08B6943F00803DB
:102AF0008B618B6943F010038B610B6823F001033A
:102B00000B600B6923EA02020A618A6822F44042E0
:102B10008A6090F88120042A18BF1CF0200209D096
:102B2000D0F8842042F08002C0F884208A6942F004
:102B300020028A6190F88120032A18BF1CF040020D
:102B40000CD15FEA8C5216D45FEACC5220D400211B
:102B5000A0F86210A0F86A10704700BFD0F8842077
:102B600042F00402C0F884208A6942F040028A617F
:102B70005FEA8C52E8D5D0F8842042F00102C0F818
:102B800084208A6942F400728A615FEACC52DED501
:102B9000D0F8842042F00802C0F884208A6942F408
:102BA00080728A610021A0F86210A0F86A10704754
:102BB0002DE9F04F81B040F6483443F20040C2F2B4
:102BC0000044C4F2010000264FF0200920604FF4B9
:102BD000800060604FF4C020A0600720E0604FF0EC
:102BE0000050C4E906064FF08040A665C4E90D0612
:102BF0002020E0632046C4E90466C4E90866C4E90D
:102C00000A66C4E91066C4E91266C4E91466FEF7F0
:102C1000C7F80A20FDF0E0FB41F200053620C5F6BA
:102C200002058DF803004FF4004100222846FDF70D
:102C300007FC0DF1030101224FF47A7320464FF097
:102C40000108FEF7EDF94FF40041012228468DF806
:102C50000360FDF7F5FB0DF1030101224FF47A73D8
:102C60002046FEF7DDF93A208DF803004FF40041CD
:102C700000222846FDF7E4FB0DF1030101224FF489
:102C80007A732046FEF7CCF905208DF803004FF447
:102C9000004101222846FDF7D3FB0DF1030101227B
:102CA0004FF47A732046FEF7BBF9B2208DF803008B
:102CB0004FF4004100222846FDF7C2FB0DF103014D
:102CC00001224FF47A732046FEF7AAF90C208DF802
:102CD00003004FF40041012228460C27FDF7B0FB0A
:102CE0000DF1030101224FF47A732046FEF798F9A3
:102CF0004FF40041012228468DF80370FDF7A0FB38
:102D00000DF1030101224FF47A732046FEF788F992
:102D10004FF40041012228468DF80360FDF790FB37
:102D20000DF1030101224FF47A732046FEF778F982
:102D30004FF400410122284633278DF80370FDF738
:102D40007FFB0DF1030101224FF47A732046FEF759
:102D500067F94FF40041012228468DF80370FDF712
:102D60006FFB0DF1030101224FF47A732046FEF749
:102D700057F9B7208DF803004FF400410022284690
:102D8000FDF75EFB0DF1030101224FF47A7320463B
:102D9000FEF746F935208DF803004FF4004101227B
:102DA0002846FDF74DFB0DF1030101224FF47A7324
:102DB0002046FEF735F9BB208DF803004FF40041A3
:102DC00000222846FDF73CFB0DF1030101224FF4E0
:102DD0007A732046FEF724F919208DF803004FF48A
:102DE000004101222846FDF72BFB0DF103010122D2
:102DF0004FF47A732046FEF713F9C0208DF80300D4
:102E00004FF4004100222846FDF71AFB0DF10301A3
:102E100001224FF47A732046FEF702F92C208DF838
:102E200003004FF4004101222846FDF709FB0DF194
:102E3000030101224FF47A732046FEF7F1F8C22015
:102E40008DF803004FF4004100222846FDF7F8FA00
:102E50000DF1030101224FF47A732046FEF7E0F8EA
:102E60004FF40041012228468DF80380FDF7E8FA6F
:102E70000DF1030101224FF47A732046FEF7D0F8DA
:102E8000C3208DF803004FF4004100222846FDF7CF
:102E9000D7FA0DF1030101224FF47A732046FEF7B1
:102EA000BFF812208DF803004FF40041012228469C
:102EB000FDF7C6FA0DF1030101224FF47A732046A3
:102EC000FEF7AEF8C4208DF803004FF40041002255
:102ED0002846FDF7B5FA0DF1030101224FF47A738C
:102EE0002046FEF79DF84FF40041012228468DF858
:102EF0000390FDF7A5FA0DF1030101224FF47A7357
:102F00002046FEF78DF8C6208DF803004FF40041EF
:102F100000222846FDF794FA0DF1030101224FF437
:102F20007A732046FEF77CF80F208DF803004FF4EB
:102F3000004101222846FDF783FA0DF10301012229
:102F40004FF47A732046FEF76BF84FF400410022ED
:102F500028464FF0D00A8DF803A0FDF771FA0DF165
:102F6000030101224FF47A732046FEF759F8A4209A
:102F70008DF803004FF4004101222846FDF760FA66
:102F80000DF1030101224FF47A732046FEF748F851
:102F9000A1208DF803004FF4004101222846FDF7DF
:102FA0004FFA0DF1030101224FF47A732046FEF728
:102FB00037F8E0208DF803004FF400410022284646
:102FC000FDF73EFA0DF1030101224FF47A7320461A
:102FD000FEF726F84FF40041012228468DF803A0A1
:102FE000FDF72EFA0DF1030101224FF47A7320460A
:102FF000FEF716F804208DF803004FF4004101227B
:103000002846FDF71DFA0DF1030101224FF47A73F2
:103010002046FEF705F84FF40041012228460D270F
:103020008DF80370FDF70CFA0DF1030101224FF446
:103030007A732046FDF7F4FF11208DF803004FF45A
:10304000004101222846FDF7FBF90DF103010122A1
:103050004FF47A732046FDF7E3FF4FF4004101225D
:1030600028464FF013088DF80380FDF7E9F90DF1BC
:10307000030101224FF47A732046FDF7D1FF2B2084
:103080008DF803004FF4004101222846FDF7D8F9DE
:103090000DF1030101224FF47A732046FDF7C0FFC2
:1030A0004FF40041012228464FF03F0B8DF803B04A
:1030B000FDF7C6F90DF1030101224FF47A732046A2
:1030C000FDF7AEFF54208DF803004FF400410122BC
:1030D0002846FDF7B5F90DF1030101224FF47A738B
:1030E0002046FDF79DFF4C208DF803004FF4004172
:1030F00001222846FDF7A4F90DF1030101224FF446
:103100007A732046FDF78CFF18208DF803004FF4EA
:10311000004101222846FDF793F90DF10301012238
:103120004FF47A732046FDF77BFF4FF400410122F4
:1031300028468DF80370FDF783F90DF10301012294
:103140004FF47A732046FDF76BFF0B208DF80300D8
:103150004FF4004101222846FDF772F90DF10301F9
:1031600001224FF47A732046FDF75AFF4FF40041D5
:10317000012228461F278DF80370FDF761F90DF134
:10318000030101224FF47A732046FDF749FF4FF403
:103190000041012228464FF023098DF80390FDF7E6
:1031A0004FF90DF1030101224FF47A732046FDF728
:1031B00037FFE1208DF803004FF40041002228463C
:1031C000FDF73EF90DF1030101224FF47A73204619
:1031D000FDF726FF4FF40041012228468DF803A099
:1031E000FDF72EF90DF1030101224FF47A73204609
:1031F000FDF716FF04208DF803004FF40041012273
:103200002846FDF71DF90DF1030101224FF47A73F1
:103210002046FDF705FF0C208DF803004FF4004118
:1032200001222846FDF70CF90DF1030101224FF4AC
:103230007A732046FDF7F4FE11208DF803004FF459
:103240000041012228464FF0110AFDF7F9F80DF16F
:10325000030101224FF47A732046FDF7E1FE4FF49B
:103260000041012228468DF80380FDF7E9F80DF1B1
:10327000030101224FF47A732046FDF7D1FE2C2082
:103280008DF803004FF4004101222846FDF7D8F8DD
:103290000DF1030101224FF47A732046FDF7C0FEC1
:1032A0004FF40041012228468DF803B0FDF7C8F81D
:1032B0000DF1030101224FF47A732046FDF7B0FEB1
:1032C00044208DF803004FF4004101222846FDF709
:1032D000B7F80DF1030101224FF47A732046FDF790
:1032E0009FFE51208DF803004FF400410122284633
:1032F000FDF7A6F80DF1030101224FF47A73204681
:10330000FDF78EFE2F208DF803004FF400410122BF
:103310002846FDF795F80DF1030101224FF47A7369
:103320002046FDF77DFE4FF40041012228468DF82E
:103330000370FDF785F80DF1030101224FF47A7354
:103340002046FDF76DFE4FF40041012228468DF81E
:103350000370FDF775F80DF1030101224FF47A7344
:103360002046FDF75DFE20208DF803004FF400415C
:1033700001222846FDF764F80DF1030101224FF404
:103380007A732046FDF74CFE4FF400410122284697
:103390008DF80390FDF754F80DF1030101224FF46D
:1033A0007A732046FDF73CFE21208DF803004FF490
:1033B000004100222846FDF743F80DF103010122E8
:1033C0004FF47A732046FDF72BFE4FF400410022A4
:1033D00028468DF803A0FDF733F80DF10301012213
:1033E0004FF47A732046FDF71BFE7820FCF0F4FFC3
:1033F00029208DF803004FF4004100222846FDF7F4
:103400001FF80DF1030101224FF47A732046FDF7F6
:1034100007FE40F218170220C2F200474FF40041A5
:103420000022787436208DF803002846FDF708F84E
:103430000DF1030101224FF47A732046FDF7F0FDF0
:103440004FF40041012228468DF80360FCF7F8FF95
:103450000DF1030101224FF47A732046FDF7E0FDE0
:10346000F0207882B8824FF6FF70C7E9020600208C
:103470000021EF22EF23BE75FE75FFF015FD4FF41E
:10348000004101222846FCF7DBFF0F20E0602046C8
:10349000FDF786FC788ABA8AB98942432046FFF054
:1034A0004BFC0720E0602046FDF77AFC40F28C00E0
:1034B0004FF40041C2F200403860A5F5806001225F
:1034C0003E74FCF7BDFF01B0BDE8F08F00000000C6
:1034D000FDF0DEB90000000040F6D030C2F200403E
:1034E000FEF7BEB90000000040F6D030C2F2004046
:1034F000FEF7B6B90000000080B540F63060C2F2B9
:103500000040FEF7ADF940F61C40C2F20040BDE8B5
:103510008040FEF7A5B90000FEE7000000000000B3
:10352000032809D002280DD0012811D140F2301013
:10353000C2F200400069704740F23010C2F2004011
:103540008069704740F23010C2F200404069704715
:10355000002070470000000086B04EF66074012025
:10356000CEF200040290FDF0A3F948F21F7004901F
:1035700040F20110059002A800250395FDF7CCF953
:103580000420FDF0A5F94FF6B451CFF6FF71605855
:10359000800311D4BFF34F8FBFF36F8F44F8105CDB
:1035A000BFF34F8FBFF36F8F605840F4003060500F
:1035B000BFF34F8FBFF36F8F6058C00360D44FF6D7
:1035C00024600021CFF6FF70012343F6E07B2150F9
:1035D0004FF62060CFF6FF70BFF34F8F2058C20820
:1035E000C0F3C906C0F34E31771E03EBD000A6F13D
:1035F000020A930700F003004FEA87794FEA8A72C4
:103600000192F21E009203E00029A1F1010129D0EC
:103610000BEA4115324678B1012843EA05022260DF
:103620003A4609D0022849EA05022260524603D0F0
:10363000019A2A432260009A032EE5D345EA827557
:10364000013205F1404C85F0004E05F1804800BF85
:10365000043A2560C4F800C0C4F800E0C4F8008053
:10366000F6D1D1E74FF6B451CFF6FF71BFF34F8FCC
:10367000605840F480306050BFF34F8FBFF36F8FBE
:10368000FDF7EEF800F154F8FEF7FAFEFFF098FEB1
:10369000FFF792F8FFF02CFEFFF7C2F8FFF05CFE98
:1036A000FEF77EFFFFF72CF8FFF756F9FEF7ECFF69
:1036B000FEF7AEFF4FF0FF30012100220025FDF79D
:1036C0006FF9192002210022FDF76AF92B2003214E
:1036D0000022FDF765F9FFF76BFAFFF0C9FCFFF078
:1036E0001BF940F63064C2F200442046FEF098F91F
:1036F00000212046FEF7A4F940F698503C21C2F282
:103700000040FEF049FC40F2A400C2F20040FFF08D
:1037100087FC40F28C00C2F20040FFF065FCFCF038
:10372000D7FCC820C821C822FCF00AFD01200021D6
:10373000FCF75AFE02200021FCF756FE0320002170
:10374000FCF752FE40F2C8064720C2F20046B11C08
:10375000FFF09EFDF11C4820FFF09AFD708800BA32
:10376000000C30816420FCF037FE40F6D034C2F209
:1037700000442046FEF0ACF900212046FDF768FF2A
:1037800040F64C500021C2F20040FDF761FF40F6C8
:103790001C40C2F20040FEF09BF9BEEE009B4EF2D0
:1037A000F034CFF6FE744FF44A77B6EE00AB9FEDDF
:1037B0003E8B9FED3FBB37E000F07EF8317800296B
:1037C00066D011FB074071703570C117C6E9120150
:1037D000D6E91023801A9941FCF77AFD41EC100BD1
:1037E0000220012180EE080BBDEEC00B86ED080A19
:1037F000FCF7FAFD03200021FCF7F6FD0120002173
:10380000FCF7F2FDB0EE4B1B642096ED080A642233
:10381000B8EEC00B00EE091BBDEEC10B10EE101A86
:10382000FCF08EFCFCF094FC706A0128C4D006F118
:1038300040030FCB101A63EB0101FCF749FD41EC8B
:10384000100B0220002180EE080BBDEEC00B86EDB0
:10385000080AFCF7C9FD03200021FCF7C5FD012083
:103860000021FCF7C1FD7069D6E9061218B90029DC
:1038700008BF002A10D000EE101A96ED081AB8EE14
:10388000C11BB8EEC00B01EE0A0BBDEEC00BC5E7C5
:10389000D6E912019CE700BF306A00EBD0704010FF
:1038A00001460246BCE700BF00000000000069407E
:1038B000000000000000594010B582B040F2300412
:1038C000C2F20044A07DD0B1E06800218DF807105D
:1038D0000DF10702C07B0121FFF0F2FC78B9E0682E
:1038E0000DF1070201214079FFF0EAFC38B9E068E8
:1038F0000DF1070201210079FFF0E2FC20B14FF049
:10390000FF3002B010BD00BF94F83000C0B3E068D3
:103910000C218DF807100DF1070200790121FFF04D
:10392000CFFC0028EBD13220FCF056FDA07D6FF0DB
:103930001F02E168C00708BF6FF03F02087901214C
:103940008DF807200DF10702FFF0BAFC0028D6D150
:10395000617F0DF10702E068002918BF0121C07BDB
:1039600049008DF807100121FFF0AAFC0028C6D1FC
:10397000E0680DF1070200218DF8071036E000BF66
:10398000E06804218DF807100DF10702007901218C
:10399000FFF096FC0028B2D1A07D6022A17FC00775
:1039A000E06808BF402200294FF0010118BF402203
:1039B00000798DF807200DF10702FFF081FC002847
:1039C0009DD13220FCF008FD617F0DF10702E06817
:1039D000002918BF0121C07B8DF807100121FFF0DD
:1039E0006FFC00288BD1E06804F11C0240790121B2
:1039F000FFF066FC00287FF482AF002002B010BD0B
:103A000000EB80004FF4616145F2565201EB00106B
:103A100040F64C51C2F20041C5F25552A0FB0202E1
:103A200009684A637047000010B529499FED261BBD
:103A30002DED020B84B0059820F000408842D8BFDD
:103A40009DED040B2DDD2349884209D1049840B92E
:103A50004FF0010000F11EFB00F0C6F806B010BDEB
:103A600005DB9DED040B30EE000B06B010BD684683
:103A70009DED040B00F128F910F0030004BF9DED4B
:103A8000021B9DED000B0CD001280ED09DED021BFA
:103A90009DED000B022810D0012000F055F806B073
:103AA00010BD00F195FA06B010BD9DED021B9DED15
:103AB000000B012000F048F801E000F189FAB1EEB6
:103AC000400B06B010BD0000000000000000000028
:103AD000FB21E93F0000F07FB0EE401B491E00EBE8
:103AE000C10292ED000B31F006020DD0491E00EB31
:103AF000C10292ED002BB0EE403BB0EE420B03EE64
:103B0000010B31F00602F1D1022914D004290AD0A8
:103B1000062918BF704790ED0A2B00EE012B90ED9F
:103B2000080B02EE010B90ED062B00EE012B90ED41
:103B3000040B02EE010B90ED022B00EE012B90ED39
:103B4000000B02EE010B704731B504462DED040B5E
:103B50002DED068BB0EE419B07989DED060B20F0F6
:103B60000040B0F1795F0DDA51EC100B00F13AF83A
:103B7000042808BF00F044F89DED060BBDEC068B51
:103B800005B030BD20EE008B28EE00ABB0EE480B48
:103B9000114805217844FFF79FFF9FED111B8CB161
:103BA000B6EE002B29EE022B0AEE402B18EE029BFC
:103BB0000AEE419B9DED060B30EE490BBDEC068BEA
:103BC00005B030BD08EE001B9DED060B0AEE010BA3
:103BD000BDEC068B05B030BD900910000000000060
:103BE000495555555555C5BF9FED031B81EE010B3A
:103BF000704700000000000000000000000000000E
:103C00009FED030B20EE000B70470000000000004A
:103C1000000000000000001002E008C8121F08C1E8
:103C2000002AFAD170477047002001E001C1121F3D
:103C3000002AFBD170472DE9F041044600251E46BD
:103C40009046C80301D5302700E02027880404D51A
:103C500005E041463846B0476D1C641EF9D528463C
:103C6000BDE8F0810000000000004054FB21F93F56
:103C70003163621A61B4D03D0000601A61B4D03D76
:103C80007370032E8A19A33B0000002E8A19A33BF0
:103C9000C14920259A837B39000000000000000004
:103CA0006E83F9A22915444ED15727FCC0DD34F5A7
:103CB000999562DB4190433CAB6351FE61C5BBDE2D
:103CC0003A6E24B7E0D24D42EA2E49061C92D10941
:103CD0001CEB1DFE3EA729B1F53582E88444BB2EBE
:103CE00026709CE9417E5FB439D69139F43953830B
:103CF0008B5F849C3B28F9BDFF97F81F0F9805DE6A
:103D00008B112FEF1F6D0A5ACF7E366DB709CB2767
:103D1000663F464F2DEA5F9EC7BA27757BF1E5EBFC
:103D2000F739073DEA92528AB15FFB6B085D8D1F40
:103D300046300356000000000000000000000000B4
:103D400000000404040404040004000000140A0A2F
:103D50000000000000000000000014143F140A3F9F
:103D60000A0A000000041E1505060C14150F0400B5
:103D7000000012150D0A142C2A1200000000040A7B
:103D80000A1E15150936000000020201000000009D
:103D90000000000000201008080808080810200093
:103DA00000020408080808080804020000000004D3
:103DB000150E0E150400000000000404041F040486
:103DC00004000000000000000000000000020201EA
:103DD00000000000001F00000000000000000000C4
:103DE000000000000002000000100808080404029F
:103DF0000202010000000E1111111111110E00003C
:103E00000000040604040404040E000000000E1167
:103E100011080402011F000000000E11100C101008
:103E2000110E00000000080C0A0A091E0818000004
:103E300000001F01010F1010110E000000000E09FC
:103E4000010F1111110E000000001F0908040404E5
:103E50000404000000000E11110E1111110E0000DB
:103E600000000E1111111E10120E000000000000C3
:103E70000400000000040000000000000004000036
:103E800000040400002010080402040810200000B0
:103E9000000000001F00001F0000000000020408D6
:103EA000102010080402000000000E111108040484
:103EB0000004000000000E111915151D011E000060
:103EC000000004040C0A0A1E1233000000000F1246
:103ED000120E1212120F000000001E11010101014A
:103EE000110E000000000F1212121212120F000029
:103EF00000001F120A0E0A02121F000000001F120B
:103F00000A0E0A020207000000001C12010139110A
:103F1000120C000000003312121E121212330000A5
:103F200000001F0404040404041F000000003E08F5
:103F30000808080808090700000037120A060A0ADC
:103F4000123700000000070202020202223F0000B6
:103F500000001B1B1B1B15151515000000003B1254
:103F600016161A1A1217000000000E111111111165
:103F7000110E000000000F12120E020202070000D4
:103F800000000E1111111117190E180000000F1268
:103F9000120E0A121237000000001E11010608104E
:103FA000110F000000001F1504040404040E00009B
:103FB0000000331212121212120C00000000331211
:103FC000120A0A0C0404000000001515150E0A0A56
:103FD0000A0A000000001B0A0A04040A0A1B000067
:103FE00000001B0A0A040404040E000000001F095C
:103FF00008040402121F0000001C0404040404044A
:1040000004041C0000020202040408080810000056
:10401000000E08080808080808080E0000040A0036
:104020000000000000000000000000000000000090
:104030000000003F0004000000000000000000003D
:1040400000000000000C121C123C000000000302E3
:10405000020E1212120E000000000000001C1202DC
:10406000021C000000001810101C1212123C00006C
:1040700000000000000C121E021C000000003804AA
:10408000041E0404041E000000000000003C120C8A
:10409000021E221C00000302020E12121237000040
:1040A0000000040000060404040E000000000800E4
:1040B000000C08080808080700000302023A0A0E6C
:1040C000123700000000070404040404041F000069
:1040D00000000000000F151515150000000000007D
:1040E000000F12121237000000000000000C121224
:1040F000120C000000000000000F1212120E020746
:1041000000000000001C1212121C103800000000F9
:10411000001B06020207000000000000001E020C47
:10412000101E000000000004040E04040418000027
:1041300000000000001B1212123C000000000000F2
:104140000037120A0C040000000000000015150ED4
:104150000A0A000000000000001B0A040A1B0000FD
:10416000000000000037120A0C04040300000000E5
:10417000001E0804041E00000018080808040808AF
:1041800008081800080808080808080808080808A7
:1041900000060404040804040404060002251800B0
:1041A000000000000000000000000000000000000F
:1041B00000000000000000000000000808080808D7
:1041C000080800001818000000486C2412000000C5
:1041D00000000000000000000000002424247F12E2
:1041E00012127F12121200000000081C2A2A0A0C68
:1041F0001828282A2A1C0808000000222515151551
:104200002A585454542200000000000C1212120AC2
:1042100076252911916E00000006060403000000B7
:1042200000000000000000000040201010080808F6
:1042300008080810102040000002040808101010A0
:1042400010101008080402000000000008086B1C91
:104250001C6B0808000000000000000008080808A7
:104260007F080808080000000000000000000000AF
:10427000000000000606040300000000000000002B
:10428000FE00000000000000000000000000000030
:1042900000000000060600000000804040202010C2
:1042A00010080804040202000000001824424242E0
:1042B0004242424224180000000000080E0808088C
:1042C00008080808083E00000000003C4242422066
:1042D00020100804427E00000000003C42422018EA
:1042E00020404042221C00000000002030282424EE
:1042F00022227E20207800000000007E0202021AA6
:1043000026404042221C0000000000382402021A0D
:1043100026424242241800000000007E2222101093
:1043200008080808080800000000003C4242422437
:1043300018244242423C000000000018244242423D
:1043400064584040241C00000000000000001818C1
:104350000000000018180000000000000000000825
:1043600000000000000808040000004020100804BD
:1043700002040810204000000000000000007F0040
:1043800000007F0000000000000000020408102070
:1043900040201008040200000000003C4242464059
:1043A00020101000181800000000001C225A55555B
:1043B00055552D42221C0000000000080818141456
:1043C000243C224242E700000000001F2222221E5D
:1043D00022424242221F00000000007C42420101B2
:1043E00001010142221C00000000001F2242424243
:1043F00042424242221F00000000003F4212121EB1
:1044000012120242423F00000000003F4212121E00
:1044100012120202020700000000003C22220101E9
:1044200001712122221C0000000000E742424242AA
:104430007E42424242E700000000003E08080808B1
:1044400008080808083E00000000007C101010104A
:10445000101010101010110F0000007722120A0E19
:104460000A12122222770000000000070202020254
:1044700002020202427F0000000000773636363624
:104480002A2A2A2A2A6B0000000000E346464A4AEC
:1044900052525262624700000000001C224141411A
:1044A00041414141221C00000000003F4242424283
:1044B0003E020202020700000000001C22414141AE
:1044C00041414D53321C60000000003F4242423ED9
:1044D0001212222242C700000000007C4242020465
:1044E00018204042423E00000000007F49080808B2
:1044F00008080808081C0000000000E74242424289
:1045000042424242423C0000000000E74242222474
:1045100024141418080800000000006B4949494998
:104520005555362222220000000000E742242418BC
:104530001818242442E700000000007722221414F7
:1045400008080808081C00000000007E2120101048
:1045500008040442423F00000078080808080808E0
:104560000808080808087800000002020404080887
:104570000810102020204040001E101010101010B5
:104580001010101010101E00003844000000000031
:10459000000000000000000000000000000000001B
:1045A00000000000000000FF0006080000000000FE
:1045B0000000000000000000000000000000003CBF
:1045C0004278444242FC0000000000030202021A4A
:1045D00026424242261A0000000000000000003877
:1045E000440202024438000000000060404040786D
:1045F0004442424264D80000000000000000003C39
:10460000427E0202423C0000000000F08808087E62
:1046100008080808083E0000000000000000007CB8
:1046200022221C023C42423C000000030202023AE9
:104630004642424242E700000000000C0C00000E1F
:1046400008080808083E000000000030300000386C
:10465000202020202020221E0000000302020272DF
:10466000120A1612227700000000000E080808083F
:1046700008080808083E0000000000000000007F55
:104680009292929292B70000000000000000003B5E
:104690004642424242E70000000000000000003CA9
:1046A00042424242423C0000000000000000001B69
:1046B00026424242221E020700000000000000784D
:1046C00044424242447840E000000000000000778D
:1046D0004C040404041F0000000000000000007CE3
:1046E00042023C40423E0000000000000008083E3C
:1046F00008080808083000000000000000000063FF
:104700004242424262DC000000000000000000E77C
:10471000422424140808000000000000000000EB00
:104720004949555522220000000000000000007693
:1047300024181818246E000000000000000000E794
:104740004224241418080807000000000000007E1E
:1047500022100808447E000000C0202020202010E5
:10476000202020202020C000101010101010101049
:10477000101010101010101000060808080808107B
:1047800008080808080806000C32C20000000000F3
:104790000000000000000000000000000000000019
:1047A0000000000000000000000000000000000009
:1047B00000000000000000000000000000000000F9
:1047C00000000000000000000000000000000000E9
:1047D00060006000600060006000600060004000F9
:1047E00020002000200000000000000060006000A9
:1047F000600000000000000000000000600660068D
:104800003003980188004400000000000000000010
:104810000000000000000000000000000000000098
:104820000000000000000000000000000000000088
:104830001002100210021002FE07FE070802080113
:10484000080108010801FE07FE0704010401040134
:104850000401000000000000000000000000400013
:104860004000F00158034C03CC034C00580070008A
:10487000E000C001C00140034C035C034C0348014D
:10488000F0004000400000000000000000000000B8
:104890000E010A01910091009100510051003A006F
:1048A000AE03A002500450044804480448048402A3
:1048B0008403000000000000000000000000000071
:1048C00038006C006C006C006C006C002C009807C9
:1048D0001C011A01330133016301E300C308C60957
:1048E0003C07000000000000000000000C001C005D
:1048F000100010000800040000000000000000008C
:1049000000000000000000000000000000000000A7
:104910000000000000000000000000000004000291
:1049200000018000800040004000200020002000A6
:104930002000200020002000400040008000800077
:10494000000100020004000000000000020004005A
:10495000080010001000200020004000400040002F
:1049600040004000400040002000200010001000E7
:104970000800040002000000000000000000000029
:10498000000000004000C0004000460C4E0FD00167
:10499000F0015E0F460C40004000400000000000A7
:1049A0000000000000000000000000000000000007
:1049B00000000000000040004000400040004000B7
:1049C000FE0F40004000400040004000000000009A
:1049D00000000000000000000000000000000000D7
:1049E00000000000000000000000000000000000C7
:1049F0000000000000000000000000000C001C008F
:104A0000100010000800040000000000000000007A
:104A10000000000000000000000000000000000096
:104A2000FE07000000000000000000000000000081
:104A30000000000000000000000000000000000076
:104A40000000000000000000000000000000000066
:104A50000000000000000000000000001C001C001E
:104A60001C00000000000000000000000004000620
:104A700000020003000100018000800040004000AF
:104A800060002000200010001000080008000C004A
:104A9000040006000200000000000000000000000A
:104AA0000000F00098010C030C030606060606063B
:104AB000060606060606060606060C030C03980103
:104AC000F0000000000000000000000000000000F6
:104AD000000040007C00600060006000600060003A
:104AE00060006000600060006000600060006000C6
:104AF000FC030000000000000000000000000000B7
:104B00000000F8008401020306030603000300010D
:104B10008001C000600020001000080204020602AC
:104B2000FE03000000000000000000000000000084
:104B300000007800C6008601860180018001C00067
:104B400070008001000100030003060306038601D4
:104B5000F80000000000000000000000000000005D
:104B6000000080018001C001A001A0019001880126
:104B7000880184018201FE0F800180018001800193
:104B8000E00700000000000000000000000000003E
:104B90000000FC0304000400040004000400F4000E
:104BA0008C01040300030003060306038201840151
:104BB000F8000000000000000000000000000000FD
:104BC0000000E00118030C030C0004000600E601DD
:104BD00016030E0606060606060604060C02180351
:104BE000F0000000000000000000000000000000D5
:104BF0000000F8070C060402040100010001800017
:104C000080004000400040006000600060006000E4
:104C10006000000000000000000000000000000034
:104C20000000F8010C030606060606060C021C032B
:104C3000F000C8010C0306060606060606060C036D
:104C4000F001000000000000000000000000000073
:104C50000000F0000C010C0306020606060606061C
:104C600006078C0678060006000300030C018C0181
:104C700078000000000000000000000000000000BC
:104C8000000000000000000000000000E000E00064
:104C9000E00000000000000000000000E000E00074
:104CA000E000000000000000000000000000000024
:104CB0000000000000000000000000006000600034
:104CC0000000000000000000000000000000600084
:104CD00060004000200020000000000000000000F4
:104CE00000040002000180004000200010000800C5
:104CF00004000800100020004000800000010002B5
:104D0000000400000000000000000000000000009F
:104D1000000000000000000000000000FE0700008E
:104D200000000000FE07000000000000000000007E
:104D30000000000000000000000000000000000073
:104D40000400080010002000400080000001000264
:104D50000004000200018000400020001000080054
:104D6000040000000000000000000000000000003F
:104D70000000E0031806040C040C0C0C0C0C0007DB
:104D8000800140004000400000000000E000E00022
:104D9000E000000000000000000000000000000033
:104DA000E00018030C02CC0564056605A605B604F0
:104DB000B604B604B604B602E4010C040C021803EF
:104DC000F0000000000000000000000000000000F3
:104DD0000000600060005000D0009000900088004B
:104DE00088010801F8010403040304020202020618
:104DF0000F0F000000000000000000000000000095
:104E00000000FE008C030C030C030C030C038C014C
:104E1000FC000C030C020C060C060C060C060C0322
:104E2000FE01000000000000000000000000000083
:104E30000000E00318030C060C040404060006003E
:104E4000060006000600060006040C040C02180307
:104E5000F000000000000000000000000000000062
:104E600000007F008C010C030C030C060C060C06E2
:104E70000C060C060C060C060C060C030C038C012D
:104E80007F000000000000000000000000000000A3
:104E90000000FF03060306040604060086008600E1
:104EA000FE00860086008600060006040604060250
:104EB000FF030000000000000000000000000000F0
:104EC0000000FF03060306040604060086008600B1
:104ED000FE0086008600860006000600060006002A
:104EE0001F000000000000000000000000000000A3
:104EF0000000F00018010C020C020402060006007B
:104F000006000600C60F060306030C030C03180375
:104F1000F0000000000000000000000000000000A1
:104F200000000F0F0606060606060606060606061B
:104F3000FE07060606060606060606060606060618
:104F40000F0F000000000000000000000000000043
:104F50000000FC0360006000600060006000600012
:104F60006000600060006000600060006000600041
:104F7000FC03000000000000000000000000000032
:104F80000000F807C000C000C000C000C000C000A2
:104F9000C000C000C000C000C000C000C000C00011
:104FA000C000C60066003C000000000000000000D9
:104FB0000000CF038601C60046002600160036001A
:104FC0002E006E004600C60086008601060106031C
:104FD0008F0700000000000000000000000000003B
:104FE00000001F000600060006000600060006007E
:104FF0000600060006000600060006040604060277
:10500000FF0300000000000000000000000000009E
:1050100000000707860386038E038E034E034E03AC
:105020004A035A035A033A03320332033203120388
:1050300087070000000000000000000000000000E2
:1050400000008E0F0C021C021C02340234026402A7
:1050500064024402C402840284038403040304033C
:105060001F0200000000000000000000000000001F
:105070000000F00098010C030C0206060606060666
:10508000060606060606060606060C020C0398012E
:10509000F000000000000000000000000000000020
:1050A0000000FF00060306060606060606060606BC
:1050B0008603FE0006000600060006000600060045
:1050C0001F000000000000000000000000000000C1
:1050D0000000F00098010C030C0206060606060606
:1050E000060606060606060676064C02CC0398015E
:1050F000F000800700030000000000000000000036
:105100000000FF010603060606060606060606035D
:10511000FE004600C600860086010603060306065A
:105120000F0E000000000000000000000000000062
:105130000000F8020C030602060206000E003C0006
:10514000F800E003800300070206020606060C03CF
:10515000F00100000000000000000000000000005E
:105160000000FE07620461086108600060006000E2
:10517000600060006000600060006000600060002F
:10518000F801000000000000000000000000000026
:1051900000001E070C020C020C020C020C020C0296
:1051A0000C020C020C020C020C020C020C02180184
:1051B000F0000000000000000000000000000000FF
:1051C00000000F070602040104010C010C01880015
:1051D00088009800980050005000700030002000B7
:1051E000200000000000000000000000000000009F
:1051F0000000F70E6204420446044604640264029E
:10520000E402E4029C029C01980198018801880054
:105210008800000000000000000000000000000006
:1052200000009E070C01080118019000B00060000A
:10523000200060006000D000900088010801040395
:105240008E070000000000000000000000000000C9
:1052500000000F0F060404020C0208011801B80038
:10526000B0007000600060006000600060006000DE
:10527000F801000000000000000000000000000035
:105280000000FC070C0206030201800180004000C0
:105290004000200020001000180008040C04040244
:1052A000FE0300000000000000000000E0032000FA
:1052B00020002000200020002000200020002000EE
:1052C00020002000200020002000200020002000DE
:1052D00020002000E00300000000000000000000AB
:1052E0000400040008000800100010001000200056
:1052F000200040004000C00080008000000100014C
:105300000002000200020004000000007C004000D7
:10531000400040004000400040004000400040008D
:10532000400040004000400040004000400040007D
:10533000400040007C000000000060009000080178
:10534000000000000000000000000000000000005D
:10535000000000000000000000000000000000004D
:10536000000000000000000000000000000000003D
:10537000000000000000000000000000000000002D
:10538000000000000000000000000000000000001D
:10539000000000000000FF0F000000001800600087
:1053A00000000000000000000000000000000000FD
:1053B00000000000000000000000000000000000ED
:1053C00000000000000000000000000000000000DD
:1053D000000000000000000000000000F0010C03CD
:1053E0000C030003E0031C030E03060306038E0BED
:1053F0007C0E000000000000000000000000000023
:1054000008000E000C000C000C000C00CC013C034A
:105410001C060C060C060C060C060C060C021C03E3
:10542000E401000000000000000000000000000097
:10543000000000000000000000000000F0008C01EF
:105440008C01860106000600060006020C020C0113
:10545000F00000000000000000000000000000005C
:105460000002C003000300030003000378038C0361
:105470000C030603060306030603060304038C0756
:1054800078010000000000000000000000000000A3
:10549000000000000000000000000000E001180310
:1054A00008020C060C06FC070C000C00180418027D
:1054B000E00100000000000000000000000000000B
:1054C0000000C0036006300630003000FE013000EE
:1054D000300030003000300030003000300030004C
:1054E000FC010000000000000000000000000000BF
:1054F000000000000000000000000000F007D806D7
:105500008C018C018C019801F8000C00FC00CC038C
:10551000060306038E03F8000000000000000000F0
:1055200008000E000C000C000C000C00EC011C0329
:105530000C030C030C030C030C030C030C030C03F3
:105540009E070000000000000000000000000000B6
:105550000000600060000000000040007C0060006F
:10556000600060006000600060006000600060003B
:10557000FC0300000000000000000000000000002C
:105580000000C001C001000000000001F001800126
:105590008001800180018001800180018001800103
:1055A00080018001CC007C000000000000000000B1
:1055B00008000E000C000C000C000C008C038C008A
:1055C0008C004C006C005C008C008C010C010C0306
:1055D0009E07000000000000000000000000000026
:1055E00040007C00600060006000600060006000BF
:1055F00060006000600060006000600060006000AB
:10560000FC0300000000000000000000000000009B
:105610000000000000000000000000003707EE0658
:10562000660666066606660666066606660666061A
:10563000FF0F00000000000000000000000000005C
:10564000000000000000000000000000EE011C034C
:105650000C030C030C030C030C030C030C030C03D2
:105660009E07000000000000000000000000000095
:10567000000000000000000000000000F0009801A1
:105680000C03060606060606060606060C030C03B1
:10569000F00000000000000000000000000000001A
:1056A000000000000000000000000000EE011C03EC
:1056B0000C060C060C060C060C060C060C031C0350
:1056C000EC010C000C003E00000000000000000097
:1056D00000000000000000000000000078028C03C1
:1056E0000C030603060306030603060304038C03E8
:1056F000780300030003C007000000000000000062
:105700000000000000000000000000009F03580699
:1057100038061800180018001800180018001800A3
:10572000FF0000000000000000000000000000007A
:10573000000000000000000000000000F0031C0357
:105740000C020C023800F000C003040304038C03B5
:10575000FC0100000000000000000000000000004C
:10576000000000002000200030003000FE0130006A
:1057700030003000300030003000300030023002A5
:10578000E001000000000000000000000000000038
:105790000000000000000000000008028E030C035F
:1057A0000C030C030C030C030C030C030C039C07ED
:1057B0007801000000000000000000000000000070
:1057C0000000000000000000000000001E070C02A6
:1057D0000801080118019000B000B00060006000EE
:1057E0002000000000000000000000000000000099
:1057F000000000000000000000000000F70E62043E
:10580000460464026402EC029C019801980198012C
:105810000800000000000000000000000000000080
:10582000000000000000000000000000BC0718019C
:105830001001B00060006000E00090000801080363
:105840009E070000000000000000000000000000B3
:105850000000000000000000000000009E0708019A
:105860000801080190009000B00060006000600036
:105870002000200024001C000000000000000000A8
:10588000000000000000000000000000FC01840196
:10589000C4004400600020003000180208020C031D
:1058A000FC01000000000000000000000003800078
:1058B0008000800080008000800080008000400028
:1058C0002000400080008000800080008000800078
:1058D00080008000000300004000400040004000C5
:1058E00040004000400040004000400040004000B8
:1058F00040004000400040004000400040004000A8
:105900004000400040004000000000000C0010007B
:1059100010001000100010001000100010002000F7
:1059200040002000100010001000100010001000B7
:10593000100010000C00000000001C002204C20433
:1059400080030000000000000000000000000000D4
:105950000000000000000000000000000000000047
:105960000000000000000000000000000000000037
:105970000000000000007FF8FF0018000018000081
:10598000180000F8FF3F9801309803181803081812
:10599000060C180C060818030CF0000CF001061C8D
:1059A0000786033C7300E0000000000000000000D8
:1059B000B7B400000000000000000000000000007C
:1059C00000000000000000000000000000000000D7
:1059D00000000000000000000000000000000000C7
:1059E00000000000000000000000000000000000B7
:1059F00000000000000000000000000000000000A7
:105A000000000000001000007000FCFFFF0C07C049
:105A10008C03C0C0FF1FF0030E1C8E03007800C073
:105A2000C7073F00F8E0FF1F600018600018600023
:105A300018E0FF1F600018000000000000000000D8
:105A4000BFCD0000000000000000000000000000CA
:105A50000000000000000000000000000000000046
:105A60000000000000000000000000000000000036
:105A70000000000000000000000000000000000026
:105A80000000000000000000000000000000000016
:105A9000000000000000188007187E3018606018B1
:105AA00060801960001BFE0718601818F0711870EC
:105AB000C3186806186C00FF66FE186200186000C4
:105AC00018600018600018000000000000000000CE
:105AD000BFC6000000000000000000000000000041
