:020000040800F2
:10000000F006002045010008710E0008070C0008EA
:100010006D0E00084D040008A11400080000000047
:10002000000000000000000000000000291300088C
:10003000E509000800000000051300083D14000851
:100040005F0100085F0100085F0100085F01000810
:100050005F0100085F0100085F0100085F01000800
:100060005F0100085F0100085F0100085F010008F0
:100070005F0100085F0100085F0100085F010008E0
:100080005F0100085F0100085F0100085F010008D0
:100090005F0100085F0100085F0100085F010008C0
:1000A0005F0100085F0100085F0100085F010008B0
:1000B0005F0100085F0100085F0100085F010008A0
:1000C0005F0100085F0100085F0100085F01000890
:1000D0005F0100085F0100085F0100085F01000880
:1000E0005F0100085F0100085F0100085F01000870
:1000F0005F0100085F0100085F0100085F01000860
:100100005F0100085F0100085F0100085F0100084F
:100110005F0100085F0100085F0100085F0100083F
:100120005F0100085F0100085F0100085F0100082F
:10013000DFF80CD000F028F900480047DD17000870
:10014000F00600200648804706480047FEE7FEE725
:10015000FEE7FEE7FEE7FEE7FEE7FEE7FEE7FEE777
:100160004114000831010008CAB2401E10F8011FF6
:100170008A4202D00029F9D1002070472DE9FE4FB4
:1001800081EA030404F0004421F0004100944FF0A0
:10019000000B23F0004350EA01045ED052EA03044E
:1001A0005BD0C3F30A54C1F30A552C44A4F2F334D0
:1001B0000194A0FB0254C1F3130141F48011C3F375
:1001C000130343F4801301FB024400FB034E840A33
:1001D000970A44EA815447EA8357A4FB07680295CB
:1001E0008D0A05FB07854FEA932C04FB0C54270569
:1001F000029D4FEA065847EA1637B5EB08056EEB45
:10020000070C870E920E47EA811742EA8312A7FB7A
:100210000201B6EB0B0164EB00042B0D43EA0C3337
:100220005E1844EB1C50DA465146E7FB0201C5F369
:1002300013044FEA0B3343EA14534FEA0432019C90
:1002400043EA0603A4F10C040294009CCDE900B437
:1002500000F04BF803B0BDE8F08F00200146F9E74D
:100260000EB540F2334102910021CDE900110A465A
:100270000B4600F03AF803B000BDC1F30A5210B5C6
:10028000C1F3130140F2FF3341F480119A4201DAC5
:10029000002010BD40F233439A42A2F2334203DC05
:1002A000524200F003F810BD904010BD202A04DB3C
:1002B000203A21FA02F00021704721FA02F3D040DF
:1002C000C2F12002914008431946704710B5141E30
:1002D00073F1000408DA401C41F1000192185B41FF
:1002E0001A4301D120F0010010BD2DE9F04D9246D6
:1002F0009B4611B1B1FA81F202E0B0FA80F22032ED
:10030000904600F053F804460F4640EA0A0041EADE
:100310000B0153465A46084313D0114653EA0100D5
:1003200019D0C8F140025046FFF7C0FF05460E46FF
:1003300050465946424600F039F8084305D001209E
:1003400004E020463946BDE8F08D0020054346EA2A
:10035000E0762C4337430A986305E40AA0EB0800D3
:100360000022FD0A44EA47540A3002D50020014623
:10037000E9E7010510196941DDE9084500196941FE
:10038000BDE8F04DA2E70000064C074D06E0E0682E
:1003900040F0010394E8070098471034AC42F6D3CC
:1003A000FFF7CAFE881D0008A81D0008202A04DBEC
:1003B000203A00FA02F1002070479140C2F1200378
:1003C00020FA03F319439040704770B58C1810F869
:1003D000015B15F0070301D110F8013B2A1106D18A
:1003E00010F8012B03E010F8016B01F8016B5B1EA4
:1003F000F9D12B0705D40023521E0DD401F8013B7F
:10040000FAE710F8013BCB1A921C03E013F8015BEA
:1004100001F8015B521EF9D5A142D8D3002070BD6E
:1004200008B50121082000F06FFF8020ADF8000022
:1004300010208DF8030003208DF802006946024861
:1004400000F000FB08BD0000000C014000BFFEE70B
:100450001CB50121042000F057FF4FF4C060ADF837
:10046000040003208DF8060010208DF8070001A974
:100470000A4800F0E7FA0121082000F045FF4FF498
:100480000050ADF8000003208DF8020010208DF818
:1004900003006946024800F0D5FA1CBD000801407F
:1004A000000C014038B50446012C0DD14002ADF8D6
:1004B000000003208DF8020010208DF8030069462B
:1004C000094800F0BFFA0EE06CB94FF40070ADF8C7
:1004D000000003208DF8020048208DF803006946D3
:1004E000014800F0AFFA38BD000801402DE9F0479F
:1004F000064637464FF480603149086000251BE00E
:1005000007F0010020B14FF400702D49086004E0AD
:100510004FF400702A49091D08607F104FF4005005
:1005200028490860022000F031F94FF400502549B5
:10053000091D0860681CC5B2082DE1DB0020FFF72B
:10054000B1FF00251AE064104FF400711C48103808
:1005500000F04CFB10B144F0800401E004F07F0493
:100560004FF4005017490860022000F00FF94FF4D3
:1005700000501449091D0860681CC5B2082DE2DB53
:100580004FF480600E49091D08600120FFF78AFFC3
:100590002046E11704EB1171C1F30718E11704EBD2
:1005A00011710911A4EB011101F0FF0908EB88009A
:1005B00009EB400000F0FF0A5046BDE8F08700005C
:1005C00010080140100C014010B58D20FFF78EFF80
:1005D0000D4908708920FFF789FF0B494870872073
:1005E000FFF784FF084988708520FFF77FFF0649E1
:1005F000C8708320FFF77AFF034908718120FFF755
:1006000075FF0149487110BD0000002030B5044657
:1006100000218E2000F066F860790A2190FBF1F24B
:1006200001FB12010A2290FBF2F001EB0010C5B2AF
:100630002946802000F056F820790A2190FBF1F23B
:1006400001FB12010A2290FBF2F001EB0010C5B28F
:100650002946822000F046F8E0780A2190FBF1F26A
:1006600001FB12010A2290FBF2F001EB0010C5B26F
:100670002946842000F036F8A0780A2190FBF1F298
:1006800001FB12010A2290FBF2F001EB0010C5B24F
:100690002946862000F026F860780A2190FBF1F2C6
:1006A00001FB12010A2290FBF2F001EB0010C5B22F
:1006B0002946882000F016F820780A2190FBF1F2F4
:1006C00001FB12010A2290FBF2F001EB0010C5B20F
:1006D00029468C2000F006F880218E2000F002F8D8
:1006E00030BD0000F0B504460D4626462F464FF4B7
:1006F00080602449086000231BE006F0010020B15F
:100700004FF400701F49086004E04FF400701D4969
:10071000091D086076104FF400501B490860022044
:1007200000F034F84FF400501749091D0860581CB8
:10073000C3B2082BE1DB00231BE007F0010020B16E
:100740004FF400700F49086004E04FF400700D4949
:10075000091D08607F104FF400500B49086002200B
:1007600000F014F84FF400500749091D0860581CA8
:10077000C3B2082BE1DB4FF480600249091D086019
:10078000F0BD000010080140100C014007E06E2190
:1007900001E04A1ED1B20029FBDC421ED0B2002883
:1007A000F5DC704710B50446FFF752FE0220FFF754
:1007B000EDFF4FF4806006490860C00005490860FD
:1007C00000218E20FFF78EFF2046FFF71FFF10BD90
:1007D00014080140140C014008B50121082000F064
:1007E00093FD10208DF803000120ADF800000320D8
:1007F0008DF802006946024800F024F908BD0000A7
:10080000000C014008B548208DF803000120ADF828
:1008100000006946014800F015F908BD000C0140D0
:1008200008B510208DF803000120ADF8000003206A
:100830008DF802006946024800F004F908BD000086
:10084000000C014070B5002400251EE06410FFF785
:10085000E7FF01210F4800F0D2F9022000F0CFF8A5
:1008600001210C4800F0CDF9022000F0C8F8FFF794
:10087000C9FF0121074800F0B9F908B144F080042C
:100880003C2000F0BCF8681CC5B2082DDEDB204619
:1008900070BD0000000C01402DE9FC5F00200090BD
:1008A0002249087000F048F8CC2000F073F844208A
:1008B00000F070F840F2EE2000F095F800F03CF8FF
:1008C000CC2000F067F8BE2000F064F8FFF7BAFF14
:1008D0000190FFF7B7FF8346DA464FF6FF7000EA54
:1008E0000A2A01984AEA000A0AF47840B0F5784FDB
:1008F00007D16FEA0A00401C1FFA80FA01200B4959
:1009000008705046FFF7ACFC06460022084BFFF784
:1009100035FC04460022074BFFF730FC8046FFF70A
:10092000ACFC80B200900098BDE8FC9FE80200207B
:100930000000B03F0000244010B5FFF771FF012117
:10094000134800F05EF9052000F059F80121104825
:1009500000F055F94FF4F07000F051F801210C4807
:1009600000F04FF93C2000F04AF8FFF74BFF01215F
:10097000074800F03BF904464FF4F07000F03FF8F0
:10098000FFF74EFF0121024800F03BF9204610BD61
:10099000000C014070B5044600251EE0FFF740FF43
:1009A00001210F4800F02BF9022000F028F804F094
:1009B000010020B101210A4800F023F903E00121E0
:1009C000074800F01CF93C2000F019F80121044808
:1009D00000F017F96410681CC5B2082DDEDB70BD8D
:1009E000000C0140704700B5034603E04FF47A70F5
:1009F00000F005F8181EA3F10103F7D100BD00EBCC
:100A0000C001C9004FF0E022516100219161052130
:100A1000116100BF4FF0E021096901F48031002924
:100A2000F8D004214FF0E02211617047044900E042
:100A3000521C11F8013B002BFAD1500870470000FE
:100A4000D00200202DE9F0410246002500260020BA
:100A500000230024002791F803C00CF00F0591F843
:100A600003C00CF0100CBCF1000F03D091F802C0D1
:100A70004CEA050591F800C0BCF1000F31D01468B4
:100A800000202BE04FF0010C0CFA00F3B1F800C08D
:100A90000CEA03069E4220D183004FF00F0C0CFAA3
:100AA00003F7BC4305FA03FC4CEA040491F803C0C5
:100AB000BCF1280F06D14FF0010C0CFA00FCC2F873
:100AC00014C00AE091F803C0BCF1480F05D14FF003
:100AD000010C0CFA00FCC2F810C0401C0828D1D34D
:100AE0001460B1F800C0BCF1FF0F34DD5468002081
:100AF0002EE000F1080C4FF0010808FA0CF3B1F8F1
:100B000000C00CEA03069E4221D183004FF00F0C77
:100B10000CFA03F7BC4305FA03FC4CEA040491F811
:100B200003C0BCF1280F05D100F1080C08FA0CF83D
:100B3000C2F8148091F803C0BCF1480F07D100F14E
:100B4000080C4FF0010808FA0CF8C2F81080401C9D
:100B50000828CED35460BDE8F0810000F0B50A4605
:100B6000002300240021002500F00046B6F1004FCC
:100B700002D11D4EF16901E01B4E7168C0F30345BF
:100B800083B200F44016B6F5401F08D121F0706121
:100B9000154E766826F07066134F7E6012E000F402
:100BA0008016B6F5801F06D1032606FA05F4A14388
:100BB00041F0706106E0460D360103FA06F6B143D6
:100BC00041F0706122B1460D360103FA06F6314359
:100BD00000F00046B6F1004F02D1034EF16101E092
:100BE000014E7160F0BD000000000140024600208F
:100BF00093680B400BB1012000E000207047416179
:100C000070470161704700BFFEE7002001E0411C12
:100C1000C8B20A28FBDB704708B50121082000F0A4
:100C200073FB4FF48070ADF8000003208DF80200D4
:100C300014208DF8030069460648FFF703FF4FF4C0
:100C40000070ADF8000069460248FFF7FBFE00F0B7
:100C50001DF808BD000C014010B5012009490860CD
:100C60000949C1F8A001FFF7D0FF0020054908603D
:100C7000FFF7CBFF00200449C1F8A001FFF7C5FF33
:100C800010BD0000A48121420080214210B5002047
:100C90000549086001200549C1F8A001FFF7B5FF2B
:100CA00001200149086010BDA48121420080214239
:100CB00010B501200D490860FFF7A7FF01200C497E
:100CC000C1F8A001FFF7A1FF4FF400710948FFF739
:100CD0008DFF08B1012400E0002400200349091F12
:100CE0000860FFF792FF204610BD0000A48121425A
:100CF00000802142000C01401CB50121082000F0B9
:100D000003FB01211048FFF729FF7020ADF8040014
:100D100048208DF8070001A90C48FFF793FE012138
:100D2000102000F0F1FA01210748FFF717FF4FF4F8
:100D3000C040ADF8000048208DF803006946044823
:100D4000FFF780FE1CBD000000023000000C0140D7
:100D50000010014010B52448006848B900BF22487F
:100D600000680028FBD0052000F026FC012010BD03
:100D70001D48001D006850B900BF1B48001D0068D9
:100D80000028FAD0052000F017FC0220EFE71648F3
:100D90000830006850B900BF1348083000680028C8
:100DA000FAD0052000F008FC0320E0E70F480068B7
:100DB00048B900BF0D4800680028FBD0052000F0AE
:100DC000FBFB0420D3E70948001D006850B900BFB1
:100DD0000648001D00680028FAD0052000F0ECFB52
:100DE0000520C4E70020C2E71081214234012242DD
:100DF00010B54FF400610248FFF7F8FE10BD000087
:100E00000008014010B54FF480510248FFF7EEFE94
:100E100010BD00000008014008B50121042000F0C9
:100E200073FA0121082000F06FFA48208DF80300C2
:100E30000820ADF8000003208DF80200694609483B
:100E4000FFF700FE48208DF803004FF4C050ADF8C6
:100E5000000003208DF8020069460348FFF7F2FD09
:100E600008BD0000000C01400008014000BFFEE783
:100E7000704710B5002000F04FF810BD70B5064661
:100E80000D4600242946304600F0C0F800BF04E0BB
:100E9000002000F049FB601CC4B2102CF8DB681C79
:100EA000C1B2304600F0B2F8002404E0002000F0A7
:100EB0003BFB601CC4B2102CF8DB70BD70B506465D
:100EC0000D4600242946304600F0A0F800BF04E09B
:100ED000002000F029FB601CC4B2182CF8DB681C51
:100EE000C1B2304600F092F8002404E0002000F087
:100EF0001BFB601CC4B2182CF8DBA81CC1B2304626
:100F000000F084F8002404E0002000F00DFB601CD9
:100F1000C4B2182CF8DB70BD70B50646002415E08D
:100F200004F1B001C8B200F0E9FA002000F0E6FADE
:100F3000102000F0E3FA002504E0304600F0F4FA57
:100F4000681CC5B2822DF8DB601CC4B2082CE7DB3C
:100F500070BD000010B5FFF769FD2B490860FFF771
:100F60005BFEAE2000F0CAFA002000F0C7FA1020A5
:100F700000F0C4FA402000F0C1FAB02000F0BEFA40
:100F8000812000F0BBFAFF2000F0B8FAA12000F0A9
:100F9000B5FAA62000F0B2FAA82000F0AFFA3F2080
:100FA00000F0ACFAC82000F0A9FAD32000F0A6FAAD
:100FB000002000F0A3FAD52000F0A0FA802000F075
:100FC0009DFAD82000F09AFA052000F097FAD9206F
:100FD00000F094FAF12000F091FADA2000F08EFA95
:100FE000122000F08BFADB2000F088FA302000F0AD
:100FF00085FA8D2000F082FA142000F07FFAAF20ED
:1010000000F07CFA10BD0000E402002070B5044638
:101010000D4605F1B001C8B200F070FAA11CC1F391
:10102000031141F0100000F069FAA11C01F00F015A
:1010300041F0010000F062FA70BD00002DE9F047B8
:10104000074688461646002580E03078A02843DD14
:1010500000253AE0702F04DD002708F1020000F0BF
:10106000FF0830783C4911F8151088422CD170786F
:10107000012101EB4501384A515C884224D14146A7
:101080003846FFF7C3FF002406E004EB4511334A5E
:10109000505C00F049FA641C102CF6D308F10100F2
:1010A000C1B23846FFF7B2FF002407E004EB451158
:1010B00010312A4A505C00F037FA641C102CF5D32A
:1010C00007F11000C7B204E06D1C25480068854296
:1010D000C0D300BFB61C39E07A2F04DD002708F129
:1010E000020000F0FF0831781E48FFF73DF8814606
:1010F000B9F1000F29D041463846FFF787FF002499
:1011000009E099F80010203904EB0111164A505CEF
:1011100000F00AFA641C082CF3D308F10100C1B2F4
:101120003846FFF773FF00240AE099F800102039D1
:1011300004EB011108310C4A505C00F0F5F9641C15
:10114000082CF2D307F10800C7B2761C30780028CB
:101150007FF47BAFBDE8F087D00200207002002052
:10116000E4020020D7020020240000202DE9F041F5
:1011700007460E46904600250024A8F13000C5B26F
:10118000812F02DD0027B01CC6B231463846FFF77A
:101190003DFF002407E004EB05110E4A505C00F00F
:1011A000C3F9601CC4B2082CF5DB701CC1B2384610
:1011B000FFF72CFF002408E004EB05110831054A75
:1011C000505C00F0B1F9601CC4B2082CF4DBBDE83F
:1011D000F0810000240000202DE9F04107460D4673
:1011E000904600260024A8F13000C6B2812F02DD0F
:1011F0000027A81CC5B229463846FFF707FF002480
:1012000009E006EBC60104EB8101194A505C00F0CD
:101210008BF9601CC4B20C2CF3DB681CC1B23846DD
:10122000FFF7F4FE00240AE006EBC60104EB81019F
:101230000C310F4A505C00F077F9601CC4B20C2CE2
:10124000F2DBA81CC1B23846FFF7E0FE00240AE03A
:1012500006EBC60104EB81011831054A505C00F031
:1012600063F9601CC4B20C2CF2DBBDE8F081000015
:10127000E40000202DE9F05F0546894690461E46B1
:10128000DDF828A04FF0000B002437E0301B401E93
:10129000C1B20A2000F080FCB8FBF0F00A21B0FBDC
:1012A000F1F201FB1207BBF1000F1AD1701EA04230
:1012B00017DDA7B9BAF1000F08D0082101FB0451CE
:1012C000C8B230224946FFF751FF07E0082101FB71
:1012D0000451C8B220224946FFF748FF0CE04FF006
:1012E000010B07F13001CAB2082101FB0451C8B259
:1012F0004946FFF73BFF00BF601CC4B2B442C5DBE8
:10130000BDE8F09F7047000029B1064A9269024388
:10131000044B9A6104E0034A92698243014B9A614B
:101320007047000000100240704710B500F002F84E
:1013300010BD00000CB500200190009033480068FB
:1013400040F480303149086000BF3048006800F444
:10135000003000900198401C0190009818B9019845
:10136000B0F5A06FF1D12948006800F4003010B149
:101370000120009001E0002000900098012843D156
:101380002348006840F010002149086008460068C2
:1013900020F0030008600846006840F00200086082
:1013A0001A4840681949486008464068486008463D
:1013B000406840F4806048600846406820F47C1033
:1013C00048600846406840F4E810486008460068F5
:1013D00040F08070086000BF0C48006800F00070AA
:1013E0000028F9D00948406820F003000749486008
:1013F0000846406840F00200486000BF034840686B
:1014000000F00C000828F9D10CBD000000100240CB
:1014100000200240042808D14FF0E021096941F082
:1014200004014FF0E022116107E04FF0E02109696B
:1014300021F004014FF0E022116170477047000075
:1014400010B51348006840F00100114908600846D3
:101450004068104908400E494860084600680E4937
:1014600008400B4908600846006820F480200860A6
:101470000846406820F4FE0048604FF41F00886072
:10148000FFF753FF4FF000600449086010BD0000F3
:10149000001002400000FFF8FFFFF6FE08ED00E03C
:1014A00000BFFEE770B50446002520E004F0800090
:1014B00018B101200F49086002E000200D490860C2
:1014C000FFF7A3FB01200B49091F0860FFF79DFBF5
:1014D00000200949C1F8A001072D02D101200549CA
:1014E00008606006040EFFF790FB681CC5B2082D6B
:1014F000DCDB70BDA48121420080214210B504468E
:10150000FFF7AAFB7820FFF7CDFFFFF7D1FB002004
:10151000FFF7C8FFFFF7CCFB2046FFF7C3FFFFF73D
:10152000C7FBFFF7B3FB10BD10B50446FFF794FBF4
:101530007820FFF7B7FFFFF7BBFB4020FFF7B2FFB4
:10154000FFF7B6FB2046FFF7ADFFFFF7B1FBFFF754
:101550009DFB10BD02E008C8121F08C1002AFAD185
:1015600070477047002001E001C1121F002AFBD123
:101570007047000010B56FF00400FFF74BFF0A48FA
:1015800000680A49B0FBF1F0094908700846007884
:1015900000EB4001C1EBC0104FF6FF7101EAC00043
:1015A0000449088010BD00001000002000127A00DD
:1015B0000C0000200E0000200146114A12884A4308
:1015C0004FF0E0235A6100229A611A46126942F0F4
:1015D00001021A6100BF4FF0E022106900F0010221
:1015E0001AB100F48032002AF5D04FF0E0221269DF
:1015F00022F001024FF0E0231A6100229A61704745
:101600000E00002070B505460E461446062C22D268
:10161000DFE804F003080D12171C3146284600F0DD
:101620009DF819E03146284600F058F814E031469C
:10163000284600F033F80FE03146284600F00EF857
:101640000AE03146284600F069F805E031462846B0
:1016500000F0A4F800E000BF00BF70BD70B5044604
:101660000D46B5B10A2094FBF0F03030C6B23246D8
:1016700000215820FFF77AFD0A2094FBF0F100FBCF
:1016800011403030C6B2324600216020FFF76EFDB7
:1016900003E000215820FFF7F1FB70BD70B5044650
:1016A0000D46B5B10A2094FBF0F03030C6B2324698
:1016B00003211020FFF790FD0A2094FBF0F100FBBE
:1016C00011403030C6B2324603211C20FFF784FDA2
:1016D00003E003211020FFF7F1FB70BD70B5044655
:1016E0000D46B5B10A2094FBF0F03030C6B2324658
:1016F00003213420FFF770FD0A2094FBF0F100FB7A
:1017000011403030C6B2324603214020FFF764FD5D
:1017100003E003213420FFF7D1FB70BD70B5044610
:101720000D46B5B10A2094FBF0F03030C6B2324617
:1017300000213820FFF71AFD0A2094FBF0F100FB8E
:1017400011403030C6B2324600214020FFF70EFD76
:1017500003E000213820FFF791FB70BD70B504460F
:101760000D46B5B10A2094FBF0F03030C6B23246D7
:1017700003215820FFF730FD0A2094FBF0F100FB15
:1017800011403030C6B2324603216420FFF724FDF9
:1017900003E003215820FFF791FB70BD70B50446AC
:1017A0000D46B5B10A2094FBF0F03030C6B2324697
:1017B00000211820FFF7DAFC0A2094FBF0F100FB6F
:1017C00011403030C6B2324600212020FFF7CEFC57
:1017D00003E000211820FFF751FB70BD0EB54FF05C
:1017E0000009CA4600240025E1A103C9CDE9010191
:1017F0000126A046FEF7F0FFFFF7BCFE3220FFF700
:10180000DBFEFFF709FBFEF70BFEFFF775FAFFF7AC
:10181000A1FB01A8FEF7C6FFFFF72BFBFFF73CF883
:101820000746002002231422014600900820FFF7FB
:1018300021FDD1A200212820FFF700FCCFA200212A
:101840004820FFF7FBFBCEA200216820FFF7F6FB44
:101850000A2097FBF0F0642190FBF1F201FB120BE0
:10186000002002235A46062100901A20FFF702FDAD
:101870000A2097FBF0F100FB117B002001235A4660
:10188000062100902E20FFF7F5FC002001233246B0
:10189000062100906020FFF7EDFC0020B9490860A8
:1018A00065E1FFF757FA06287ED2DFE800F0FC0377
:1018B0004F55B6D74FF00109FEF786FEB24800F04B
:1018C000C5F93FE0C4F10501AF4A505C2246002152
:1018D000FFF798FE3220FFF76FFEC4F10501AA4A18
:1018E000505C22460121FFF78DFEFFF733FA0628F0
:1018F00026D2DFE800F025030910111BA248FEF7ED
:1019000085FE4FF000091CE02046611CCCB2042883
:1019100000DD002415E014E0C4F105009A49085CDC
:10192000401CC4F10501984A50540AE0C4F1050076
:101930009549085C401EC4F10501934A505400E0EB
:1019400000BF00BFB9F1000FBCD1ADE000208F494E
:1019500008708C490860A7E04FF0010A8C490878AC
:101960000121FFF79BFE8A4948780121FFF7B6FE67
:10197000874988780121FFF7F1FE4AE0C5F10201AD
:10198000834A505C2A460021FFF73CFE3220FFF7D5
:1019900013FEC5F102017E4A505C2A460121FFF781
:1019A00031FEFFF7D7F900E07DE006282FD2DFE80F
:1019B00000F02E0310171A247648007808B9012089
:1019C00000E00020734908700846007800F0F0F845
:1019D0001EE02846691CCDB2012800DD002517E075
:1019E0004FF0000A14E0C5F102006949085C401C90
:1019F000C5F10201664A50540AE0C5F1020064498B
:101A0000085C401EC5F10201614A505400E000BF6D
:101A100000BFBAF1000FB1D146E0FEF73DFF074627
:101A20000A2097FBF0F0642190FBF1F201FB120B0E
:101A3000002002235A46062100901A20FFF71AFCC4
:101A40000A2097FBF0F100FB117B002001235A468E
:101A5000062100902E20FFF70DFC25E04FF0010835
:101A60001DE0FFF777F9012802D0052816D107E01D
:101A7000B8F1000F01D1012000E0002080460DE008
:101A8000701C86B2042E00D10126002001233246AC
:101A9000062100905E20FFF7EDFB00BF00BFB8F10C
:101AA000000FDED100E000BF00BFFEF78DFD36481D
:101AB00000F0CCF8364800783349C97888420ED116
:101AC0003348407830490979884208D130488078D5
:101AD0002D494979884202D101202C4908702D48AE
:101AE000007850B12948007838B12648006808B914
:101AF000012000E0002023490860012E1AD1FFF7E1
:101B000081F9012808D1FFF773F998B900201F491E
:101B100008701C4908600DE01E48007850B11B4851
:101B2000007838B11748006808B9012000E00020AB
:101B300014490860022E1AD1FFF75AF9012808D17A
:101B4000FFF760F998B90020104908700D49086046
:101B50000DE01048007850B10C48007838B10948C1
:101B6000006808B9012000E000200649086098E6F6
:101B7000180409161E0F0000C4EA0000D4C20000B9
:101B8000C8D500009C812142000000200A000020EE
:101B9000060000200900002010B50246012000E0E8
:101BA00050430B1EA1F10104E1B2F9D110BD0000B8
:101BB0002DE9F041074600250024A04605260A2508
:101BC000B8F1810F02DD00BFB01CC6B231464046FD
:101BD000FFF71CFAF7B1002407E004EB05111A4ADD
:101BE000505CFFF7A1FC601CC4B2102CF5DB701C2C
:101BF000C1B24046FFF70AFA002408E004EB0511E1
:101C00001031114A505CFFF78FFC601CC4B2102CDD
:101C1000F4DB16E0002404E00020FFF785FC601CE4
:101C2000C4B2102CF8DB701CC1B24046FFF7EEF9CD
:101C3000002404E00020FFF777FC601CC4B2102CE5
:101C4000F8DBBDE8F08100002400002070B50446F8
:101C500020780A2190FBF1F03030C5B22A460021ED
:101C60001820FFF783FA20780A2190FBF1F201FB9C
:101C700012003030C5B22A4600212020FFF776FA44
:101C800060780A2190FBF1F03030C5B22A4600217D
:101C90003820FFF76BFA60780A2190FBF1F201FB24
:101CA00012003030C5B22A4600214020FFF75EFA0C
:101CB000A0780A2190FBF1F03030C5B22A4600210D
:101CC0005820FFF753FAA0780A2190FBF1F201FBAC
:101CD00012003030C5B22A4600216020FFF746FAD4
:101CE000E0780A2190FBF1F03030C5B22A4603219A
:101CF0001020FFF771FAE0780A2190FBF1F201FB66
:101D000012003030C5B22A4603211C20FFF764FAC6
:101D10003A2203212820FFF75FFA20790A2190FB5D
:101D2000F1F03030C5B22A4603213420FFF754FACF
:101D300020790A2190FBF1F201FB12003030C5B28C
:101D40002A4603214020FFF747FA3A2203214C207C
:101D5000FFF742FA60790A2190FBF1F03030C5B20A
:101D60002A4603215820FFF737FA60790A2190FBB1
:101D7000F1F201FB12003030C5B22A460321642083
:101D8000FFF72AFA70BD0000A81D0008000000201F
:101D9000EC020000CA030008701F0008EC020020DB
:101DA0000404000064150008011184A24A0410090B
:101DB000010203040607080927E010080810E027BD
:101DC0000F102020100F541010F83620203F202034
:101DD000277008080888701F302824222130081D29
:101DE00008888848083718202020110E3BC0203270
:101DF00027070424243F241AF8202308084B19211C
:101E00002036E0108888184B0F11101E380808C8BB
:101E1000382021523F1A702E29602F1C22212122A6
:101E20001C304990111D312222119029601C080894
:101E3000E8155320C01A070A500820212121110853
:101E400007300980C060202060C0803CFEFF01DCBC
:101E50001BFFFE052809070E181010180E07132D7A
:101E6000404040C0547173FFFF1E1010101F1F052B
:101E700029471A40D159481B0303772C60301F6152
:101E80001D181C1211222B101E8B7AC023111B014E
:101E9000013E2C182FE70D2B0E0E224B180F912907
:101EA0004D3AE06E380BC0A098848380FFFF80809D
:101EB000331931296E312AE06C1901411A3FDF2CA8
:101EC0000818F0312B070B481B1C0F7F29D82992CB
:101ED0002AE0F57CFCFF21251C01070CD83B1008EB
:101EE0002529FB29252A609129587A18835B1F1F11
:101EF0008B492439B6180B83CF6C1810303068CF5B
:101F0000836C8B0F08B539D93A20D9300B1F3F604D
:101F10004040402010FFFE7B0C1C6B0110FC1C1C81
:101F20001C0C1D2018C744012AFC0522041D0404B2
:101F30000407042B04FF051A0411215BFE2201296A
:101F40005E3E8040300F02016442827F4BFE820180
:101F5000291F411AFF8C290142FF17C4EAD4C2C8C5
:101F6000D5A00C303132333435363738393A0000A9
:0400000508000145A9
:00000001FF
