:020000040800F2
:1000000078530020610200081D4000087533000885
:10001000113D0008390A0008E554000800000000FE
:10002000000000000000000000000000A101000826
:100030007B0B000800000000FD0100084549000896
:100040007B0200087B0200087B0200087B0200089C
:100050007B0200087B0200087B0200087D0B000881
:100060007B0200087B0200087B0200087B0200087C
:100070007B0200087B0200087B0200087B0200086C
:100080007B0200087B0200087B0200087B0200085C
:100090007B0200087B0200087B0200087B0200084C
:1000A0007B0200087B020008294A00087B02000846
:1000B0007B0200087B0200087B0200087B0200082C
:1000C0007B0200087B0200087B0200087B0200081C
:1000D0007B020008B55300087B0200087B02000881
:1000E0007B0200087B0200087B0200087B020008FC
:1000F000414A00087B0200087B0200087B020008DE
:100100007B0200087B0200087B0200087B020008DB
:100110007B0200087B0200087B0200087B020008CB
:100120007B0200087B020008610A00087B020008CD
:100130007B0200087B0200087B0200087B020008AB
:100140007B0200087B0200087B0200087B0200089B
:100150007B0200087B0200087B0200087B0200088B
:100160007B0200087B0200087B0200087B0200087B
:100170007B0200087B0200087B02000800000000F0
:100180007B0200087B020008DFF810D000F082FB41
:1001900000480047E15F0008AFF30080785300207B
:1001A0002C4B19680868B0E8F04F80F30988BFF35A
:1001B0006F8F4FF0000080F311887047000000003F
:1001C00008480068006880F308884FF0000080F35A
:1001D000148862B661B6BFF34F8FBFF36F8F00DF35
:1001E00000BF00BF08ED00E0DFF80C00016841F43B
:1001F00070010160704700BF88ED00E0EFF30980F7
:10020000BFF36F8F134B1A681EF0100F08BF20ED5D
:10021000108A20E9F04F106009B44FF0500080F3CD
:100220001188BFF34F8FBFF36F8F07F08FF84FF038
:10023000000080F3118809BC19680868B0E8F04F25
:100240001EF0100F08BFB0EC108A80F30988BFF3CE
:100250006F8F704740000020EFF30580704700006B
:100260000648804706480047FEE7FEE7FEE7FEE750
:10027000FEE7FEE7FEE7FEE7FEE7FEE7154A0008B9
:10028000890100082DE9F05F0546002092469B4653
:1002900088460646814640241BE02846414647469C
:1002A000224600F041FA53465A46C01A914110D3F3
:1002B00011461846224600F028FA2D1A67EB01086D
:1002C0004F4622460120002100F01FFA17EB0009DB
:1002D0004E41201EA4F10104DFDC484631462A4687
:1002E0004346BDE8F09F40EA01039B0703D009E0C5
:1002F00008C9121F08C0042AFAD203E011F8013B12
:1003000000F8013B521EF9D27047D2B201E000F86A
:10031000012B491EFBD270470022F6E710B51346A9
:100320000A4604461946FFF7F0FF204610BD2DE9A6
:10033000FE4F804681EA0300C00F0C46009021F07A
:10034000004123F00045B8EB0200A94105D2404628
:10035000214690461C460B46024623F000401043BF
:1003600047D0270DC7F30A00C3F30A510290401A81
:10037000019040286BDAC3F3130040F4801B00980F
:10038000924620B10023D2EB030A63EB0B0B0198DA
:100390005946C0F14002504600F0B7F906460D46F6
:1003A00050465946019A00F0CFF910EB0800614120
:1003B000002487EA115284EAE7731A4340D0009A76
:1003C00062B3019A012A4FEA075215DC001B61EB68
:1003D00002014FF0004202EA0752CDE90042001C40
:1003E00041F5801132462B4600F006FA03B0BDE815
:1003F000F08F40462146F9E7001B61EB0201001C2B
:1004000041F5801300185B412018A2F5001747EB57
:10041000030140EAD570B6196D4111E06D084FEA4D
:10042000360645EAC0754FEA0752001B61EB020130
:10043000001C41F5801149084FEA30000019514174
:1004400032462B4603B0BDE8F04F00F0C6B9009825
:10045000012240000023D0EB020263EBE07300981E
:1004600021464FEAE074B8EB000061EB0401E9E7D4
:1004700083F000435BE781F0004158E72DE9FE4F30
:1004800081EA030404F0004421F0004100944FF09D
:10049000000B23F0004350EA01045ED052EA03044B
:1004A0005BD0C3F30A54C1F30A552C44A4F2F334CD
:1004B0000194A0FB0254C1F3130141F48011C3F372
:1004C000130343F4801301FB024400FB034E840A30
:1004D000970A44EA815447EA8357A4FB07680295C8
:1004E0008D0A05FB07854FEA932C04FB0C54270566
:1004F000029D4FEA065847EA1637B5EB08056EEB42
:10050000070C870E920E47EA811742EA8312A7FB77
:100510000201B6EB0B0164EB00042B0D43EA0C3334
:100520005E1844EB1C50DA465146E7FB0201C5F366
:1005300013044FEA0B3343EA14534FEA0432019C8D
:1005400043EA0603A4F10C040294009CCDE900B434
:1005500000F052F903B0BDE8F08F00200146F9E742
:100560002DE9F04D81EA030404F0004B21F0004531
:1005700014464FF0000A23F0004150EA050220D053
:1005800054EA01021DD0C5F30A570246C5F313030E
:10059000C1F31300C1F30A5640F4801543F48013ED
:1005A000A7EB0608101BD64608F2FD3873EB0500D2
:1005B00002D308F1010801E092185B41B8F1000F85
:1005C00003DA00200146BDE8F08D00204FF48011D1
:1005D000064684460EE0171B73EB050705D3121B76
:1005E00063EB050306434CEA010C49084FEA30006F
:1005F00092185B4150EA0107EDD152EA030012D094
:1006000082EA040083EA0501084305D0101BAB41D0
:1006100006D20122002306E000224FF0004302E050
:100620006FF0010253101AEB06004CEB085110EB6F
:100630000A0041EB0B01BDE8F04D00F0CEB80EB55D
:10064000C10F80EAE0700844CA07002140F233433A
:100650008DE80E000A460B4600F0CEF803B000BD50
:100660000EB540F2334102910021CDE900110A4656
:100670000B4600F0C1F803B000BDC1F30A5210B53B
:10068000C1F3130140F2FF3341F480119A4201DAC1
:10069000002010BD40F233439A42A2F2334203DC01
:1006A000524200F041F810BD904010BD00F00042F1
:1006B00030F000400AD0C10D01F56071C0F31600A2
:1006C00042EA0151C2084007114370470020014629
:1006D000704701F0004330B421F0004150EA0102BC
:1006E00006D00A0DA2F56072C1F31301002A02DCE4
:1006F00030BC00207047440F44EAC104C100E01838
:1007000030BC00EBC25000F031B8202A04DB203AA4
:1007100000FA02F1002070479140C2F1200320FA54
:1007200003F3194390407047202A04DB203A21FA52
:1007300002F00021704721FA02F3D040C2F12002FA
:100740009140084319467047202A06DBCB17203A10
:1007500041FA02F043EAE07306E041FA02F3D040C6
:10076000C2F1200291400843194670470029A8BFF2
:100770007047401C490008BF20F00100704710B4CA
:10078000B0FA80FC00FA0CF050EA010404BF10BC7F
:10079000704749B1CCF1200421FA04F411FA0CF1AC
:1007A00018BF012121430843A3EB0C01CB1D4FEAE5
:1007B00000614FEA102042BF002010BC704700EBE0
:1007C000C35010440029A4BF10BC7047401C49000E
:1007D00008BF20F0010010BC704710B5141E73F163
:1007E000000408DA401C41F1000192185B411A43F1
:1007F00001D120F0010010BD2DE9F04D92469B463D
:1008000011B1B1FA81F202E0B0FA80F220329046E2
:10081000FFF77BFF04460F4640EA0A0041EA0B015E
:1008200053465A46084313D0114653EA010019D0E3
:10083000C8F140025046FFF777FF05460E46504686
:1008400059464246FFF761FF084305D0012004E006
:1008500020463946BDE8F08D0020054346EAE076A3
:100860002C4337430A986305E40AA0EB08000022F2
:10087000FD0A44EA47540A3002D500200146E9E760
:10088000010510196941DDE9084500196941BDE814
:10089000F04DA2E7064C074D06E0E06840F001038A
:1008A00094E8070098471034AC42F6D3FFF770FC89
:1008B000D88F0008F88F000870B5C1F30A5201F014
:1008C00000450024C1F3130140F2FF3341F48011CD
:1008D0009A4201DA002070BD40F233439A42A2F2FC
:1008E000334203DC5242FFF71FFF00E090402C43ED
:1008F000F1D0404270BD70B58C1810F8015B15F056
:10090000070301D110F8013B2A1106D110F8012B81
:1009100003E010F8016B01F8016B5B1EF9D12B07A6
:1009200005D40023521E0DD401F8013BFAE710F85C
:10093000013BCB1A921C03E013F8015B01F8015B49
:10094000521EF9D5A142D8D3002070BD70B52DED4F
:100950000A8B0446B0EE408A3CB99FED320A324819
:1009600080ED000A314880ED000A00EE104AB8EE32
:10097000400ADFED2F0A20EE200ADFED2E0A80EE7E
:10098000201A11EE105A2846FFF790FE41EC1C0B7E
:10099000B0EE4C0AF0EE6C0A04F0FAFDB0EE40AA9C
:1009A000F0EE60AA18EE100AFFF780FE41EC1B0B78
:1009B00053EC1A2BFFF762FD41EC190BFFF789FE90
:1009C0001A49086000EE104AB8EE400ADFED180A36
:1009D00020EE200ADFED170A80EE201A11EE105AE1
:1009E0002846FFF763FE41EC1C0BB0EE4C0AF0EE1C
:1009F0006C0A04F031FEB0EE40AAF0EE60AA18EEE8
:100A0000100AFFF753FE41EC1B0B53EC1A2BFFF7B8
:100A100035FD41EC190BFFF75CFE03490860BDECA6
:100A20000A8B70BD00000000E8000020E4000020F8
:100A3000F90F49400000344300BFFEE710B5012222
:100A40005102064800F07AFC322005F093FA0022A9
:100A50004FF40071014800F071FC10BD0004024029
:100A600010B5024800F0FCF810BD00008004002022
:100A70000146087810381823B0FBF3F20848805C70
:100A8000C865032A05D908686FF30900001D886549
:100A900003E008686FF309008865886D70470000FF
:100AA0006C8E0008014600208A6A8B69CBB932B18E
:100AB000012A0DD0022A03D0032A10D10EE000BF74
:100AC000CB6A03F08073B3F1807F00D1012007E08F
:100AD000CB6AB3F1C07F00D1012001E000E000BF8C
:100AE00034E08B69B3F5005F1AD132B1012A07D027
:100AF000022A03D0032A11D10AE000BF01200EE030
:100B0000CB6A03F08073B3F1807F00D1012006E04F
:100B1000CB6AB3F1C07F00D1012000E000BF15E037
:100B200032B1012A05D0022A04D0032A0CD103E0F5
:100B300000BF00BF012008E0CB6A03F08073B3F16F
:100B4000807F00D1012000E000BF00BF704730B5BA
:100B50000468246824F4802405682C6004686360B9
:100B60008468402C04D10468A2600468E16003E05A
:100B70000468A1600468E26030BD704710B50220CF
:100B800000F0C2FA10BD72B600BFFEE770B50446B1
:100B9000A56D00F0D9FB064694F83500022808D070
:100BA0008020606500BF002084F8340000BF012071
:100BB00070BD2068006820F0160021680860206879
:100BC000406920F0800021684861206C08B9A06C61
:100BD00028B12068006820F00800216808602068BB
:100BE000006820F001002168086010E000F0ACFB14
:100BF000801B05280BD920206065032084F8350070
:100C000000BF002084F8340000BF0320D0E7206834
:100C1000006800F001000028E8D194F85C103F2043
:100C20008840A860012084F8350000BF002084F8C7
:100C3000340000BF00BFBBE7014691F83500022831
:100C400003D08020486501207047052081F83500D9
:100C50000868006820F001000A6810600020F3E7CF
:100C6000F8B50446002000908C4800684FF41651F7
:100C7000B0FBF1F7A56D2E6894F85C100820884051
:100C8000304098B12068006800F0040070B120681E
:100C9000006820F004002168086094F85C100820C7
:100CA0008840A860606D40F00100606594F85C10B9
:100CB00001208840304068B12068406900F0800021
:100CC00040B194F85C1001208840A860606D40F04D
:100CD0000200606594F85C1004208840304068B1E0
:100CE0002068006800F0020040B194F85C10042015
:100CF0008840A860606D40F00400606594F85C1066
:100D000010208840304078B32068006800F0080068
:100D100050B394F85C1010208840A86020680068E8
:100D200000F4802080B12068006800F4002028B919
:100D3000206CC8B12046216C884715E0A06C98B1A2
:100D40002046A16C88470FE02068006800F480709E
:100D500028B92068006820F0080021680860206C2D
:100D600010B12046216C884794F85C102020884000
:100D70003040002865D02068006800F0100000288E
:100D80005FD094F85C1020208840A86094F835006B
:100D9000052828D12068006820F016002168086026
:100DA0002068406920F0800021684861206C08B903
:100DB000A06C28B12068006820F008002168086055
:100DC00094F85C103F208840A860012084F835002A
:100DD00000BF002084F8340000BF206D10B1204611
:100DE000216D8847F8BD2068006800F4802080B13C
:100DF0002068006800F4002028B9606C10B120461B
:100E0000616C88471DE0E06BD8B12046E16B8847F4
:100E100017E02068006800F4807068B920680068F6
:100E200020F0100021680860012084F8350000BF20
:100E3000002084F8340000BFE06B10B12046E16B65
:100E40008847606D38B3606D00F00100F0B1052097
:100E500084F835002068006820F0010021680860EF
:100E600000BF0098401C0090B84200D905E02068FF
:100E7000006800F001000028F3D100BF012084F8D1
:100E8000350000BF002084F8340000BFE06C10B1D2
:100E90002046E16C884700BFA4E700003C0000202A
:100EA0002DE9F0410446002500F04EFA074614B93A
:100EB0000120BDE8F081606A00B100BF022084F823
:100EC000350000BF002084F8340000BF20680068AF
:100ED00020F00100216808600AE000F035FAC01B2C
:100EE000052805D920206065032084F83500E0E757
:100EF0002068006800F001000028EED12068056835
:100F000021480540D4E901010843E168084321690B
:100F1000084361690843A1690843E1690843216AFC
:100F200008430543606A042803D1D4E90B01084350
:100F30000543206805602068456925F00705606A5B
:100F40000543606A04280DD1A06A0543E06A48B1F0
:100F50002046FFF7A7FD28B140206065012084F8F6
:100F60003500A6E7206845612046FFF781FD06466B
:100F700094F85C103F208840B0600020606501203C
:100F800084F83500002094E73F8010F02DE9F04709
:100F900004460D4616461F464FF00008D4F85890F8
:100FA00000BF94F83400012802D10220BDE8F08788
:100FB000012084F8340000BF94F83500012825D1C1
:100FC000022084F83500002060653B463246294601
:100FD0002046FFF7BCFD94F85C103F208840C9F81C
:100FE00008002068006840F0160021680860206C46
:100FF00028B12068006840F0080021680860206877
:10100000006840F001002168086006E000BF002091
:1010100084F8340000BF4FF002084046C6E70000E5
:1010200070B5044600F090F906462546681C10B1DC
:1010300004480078054400BF00F086F9801BA842F0
:10104000FAD370BD3800002010B52DED068B044694
:10105000022C42D10221224800F05EF9012807D17A
:1010600000202049096848621E4801F04DF934E02B
:1010700002211B4800F050F978BB1A4801F0E6F94C
:1010800018480068406A1849086008460068FFF779
:10109000D6FA41EC1A0B9FED150B53EC102BFFF712
:1010A000EDF941EC190B9FED130B53EC102BFFF7EF
:1010B000E5F941EC180BFFF70CFB104908600846F6
:1010C00090ED000A0E4800880A380E4901EB8000B6
:1010D00080ED000A002004490860BDEC068B10BDBD
:1010E0000008024064030020300100209CC420B0AE
:1010F0007268913F000000000000004034010020B1
:1011000038010020D44E002010B504460448006881
:10111000204020B1024804602046FFF795FF10BD33
:10112000143C0140F8B502460B460025002400207F
:101130000021D6E0012606FA01F51E6806EA05043C
:10114000AC4274D11E7906F00306012E04D01E793C
:1011500006F00306022E13D190684F000326BE400E
:10116000B0434F00DE68BE403043906050680126B7
:101170008E40B0431E79C6F300168E403043506057
:101180001E7906F00306032E09D0D0684F0003260F
:10119000BE40B0434F009E68BE403043D0601E79D1
:1011A00006F00306022E13D1CF0802F1200656F8EE
:1011B00027004E07F70E0F26BE40B0434F07FF0E25
:1011C0001E69BE403043CF0802F1200646F82700D2
:1011D00010684F000326BE40B0431E7906F0030698
:1011E0004F00BE40304310605E6806F44036002E6B
:1011F00076D000BF002600963C4E366846F4804606
:101200003A4F3E603E46366806F48046009600BF80
:1012100000BF374E8F0856F827008E07370F0F266E
:10122000BE40B043334EB24202D1002624E057E024
:10123000314EB24201D101261EE0304EB24201D100
:10124000022619E02E4EB24201D1032614E02D4EA3
:10125000B24201D104260FE02B4EB24201D1052645
:101260000AE02A4EB24201D1062605E0284EB242DB
:1012700001D1072600E008268F073F0FBE4030430C
:101280001B4E8F0846F82700224E3068A0435E6848
:1012900006F4801606B120431E4E3060361D3068BD
:1012A000A0435E6806F4001606B12043194E361DB1
:1012B0003060184E361F3068A0435E6806F4003672
:1012C00006B12043134E361F3060361F3068A043EE
:1012D0005E6806F4803606B120430E4E083E30604C
:1012E000491C1029FFF426AFF8BD00004438024025
:1012F000083801400000024000040240000802409B
:10130000000C02400010024000140240001802408D
:10131000001C0240083C0140024613690B400BB11F
:10132000012000E00020704710B5426921EA020365
:1013300002EA010443EA0443836110BD0AB18161FA
:1013400001E00B04836170470148006870470000AA
:101350003000002070B504460CB9012070BD94F82F
:101360003D0028B9002084F83C00204600F08CF9AC
:10137000242084F83D002068006820F001002168E6
:1013800008602068006840F4004021680860206818
:10139000006820F400402168086000F0DFFB05468B
:1013A0005C496068884206D85B48854201D20120CA
:1013B00007E0002005E05948854201D2012000E005
:1013C0000020012800D1C9E75548B5FBF0F6206898
:1013D000406820F03F003043216848604D49606814
:1013E000884201D8701C07E04FF4967070434FF4A8
:1013F0007A71B0FBF1F0401C2168096A21F03F01CD
:1014000008432168086243496068884214D8681E0E
:1014100061684900B0FBF1F0401CC0F30B000428E8
:1014200001D204203DE0681E61684900B0FBF1F084
:10143000401CC0F30B0034E0A06838B9681E616836
:1014400001EB4101B0FBF1F0401C0AE0681E61684D
:1014500001EBC10202EB0111B0FBF1F0401C40F4C2
:101460008040C0F30B0008B901201AE0A06848B919
:10147000681E616801EB4101B0FBF1F0401CC0F354
:101480000B000CE0681E616801EBC10202EB011168
:10149000B0FBF1F0401CC0F30B0040F4804040F47E
:1014A00000402168C9694CF6FF72914308432168E6
:1014B000C861D4E9070108432168096821F0C00127
:1014C000084321680860D4E903100843216889684B
:1014D00048F2FF329143084321688860D4E905014E
:1014E00008432168C96821F0FF0108432168C860EA
:1014F0002068006840F00100216808600020206436
:10150000202084F83D000020206384F83E0000BFC6
:1015100024E70000A086010080841E0000093D0031
:1015200040420F002DE9FC5F04460F469046994665
:10153000DDE90CAB0E9EFFF707FF054694F83D0072
:1015400020287DD1192301224D492046009501F024
:10155000D1FF10B10220BDE8FC9F00BF94F83C0011
:10156000012801D10220F6E7012084F83C0000BFE9
:101570002068006800F0010028B92068006840F089
:101580000100216808602068006820F4006021687C
:101590000860212084F83D00402084F83E000020AF
:1015A0002064C4F824A0A4F82AB0608D20853548B2
:1015B000E0624B46424639462046CDE9006501F0DF
:1015C000FBFE08B10120C6E731E02A46314620463D
:1015D00002F035F850B1206C042805D1206800686D
:1015E00040F40070216808600120B4E7606A007868
:1015F00021680861606A401C6062208D401E208561
:10160000608D401E608520684069C0F3800070B125
:10161000208D60B1606A007821680861606A401CB2
:101620006062208D401E2085608D401E6085208D6B
:101630000028CAD12A463146204601F02DFF00E09D
:101640001CE050B1206C042805D12068006840F4EB
:1016500000702168086001207DE72068006840F480
:10166000007021680860202084F83D00002084F884
:101670003E0000BF84F83C0000BF6CE702206AE730
:10168000020010000000FFFF10B586B004461421D0
:1016900001A8FEF741FE3549206888422FD100BFDE
:1016A000002000903248006840F002003049086095
:1016B0000846006800F00200009000BF00BFC02094
:1016C0000190122002900020039003200490042037
:1016D000059001A92748FFF725FD00BF00200090D5
:1016E00023481030006840F4001021491031086090
:1016F0000846006800F40010009000BF34E01E4966
:101700002068884230D100BF00200090184800684F
:1017100040F00200164908600846006800F0020028
:10172000009000BF00BF4FF4406001901220029073
:1017300000200390032004900420059001A90D4887
:10174000FFF7F0FC00BF002000900948103000684F
:1017500040F480000649103108600846006800F433
:101760008000009000BF00BF06B010BD00540040D4
:10177000303802400004024000580040034800682E
:101780000349097808440149086070473000002087
:101790003800002010B50D48006840F400700B4977
:1017A00008600846006840F48060086008460068E9
:1017B00040F480700860032000F0D2F80F2000F0A1
:1017C00007F800F055F8002010BD0000003C024072
:1017D000F0B587B004460026002700BF0020009027
:1017E0001E48006840F480201C49086008460068D4
:1017F00000F48020009000BF00BF01A902A800F003
:1018000085F900F0BBF946001548B6FBF0F0471E1D
:1018100014481549086040F2E7311348C160476039
:10182000002101618160816100F0BAFC054695B933
:101830000D4800F0B7FD05466DB91A2000F042F8DA
:10184000102C07D2002221461A2000F04BF807483E
:10185000046000E00125284607B0F0BD443802408E
:1018600040420F0000480140E00400203400002006
:1018700008B500BF002000901148006840F4804087
:101880000F4908600846006800F48040009000BFDF
:1018900000BF00BF00200090081F006840F080508B
:1018A000091F08600846006800F08050009000BFE3
:1018B00000BF00220F21901E00F014F808BD0000A8
:1018C0004438024001460846002809DB00F01F03A7
:1018D00001229A4043099B0003F1E023C3F8002151
:1018E00000BF70472DE9F05F80460D461646002781
:1018F00003F02EFE074639462A46334601F007001C
:10190000C0F1070ABAF1040F02D94FF0040A01E04E
:10191000C0F1070AD14600F1040ABAF1070F02D25A
:101920004FF0000A01E0A0F1030AD4464FF0010A8B
:101930000AFA09FAAAF1010A0AEA020A0AFA0CFAF0
:101940004FF0010B0BFA0CFBABF1010B0BEA030B95
:101950004AEA0B042146404603F002FEBDE8F09F30
:1019600000BF00F00702064B19684FF6FF0319404D
:10197000044B0B4343EA0221014B196000BF70473F
:101980000CED00E00000FA0570B504460D460CB9F8
:10199000012070BD5848006800F00700A84209D235
:1019A00055490D700846006800F00700A84201D0B4
:1019B0000120EEE7207800F0020002281DD12078F7
:1019C00000F00400042805D14C48006840F4E050C1
:1019D0004A490860207800F00800082805D14748E7
:1019E000006840F46040454908604448006820F0C1
:1019F000F000A168084341490860207800F0010028
:101A0000A8B36068012807D13C4808380068C0F3D3
:101A10004040B8B90120BCE76068022802D0606885
:101A2000032807D1354808380068C0F3406048B93A
:101A30000120AEE7314808380068C0F3400008B91B
:101A40000120A6E72D48006820F0030061680843E4
:101A50002A490860FFF778FC064609E0FFF774FCA6
:101A6000801B41F28831884202D9032091E707E0C8
:101A70002248006800F00C006168B0EB810FEDD1E6
:101A80001D48006800F00700A84209D91A490D70E6
:101A90000846006800F00700A84201D0012078E75E
:101AA000207800F00400042807D11448006820F4CE
:101AB000E050E168084311490860207800F0080010
:101AC000082808D10D48006820F46040216940EAE8
:101AD000C1000A49086000F061F808490968C1F3CB
:101AE0000311074A515CC84006490860064800686F
:101AF000FFF76EFE00204CE7003C02400838024031
:101B0000748E00083C000020340000200F22026088
:101B10000D4A126802F0030242600B4A126802F09A
:101B2000F0028260084A126802F4E052C260064A7B
:101B3000126802F46042D2080261044A126802F09C
:101B400007020A607047000008380240003C02406B
:101B500001480068704700003C00002000B5FFF716
:101B6000F7FF04490968C1F38221034A515CC84068
:101B700000BD000008380240848E000800B5FFF761
:101B8000E7FF04490968C1F34231034A515CC84088
:101B900000BD000008380240848E00082DE9F0479F
:101BA000002400250026A1462548006800F00C000E
:101BB00020B1042805D008283AD105E0DFF8849048
:101BC00039E0DFF8849036E01D48001F006800F01F
:101BD0003F041B48001F006800F4800078B11A48D9
:101BE0001749091F0968C1F38811A0FB017001465C
:101BF000224600233846FEF745FB05460EE0114815
:101C00000F49091F0968C1F38811A0FB0170014643
:101C1000224600233846FEF735FB05460848001FDC
:101C20000068C0F30140401C4600B5FBF6F902E035
:101C3000DFF8109000BF00BF4846BDE8F087000005
:101C4000083802400024F40040787D01F8B50446CD
:101C50000CB90120F8BD207800F00100002874D0F4
:101C6000F948006800F00C0004280DD0F648006820
:101C700000F00C00082813D1F348001F006800F49E
:101C80008000B0F5800F0BD1EF4808380068C0F332
:101C90004040002859D06068002856D10120D9E77B
:101CA00000BF6068B0F5803F08D1E7480838006899
:101CB00040F48030E449083908601EE06068B0F5FF
:101CC000A02F0DD1E0480838006840F48020DE499C
:101CD000083908600846006840F4803008600CE06D
:101CE000D9480838006820F48030D749083908609E
:101CF0000846006820F48020086000BF606890B14A
:101D0000FFF722FB054606E0FFF71EFB401B642899
:101D100001D903209EE7CC4808380068C0F3404052
:101D20000028F1D011E0FFF70FFB054606E0FFF7B2
:101D30000BFB401B642801D903208BE7C2480838FD
:101D40000068C0F340400028F1D1207800F0020084
:101D500002285FD1BC48006800F00C0058B1BA48B6
:101D6000006800F00C0008281CD1B748001F00686C
:101D700000F48000B0B9B44808380068C0F34000EF
:101D800020B1E068012801D0012063E7AE4808389F
:101D9000006820F0F800216940EAC100AA4908392A
:101DA000086037E0E06800B30120A8490860FFF749
:101DB000CBFA054606E0FFF7C7FA401B022801D917
:101DC000032047E7A04808380068C0F34000002817
:101DD000F1D09D480838006820F0F800216940EAF9
:101DE000C10099490839086014E00020974908604B
:101DF000FFF7AAFA054606E0FFF7A6FA401B0228FD
:101E000001D9032026E7904808380068C0F3400055
:101E10000028F1D1207800F0080008282CD1606952
:101E2000A8B101208A490860FFF78EFA054606E04E
:101E3000FFF78AFA401B022801D903200AE78248EB
:101E40006C300068C0F340000028F1D014E000209E
:101E50007F490860FFF778FA054606E0FFF774FA55
:101E6000401B022801D90320F4E677486C30006853
:101E7000C0F340000028F1D1207800F004000428CD
:101E800070D1002770483830006800F0805090B959
:101E900000BF002000906C483830006840F080504F
:101EA0006949383108600846006800F080500090A9
:101EB00000BF00BF01276748006800F48070B0B918
:101EC0006448006840F4807062490860FFF73CFA9B
:101ED000054606E0FFF738FA401B022801D9032027
:101EE000B8E65C48006800F480700028F2D000BFBB
:101EF000A068012808D154486830006840F001000B
:101F00005149683108601DE0A06805280DD14E4890
:101F10006830006840F004004B49683108600846AA
:101F2000006840F0010008600CE047486830006835
:101F300020F001004449683108600846006820F03C
:101F40000400086000BFA068A8B1FFF7FDF90546CE
:101F500009E0FFF7F9F9401B41F28831884202D9C4
:101F6000032077E626E0384868300068C0F3400078
:101F70000028EED013E0FFF7E7F9054608E0FFF789
:101F8000E3F9401B41F28831884201D9032061E620
:101F90002D4868300068C0F340000028EFD1012FC1
:101FA00007D129483830006820F080502649383160
:101FB000086000BFA069002845D02348006800F0F1
:101FC0000C0008285DD0A069022845D100201F49D7
:101FD0000866FFF7B9F9054606E0FFF7B5F9401BBB
:101FE000022801D9032035E6174808380068C0F3F5
:101FF00040600028F1D1D4E907010843616A40EA52
:1020000081110122A06AC2EB500041EA00412C205C
:10201000005D41EA00600C49091F086001200B497E
:102020000866FFF791F9054606E0FFF78DF9401BBA
:10203000022801D903200DE6034808380068C0F3E0
:1020400040600028F1D049E00838024000004742D3
:10205000800E474200700040002021490866FFF7CB
:1020600073F9054606E0FFF76FF9401B022801D916
:102070000320EFE51B480068C0F340600028F2D160
:102080002CE0A069012800D1E4E51648001D06688F
:10209000A069012820D006F48001E06981421BD1AB
:1020A00006F03F01206A814216D147F6C0703040E9
:1020B000616AB0EB811F0FD106F440310122A06AA2
:1020C000C2EB5000B1EB004F06D106F070612C203E
:1020D000005DB1EB006F01D00120BBE50020B9E548
:1020E00000004742003802407047704730B5024652
:1020F0000B4600BF92F83C00012801D1022030BD00
:10210000012082F83C0000BF022082F83D001068E8
:1021100044681068816824F07004186804431068EB
:102120004460184D1068A8421BD01068B0F1804F71
:1021300017D0154D1068A84213D0144D1068A8424E
:102140000FD0134D1068A8420BD0124D1068A84252
:1021500007D0114D1068A84203D0104D1068A84256
:1021600005D121F080015868014310688160012089
:1021700082F83D0000BF002082F83C0000BF00BF95
:10218000BDE70000000001400004004000080040DE
:10219000000C0040000401400040014000180040D5
:1021A00010B504460CB9012010BD94F83D0028B9C3
:1021B000002084F83C00204600F026F8022084F835
:1021C0003D00211D206802F043FC012084F84600F8
:1021D00000BF84F83E0001213F20015540200155F9
:1021E0004120015500BF00BF012084F84200432078
:1021F0000155442001554520015500BF012084F8B8
:102200003D000020D0E7000038B50446384920687A
:1022100088420FD100BF002000903648006840F08F
:102220000400344908600846006800F0040000908B
:1022300000BF5CE03049206888420FD100BF002019
:1022400000902C48006840F010002A4908600846B9
:10225000006800F01000009000BF48E027492068A7
:1022600088420FD100BF002000902248006840F053
:102270002000204908600846006800F02000009017
:1022800000BF34E01E49206888421AD100BF0020F8
:1022900000901848001D006840F002001549091D13
:1022A00008600846006800F00200009000BF00BF10
:1022B000002205212C20FFF715FB2C20FFF702FB45
:1022C00015E010492068884211D100BF002000901D
:1022D0000848001D006840F400300649091D0860E8
:1022E0000846006800F40030009000BF00BF38BD11
:1022F0000008004040380240001000400014004038
:102300000004014000440140014691F83D000128CD
:1023100001D001207047022081F83D001A4B086867
:1023200098421BD00868B0F1804F17D0174B08684F
:10233000984213D0164B086898420FD0154B086886
:1023400098420BD0144B0868984207D0134B08688A
:10235000984203D0124B086898420CD108688068F4
:1023600000F00702062A0CD00868006840F001005F
:102370000B68186005E00868006840F001000B6811
:1023800018600020C6E70000000001400004004083
:1023900000080040000C00400004014000400140E3
:1023A00000180040014691F83D00012801D00120AD
:1023B0007047022081F83D000868C06840F00100C5
:1023C0000B68D8601A4B086898421BD00868B0F1B7
:1023D000804F17D0174B0868984213D0164B0868E7
:1023E00098420FD0154B086898420BD0144B0868E0
:1023F000984207D0134B0868984203D0124B0868E4
:1024000098420CD10868806800F00702062A0CD0B8
:102410000868006840F001000B68186005E0086873
:10242000006840F001000B6818600020C0E7000061
:10243000000001400004004000080040000C004083
:10244000000401400040014000180040014600BF68
:102450000868006A41F21112104050B90868006A19
:102460009210104028B90868006820F001000A683E
:10247000106000BF012081F83D00002070472DE969
:10248000F04104460D46002700BF94F83C000128A7
:1024900002D10220BDE8F081012084F83C0000BF99
:1024A000022084F83D002068866826F0770626F42E
:1024B0007F46206886602868502833D00CDC2028AE
:1024C00050D004DC00284BD0102851D149E03028EE
:1024D00049D040284CD139E060282DD0702807D051
:1024E000B0F5805F03D0B0F5005F41D10DE041E071
:1024F000D5E902136A68206802F027FB2068866825
:1025000046F077062068866034E0D5E902136A68F1
:10251000206802F01AFB2068806840F4804021683F
:10252000886027E0EA686968206802F0FFFB5021B4
:10253000206802F015FB1DE0EA686968206802F077
:1025400008FC6021206802F00BFB13E0EA68696870
:10255000206802F0EBFB4021206802F001FB09E05B
:1025600000BF00BF00BF2968206802F0F9FA01E04F
:10257000012700BF00BF012084F83D0000BF0020FC
:1025800084F83C0000BF384684E72DE9F04104465A
:102590000D4614B90120BDE8F08194F83D0028B93A
:1025A000002084F83C00204600F054F8022084F813
:1025B0003D002068806844F20701884321688860F4
:1025C000211D206802F044FA2068D0F808802068B5
:1025D00086692068076A286840EA080840F20330E4
:1025E0008643A969A86840EA0120064340F60C40EA
:1025F00086434FF2F0008643E969E86840EA01202B
:10260000064328690001296A40EA0130064327F0A1
:10261000220727F088076969686840EA01100743C4
:102620002068C0F808802068866120680762012061
:1026300084F8460084F83E0001213F200155012026
:1026400084F8420043200155012084F83D00002019
:10265000A1E7000010B586B00446142101A8FDF7DB
:102660005BFE56492068884239D100BF00200090A7
:102670005348006840F0010051490860084600686E
:1026800000F00100009000BF00BF00BF00200090DC
:102690004B481438006840F010004949143908606C
:1026A0000846006800F01000009000BF00BF4FF423
:1026B00020600190022002900120039000200490ED
:1026C0000120059001A93F48FEF72CFD00220F21B3
:1026D0001A20FFF707F91A20FFF7F4F86CE02068DA
:1026E000B0F1804F32D100BF002000903448001F6D
:1026F000006840F001003249091F08600846006880
:1027000000F00100009000BF00BF00BF002000905B
:102710002B481438006840F001002949143908603A
:102720000846006800F00100009000BF00BF0320D1
:1027300001900220029001200390002004900120CB
:10274000059001A92048FEF7EDFC35E01F492068FF
:10275000884231D100BF002000901948001F006856
:1027600040F002001649091F08600846006800F0A2
:102770000200009000BF00BF00BF00200090104882
:102780001438006840F001000D491439086008460B
:10279000006800F00100009000BF00BFC020019061
:1027A0000220029001200390002004900220059056
:1027B00001A90548FEF7B6FC06B010BD00000140B7
:1027C0004438024000100240000002400004004073
:1027D0002DE9F04304460D4694F83E603F20075D26
:1027E00094F84280432010F804906DB9012E02D174
:1027F000B8F1010F02D00120BDE8F083022084F877
:102800003E0084F8420025E0042D0CD1012F02D1B6
:10281000B9F1010F01D00120EEE702213F2001555F
:102820004320015516E0012E07D1012F05D1B8F143
:10283000010F02D1B9F1010F01D00120DCE7022024
:1028400084F83E0002213F200155022084F8420016
:102850004320015515B1042D0CD105E001220021C2
:10286000206802F061F910E001220421206802F0E2
:102870005BF90AE001220021206802F055F90122EB
:102880000421206802F050F900BF00BF20680068F2
:1028900040F00100216808600020ADE7704710B5E6
:1028A000044620680069C0F34000D8B12068C068C1
:1028B000C0F34000B0B16FF0020021680861012050
:1028C00020772068806900F0030018B12046FFF7E8
:1028D000E5FF05E0204600F005F9204600F0B9F9D3
:1028E0000020207720680069C0F38000D8B12068FC
:1028F000C068C0F38000B0B16FF0040021680861C7
:10290000022020772068806900F4407018B12046CA
:10291000FFF7C4FF05E0204600F0E4F8204600F091
:1029200098F90020207720680069C0F3C000D8B172
:102930002068C068C0F3C000B0B16FF00800216823
:102940000861042020772068C06900F0030018B1F6
:102950002046FFF7A3FF05E0204600F0C3F820461D
:1029600000F077F90020207720680069C0F300109C
:10297000D8B12068C068C0F30010B0B16FF010008B
:1029800021680861082020772068C06900F4407041
:1029900018B12046FFF782FF05E0204600F0A2F8BC
:1029A000204600F056F9002020772068006900F0EA
:1029B000010058B12068C06800F0010030B16FF02C
:1029C000010021680861204600F0CAF9206800690A
:1029D000C0F3C01058B12068C068C0F3C01030B157
:1029E0006FF08000216808612046FFF77DFB2068BA
:1029F0000069C0F3801058B12068C068C0F380102F
:102A000030B16FF0400021680861204600F0B4F951
:102A100020680069C0F3401058B12068C068C0F356
:102A2000401030B16FF02000216808612046FFF7A8
:102A30005CFB10BD10B586B00446142101A8FDF75B
:102A40006BFC2349206888421ED100BF0020009003
:102A50002048006840F008001E49086008460068E9
:102A600000F00800009000BF00BF4FF4E04001906C
:102A7000022002900020039004900220059001A9FA
:102A80001548FEF74FFB20E01449206888421CD10E
:102A900000BF002000900F48006840F002000D4980
:102AA00008600846006800F00200009000BF00BF08
:102AB00088150190022002900020039004900320CA
:102AC000059001A90648FEF72DFB06B010BD0000D9
:102AD0000008004030380240000C02400044014031
:102AE0000004024070472DE9F04104460D461646A9
:102AF000002700BF94F83C00012802D10220BDE865
:102B0000F081012084F83C0000BF36B1042E1BD0B8
:102B1000082E31D00C2E5ED145E02946206802F007
:102B200029F82068806940F00800216888612068E1
:102B3000806920F004002168886120688069296923
:102B400008432168886148E02946206802F04AF875
:102B50002068806940F4006021688861206880698D
:102B600020F480602168886120688069296940EAD2
:102B700001202168886130E02946206802F070F861
:102B80002068C06940F008002168C8612068C069F9
:102B900020F004002168C8612068C06929690843E1
:102BA0002168C86119E02946206802F095F820687C
:102BB000C06940F400602168C8612068C06920F4E1
:102BC00080602168C8612068C069296940EA0120E5
:102BD0002168C86101E0012700BF00BF00BF0020DD
:102BE00084F83C0000BF384689E710B504460CB9AC
:102BF000012010BD94F83D0028B9002084F83C0065
:102C0000204600F025F8022084F83D00211D2068B0
:102C100001F01EFF012084F8460000BF84F83E004A
:102C200001213F200155402001554120015500BFA1
:102C300000BF012084F84200432001554420015583
:102C40004520015500BF012084F83D000020D0E759
:102C50007047704770B504460D4615B994F83E00AC
:102C60000BE0042D02D13F20005D06E0082D02D1CB
:102C70004020005D01E04120005D012801D00120DD
:102C800070BD1DB9022084F83E000EE0042D03D172
:102C900002213F20015508E0082D03D102214020E8
:102CA000015502E0022141200155012229462068F8
:102CB00001F03AFF23492068884203D02249206866
:102CC000884201D1012000E0002028B12068406C3A
:102CD00040F40040216848641A49206888421BD0AB
:102CE0002068B0F1804F17D018492068884213D06F
:102CF0001749206888420FD01649206888420BD0B7
:102D000011492068884207D013492068884203D0BF
:102D10001249206888420CD12068806800F00706BC
:102D2000062E0CD02068006840F001002168086081
:102D300005E02068006840F001002168086000207C
:102D40009EE7000000000140000401400004004034
:102D500000080040000C0040004001400018004006
:102D600010B5044603492068884201D1FEF706FDEC
:102D700010BD0000004801407047704770470000D8
:102D80002DE9F84F0446206805682068C668206869
:102D900047694FF00009CA4605F00F09B9F1000F65
:102DA0000AD105F0200038B106F0200020B12046FD
:102DB00002F0D6F8BDE8F88FB9F1000F7CD007F02B
:102DC000010018B906F49070002875D005F00100D4
:102DD00030B106F4807018B1206C40F0010020641E
:102DE00005F0040030B107F0010018B1206C40F08C
:102DF0000200206405F0020030B107F0010018B1B4
:102E0000206C40F00400206405F0080048B106F092
:102E1000200010B907F0010018B1206C40F0080044
:102E20002064206C002846D005F0200028B106F070
:102E3000200010B1204602F093F820684069C0F3EA
:102E4000801A206C00F0080010B9BAF1000F2DD0E4
:102E5000204602F02CF82068406900F0400040282D
:102E600020D100BF00BF2168143151E8001F21F0BC
:102E700040002168143141E80002002AF3D100BF6C
:102E8000A06B50B17548A16B0865A06BFDF7D4FE2F
:102E900088B1A06B016D88470DE02046FFF76EFFFB
:102EA00009E009E02046FFF769FF04E02046FFF74C
:102EB00065FF002020647DE7206B012876D105F0B6
:102EC0001000002872D006F010000028FAD000BFD1
:102ED0000020009020680068009020684068009002
:102EE00000BF00BF2068406900F0400040285ED16C
:102EF000A06B006840681FFA80F8B8F1000F54D04A
:102F0000A08D404551DDA4F82E80A06BC069B0F5BE
:102F1000807F43D000BF00BF21680C3151E8001F03
:102F200021F4807021680C3141E80002002AF3D1BD
:102F300000BF00BF00BF2168143151E8001F21F01D
:102F400001002168143141E80002002AF3D100BFDA
:102F500000BF00BF2168143151E8001F21F040007C
:102F60002168143141E80002002AF3D100BF20207B
:102F700084F83E000020206300BF00BF21680C31B0
:102F800051E8001F21F0100021680C3141E80002D7
:102F9000002AF3D100BFA06BFDF7F8FDA08DE28DF4
:102FA000801A81B22046FFF7E8FE03E740E0A08DDB
:102FB000E18D401A1FFA80F8E08DC0B3B8F1000F20
:102FC00035D000BF00BF21680C3151E8001F21F44B
:102FD000907021680C3141E80002002AF3D100BF53
:102FE00000BF00BF2168143151E8001F21F001002B
:102FF0002168143141E80002002AF3D100BF2020EB
:1030000084F83E000020206300BF00BF21680C311F
:1030100051E8001F21F0100021680C3141E8000246
:10302000002AF3D100BF41462046FFF7A6FEC1E6C5
:1030300005F0800030B106F0800018B1204602F0A3
:1030400089F9B7E605F0400030B106F0400018B14C
:10305000204601F062FFADE600BFABE67B4D000805
:1030600010B504460CB9012010BDA06900B100E004
:1030700000BF94F83D0028B9002084F83C002046A9
:1030800000F028F8242084F83D002068C06820F46F
:1030900000502168C860204601F0DEFF206800690A
:1030A00020F49040216808612068406920F02A00DF
:1030B000216848612068C06840F400502168C860F9
:1030C00000202064202084F83D0084F83E00002089
:1030D000CAE7000010B586B00446142101A8FDF728
:1030E0001BF92F492068884258D100BF002000906A
:1030F0002C48006840F010002A4908600846006823
:1031000000F01000009000BF00BF00BF0020009042
:1031100024481438006840F001002249143908603E
:103120000846006800F00100009000BF00BF4FF4A7
:10313000C0600190022002900020039003200490C0
:103140000720059001A91848FDF7ECFF174818491A
:1031500008604FF000604860002115488160C16040
:103160004FF480610161002141618161C1614FF4CF
:103170004031016200214162FDF792FE08B1FDF786
:1031800002FD00BF0A48A063846300BF002205213E
:103190002520FEF7A7FB2520FEF794FB06B010BD07
:1031A00000100140443802400000024040640240E8
:1031B0008004002070B504460D46164694F83E0083
:1031C000202816D105B10EB9012070BD00BF94F8BA
:1031D0003C00012801D10220F7E7012084F83C00DF
:1031E00000BF0020206332462946204602F04AF8FC
:1031F000EBE70220E9E7000010B504464F480078ED
:10320000A5287CD14D48007A5A2878D14C480078BE
:1032100000287CD14948407800EE100AB8EE400AF8
:10322000484880ED000A4548807800EE100AB8EE64
:10323000400A454880ED000A4048C07800EE100A78
:10324000B8EE400A414880ED000A3C480079404908
:1032500008703A4840793A490870384880793D49C1
:103260000870384890ED000ADFED3B0AB4EEE00A42
:10327000F1EE10FA07DD90ED000ADFED380A30EECE
:10328000200A80ED000A304890ED000ADFED320A96
:10329000B4EEE00AF1EE10FA07DD90ED000ADFED82
:1032A0002F0A30EE200A80ED000A284890ED000A2F
:1032B000DFED290AB4EEE00AF1EE10FA07DD90ED39
:1032C000000ADFED260A30EE200A80ED000A2148D0
:1032D000007860B19FED220A1B4880ED000A194872
:1032E00080ED000AB1EE000A184880ED000A1D4882
:1032F000007801281BD19FED1A0A1B4801E013E05A
:1033000005E080ED000A0020164908700FE00C4827
:10331000007801280BD1094800790D490870074849
:1033200040790749087002E0012009490870092224
:1033300002490E48FFF73EFF10BD00004801002083
:103340001C000020E4000020E8000020EC00002029
:10335000FC000020210100200000FE42000080C38C
:1033600000000000400100203C0100203C0400203F
:103370007047704700BFFEE7014608684069C0F328
:103380008020B0B16FF480600A685061002008634B
:10339000202081F83D00002081F83E00086C40F0BC
:1033A0000400086400BF002081F83C0000BF012039
:1033B00070470020FCE700002DE9F84304468846EA
:1033C00015469946DDE908672068006840F480707A
:1033D00021680860334600224FF001112046009713
:1033E00000F088F860B12068006800F48070B0F5E3
:1033F000807F02D14FF4007020640320BDE8F88381
:1034000008F0FE00216808613B463246214920460B
:1034100000F0B3F808B10120F0E700BF00200090F1
:1034200020684069009020688069009000BF00BF5C
:103430003A463146204600F002F950B1206C04288B
:1034400005D12068006840F4007021680860012000
:10345000D4E7B9F1010F03D1E8B22168086117E0A0
:10346000C5F30720216808613A463146204600F03E
:10347000E6F850B1206C042805D12068006840F4BB
:103480000070216808600120B8E7E8B2216808618F
:103490000020B3E70200010070B504460D46164651
:1034A00020E02046FFF768FF08B1012070BD681CCE
:1034B000C0B1FDF749FF801BA84200D895B9002094
:1034C0002063202084F83D00002084F83E00206C1A
:1034D00040F02000206400BF002084F83C0000BFC2
:1034E0000120E3E720684069C0F380000028D8D0BD
:1034F0000020DBE72DE9F04104460D4617461E4645
:10350000DDF818801CE0701CD0B1FDF71DFFA0EBAA
:103510000800B04200D89EB900202063202084F823
:103520003D00002084F83E00206C40F02000206424
:1035300000BF002084F83C0000BF0120BDE8F081FE
:10354000C5F3074001280AD120684069A9B20840A4
:10355000A9B2884201D101200BE0002009E02068D7
:103560008069A9B20840A9B2884201D1012000E0D7
:103570000020B842C7D00020E0E72DE9F041044622
:103580000D4616461F463DE020684069C0F3802086
:10359000E8B12068006840F40070216808606FF4AA
:1035A00080602168486100202063202084F83D006D
:1035B000002084F83E00206C40F00400206400BF2E
:1035C000002084F83C0000BF0120BDE8F081701CA1
:1035D000C0B1FDF7B9FEC01BB04200D896B90020BB
:1035E0002063202084F83D00002084F83E00206CF9
:1035F00040F02000206400BF002084F83C0000BFA1
:103600000120E2E7C5F3074001280AD1206840699C
:10361000A9B20840A9B2884201D101200BE00020E4
:1036200009E020688069A9B20840A9B2884201D1A6
:10363000012000E000200028A6D00020C5E770B5DA
:1036400004460D46164620E02046FFF795FE08B1D9
:10365000012070BD681CC0B1FDF776FE801BA8423A
:1036600000D895B900202063202084F83D00002078
:1036700084F83E00206C40F02000206400BF002051
:1036800084F83C0000BF0120E3E720684069C0F3F4
:10369000C0100028D8D00020DBE7000008B500BF2C
:1036A000002000900A48006840F480000849086043
:1036B0000846006800F48000009000BF00BF0022B0
:1036C00005213A20FEF70EF93A20FEF7FBF808BD77
:1036D0003038024010B50E4A00210E4802F028FD95
:1036E0000D4908600D4A00210D4802F021FD0D49E9
:1036F00008600D4A00210D4802F01AFD0C490860CF
:103700000C4A00210C4802F013FD0C49086010BD62
:10371000DC8D00082149000820000020008E0008F0
:103720001D44000824000020248E0008C553000812
:1037300028000020488E0008B53F00082C0000201B
:1037400000B587B0142102A8FCF7E6FD00BF0020F9
:1037500001905048006840F080004E4908600846DB
:10376000006800F08000019000BF00BF00BF002093
:1037700001900846006840F00400086008460068B0
:1037800000F00400019000BF00BF00BF00200190C6
:103790000846006840F0010008600846006800F034
:1037A0000100019000BF00BF00BF0020019008464B
:1037B000006840F0100008600846006800F0100043
:1037C000019000BF00BF00BF0020019008460068C4
:1037D00040F0020008600846006800F00200019016
:1037E00000BF00BF00BF002001900846006840F005
:1037F000080008600846006800F00800019000BF5B
:1038000000BF002205212448FDF798FD00224FF457
:1038100062412248FDF792FD00224FF4706120487A
:10382000FDF78CFD052002900120039000200490FC
:10383000059002A91848FDF775FC022002904FF48C
:10384000441003900020049002A91348FDF76AFC7D
:103850004FF46240029001200390002004900590F4
:1038600002A90E48FDF75EFC4FF470600290012043
:10387000039000200490059002A90948FDF752FC2E
:10388000002205210720FEF72DF80720FEF71AF881
:1038900007B000BD3038024000080240000402407A
:1038A000000C024010B50B480B4908600B484860FB
:1038B000002109488160C1604FF48041016100210D
:1038C00041618161C1610162FDF744FD08B1FDF70D
:1038D0005AF910BD0054004054010020A086010098
:1038E00010B50B480B4908600B4848600021094897
:1038F0008160C1604FF480410161002141618161BB
:10390000C1610162FDF726FD08B1FDF73CF910BD6C
:1039100000580040A8010020801A060000B587B0BA
:103920001C216846FCF7F8FC16481749086042F26B
:10393000CF00486000211448816040F28F11C160BF
:10394000002101618161FEF72BFC08B1FDF71BF935
:103950000D48FFF74AF908B1FDF715F9602000900E
:103960000020019002900490002269460648FFF76B
:10397000BAF808B1FDF707F90348FFF75BF807B09D
:1039800000BD000000440140F403002000B58BB0EE
:10399000242102A8FCF7C0FC0020009001901A48E6
:1039A0001A490860002048600021184881604FF6DD
:1039B000FF71C160002101614161816103200290BA
:1039C000002003900120049000200590062006901E
:1039D00000200790012008900020099006200A90FE
:1039E00002A90A48FEF7D1FD08B1FDF7CCF8002086
:1039F0000090019069460548FEF778FB08B1FDF795
:103A0000C2F80BB000BD000000000140FC01002026
:103A100000B58BB0242102A8FCF77EFC00200090AA
:103A200001904FF080401849086000204860002154
:103A300015488160491EC160002101618161032038
:103A400002900020039001200490002005900620A1
:103A50000690002007900120089000200990062081
:103A60000A9002A90848FEF790FD08B1FDF78BF80F
:103A700000200090019069460348FEF737FB08B12B
:103A8000FDF781F80BB000BD4402002000B58BB0FB
:103A9000242102A8FCF740FC002000900190194866
:103AA00019490860002048600021174881604FF6DE
:103AB000FF71C1600021016181610320029000203B
:103AC000039001200490002005900620069000201D
:103AD0000790012008900020099006200A9002A972
:103AE0000948FEF752FD08B1FDF74DF8002000909F
:103AF000019069460448FEF7F9FA08B1FDF743F86A
:103B00000BB000BD000400408C02002000B58DB059
:103B1000002009900A900B900C90079008901C21AF
:103B20006846FCF7F9FB28482849086001204860EE
:103B300000212648816042F2CF01C160002101616D
:103B40008161FEF72DFB08B1FDF71DF84FF48050A1
:103B5000099009A91D48FEF792FC08B1FDF713F87A
:103B60001A48FFF742F808B1FDF70DF8002007905A
:103B7000089007A91548FEF7B9FA08B1FDF703F850
:103B8000602000900020019002900490002269467D
:103B90000E48FEF7A8FF08B1FCF7F5FF04226946BE
:103BA0000A48FEF7A0FF08B1FCF7EDFF08226946BE
:103BB0000648FEF798FF08B1FCF7E5FF0348FEF75B
:103BC00039FF0DB000BD000000080040D402002005
:103BD0001CB50020009001900E480F490860A720F6
:103BE000486000210C4881604FF6FF71C1600021E0
:103BF0008161FEF7D5FA08B1FCF7C5FF00200090FF
:103C0000019069460448FEF771FA08B1FCF7BBFF62
:103C10001CBD0000001000401C0300201CB500204B
:103C2000009001900E480F490860A72048600021CD
:103C30000C4881604FF6FF71C16000218161FEF781
:103C4000AFFA08B1FCF79FFF002000900190694691
:103C50000448FEF74BFA08B1FCF795FF1CBD0000C5
:103C6000001400406403002000B587B000200390DA
:103C7000049005900690019002901548154908603F
:103C8000C720486000211348816044F29F11C16041
:103C90000021016141618161FEF782FA08B1FCF700
:103CA00072FF4FF48050039003A90A48FEF7E7FB28
:103CB00008B1FCF768FF00200190029001A90548B7
:103CC000FEF714FA08B1FCF75EFF07B000BD000074
:103CD00000040140AC03002010B50B480B490860FC
:103CE0004FF4E1304860002108488160C160016103
:103CF0000C21416100218161C161FFF7B1F908B177
:103D0000FCF741FF10BD0000001001403C04002002
:103D100000BFFEE710B52DED048BB0EE408AF0EE4B
:103D2000608AB0EE419AB1EE480ADFED710A08EE02
:103D3000A00AF2EE070A09EE200A6E4880ED000A9A
:103D4000B1EE680ADFED6C0A20EE200AF6EE000AFA
:103D500008EE200AF2EE070A09EE200A674880ED15
:103D6000000A9FED650A28EE800AF6EE000A08EECA
:103D7000200AF2EE070A09EE200A614880ED000AE7
:103D80005E4890ED000AB5EEC00AF1EE10FA0BDDC8
:103D900000224FF480415B48FDF7D0FA0122D103A5
:103DA0005848FDF7CBFA27E0544890ED000AB5EEED
:103DB000C00AF1EE10FA0BD2012291035148FDF72F
:103DC000BDFA00224FF400414E48FDF7B7FA13E068
:103DD0004A4890ED000AB5EEC00AF1EE10FA0BD198
:103DE00000224FF480414748FDF7A8FA00224FF423
:103DF00000414448FDF7A2FA414890ED000AB5EEB3
:103E0000C00AF1EE10FA0BDD00224FF480713E483B
:103E1000FDF794FA012251023B48FDF78FFA27E0A3
:103E2000374890ED000AB5EEC00AF1EE10FA0BD259
:103E3000012211023448FDF781FA00224FF400718B
:103E40003148FDF77BFA13E02D4890ED000AB5EEFE
:103E5000C00AF1EE10FA0BD100224FF480712A480B
:103E6000FDF76CFA00224FF400712748FDF766FA5F
:103E7000204890ED000AB5EEC00AF1EE10FA0BDD15
:103E800000224FF480612048FDF758FA0122D10248
:103E90001D48FDF753FA27E0164890ED000AB5EEED
:103EA000C00AF1EE10FA0BD2012291021648FDF77A
:103EB00045FA00224FF400611348FDF73FFA13E082
:103EC0000C4890ED000AB5EEC00AF1EE10FA0BD1E5
:103ED00000224FF480610C48FDF730FA00224FF4C5
:103EE00000610948FDF72AFABDEC048B10BD000003
:103EF00000000000F80000202DB25D3FF00000201F
:103F0000F400002000040240000C024010B5DFED78
:103F10001C0A9FED1C0A1C4A01211C4800F042FAB1
:103F2000DFED170A9FED170A194A0121194800F021
:103F300039FADFED130A9FED130A174A01211748DA
:103F400000F030FA00211648FEF784FE04211448E0
:103F5000FEF780FE08211248FEF77CFE3C21114846
:103F6000FEF736FC3C211048FEF732FC3C210F489E
:103F7000FEF72EFC012251030D48FDF7DFF910BDBD
:103F80000040834500400346C0000020FC4D002057
:103F9000CC000020444E0020D80000208C4E002091
:103FA000D4020020FC010020440200208C020020EA
:103FB0000004024008B500BF03F086FE009000BF79
:103FC0000E48007850B90A200D4909684863082353
:103FD0000CA20221002000F0A7F809E007480078B1
:103FE000012805D108230AA20221002000F09CF834
:103FF0004B21684603F08EF8E2E700001C00002029
:10400000F4030020424C55454D4F4F440000000042
:10401000556C74724D4F4F440000000000BFFEE726
:1040200070B5002415E004F1B001C8B200F09AF8B0
:10403000002000F097F8102000F094F8002504E02C
:10404000002000F0A3F8681CC5B2802DF8DB601CCE
:10405000C4B2082CE7DB70BD10B5C820FCF7E0FF48
:1040600001F042FA10BD70B504460D4605F1B001ED
:10407000C8B200F077F8102141EA141000F072F88D
:1040800004F00F0000F06EF870BD00002DE9F0475D
:1040900007460E469046994600250024A8F12000C8
:1040A000C5B27F2F02DD0027B01CC6B2B9F1100FD8
:1040B00022D131463846FFF7D6FF002407E004EB53
:1040C0000511174A505C00F061F8601CC4B2082C5E
:1040D000F5DB701CC1B23846FFF7C5FF002408E0CD
:1040E00004EB051108310E4A505C00F04FF8601CDB
:1040F000C4B2082CF4DB11E031463846FFF7B3FFB9
:10410000002409E005EB4501064A02EB4101085D88
:1041100000F03CF8601CC4B2062CF3DBBDE8F0876D
:104120007C830008548100082DE9F04104460F46C5
:104130001546984600260FE0AA5D434639462046BC
:10414000FFF7A4FF04F10800C4B2782C02DD0024BC
:10415000B81CC7B2701CC6B2A85D0028ECD1BDE87F
:10416000F081000001B584B04FF48070012104AAF1
:104170000B46CDE900210290002278210248FDF78C
:10418000D1F905B000BD00005401002001B584B094
:104190004FF48070012104AA0B46CDE90021029062
:1041A000402278210248FDF7BDF905B000BD0000AE
:1041B00054010020B0EE401A10B99FED790A704703
:1041C00090ED100A80ED110A90ED0F0A80ED100AB3
:1041D000C0ED060A80ED071A30EEC10A80ED0F0A25
:1041E0000178002975D190ED010AD0ED0F1A20EE6B
:1041F000210A80ED090A90ED0A0AD0ED021A90ED2D
:104200000F2A01EE820A80ED0A0A90ED0D0A80ED78
:104210000E0A90ED0C0A80ED0D0A90ED0F0AD0ED1C
:10422000101A30EE610A80ED0C0A90ED030AD0ED11
:104230000C1A20EE210A80ED0B0A90ED0A0AD0ED4F
:10424000051AB4EEE10AF1EE10FA04DD90ED050A6C
:1042500080ED0A0A10E090ED0A0AD0ED051AF1EEA1
:10426000611AB4EEE10AF1EE10FA05D290ED050AFA
:10427000B1EE400A80ED0A0A90ED090AD0ED0A1A63
:1042800030EE210AD0ED0B1A30EE210A80ED080A3B
:1042900090ED080AD0ED041AB4EEE10AF1EE10FA3E
:1042A00004DD90ED040A80ED080A76E090ED080A3E
:1042B000D0ED041AF1EE611AB4EEE10AF1EE10FA53
:1042C0006BD290ED040AB1EE400A80ED080A64E07A
:1042D000FFE70178012960D190ED0F0AD0ED101AA7
:1042E00030EE610AD0ED011A20EE210A80ED090AB4
:1042F00090ED020AD0ED0F1A20EE210A80ED0A0A95
:1043000090ED0D0A80ED0E0A90ED0C0A80ED0D0A7D
:1043100090ED0F0AD0ED101AB0EE002A02EE610AFD
:10432000D0ED111A30EE210A80ED0C0A90ED030A4F
:10433000D0ED0C1A20EE210A80ED0B0A90ED090A4F
:10434000D0ED0A1A30EE210AD0ED0B1A30EE210A18
:10435000D0ED081A30EE210A80ED080A90ED080A27
:10436000D0ED041AB4EEE10AF1EE10FA04DD90ED9E
:10437000040A80ED080A10E090ED080AD0ED041A56
:10438000F1EE611AB4EEE10AF1EE10FA05D290ED09
:10439000040AB1EE400A80ED080A90ED080A0EE723
:1043A0000000000000B102B97047017092ED001AE0
:1043B00080ED011A92ED011A80ED021A92ED021AB7
:1043C00080ED031A80ED040AC0ED050A9FED0C1A7A
:1043D00080ED0E1A80ED0D1A80ED0C1A9FED081A73
:1043E00080ED081A80ED0B1A80ED0A1A80ED091A8B
:1043F00080ED111A80ED101A80ED0F1A00BFD3E77F
:1044000000000000B5EEC00AF1EE10FA00DD03E096
:10441000F1EE400AB0EE600A7047000008B500BF38
:1044200003F052FC009000BF084890ED001A0848C5
:10443000D0ED000A074890ED000AFFF76BFC00F092
:1044400015F93221684602F065FEEDE7EC00002028
:10445000E8000020E400002000EE900AB8EE601AA8
:10446000DFED351AC1EE210A9FED341A60EE810AA4
:10447000B2EE071A60EE810A9FED311A60EE810AF2
:10448000B0EE600A2F49D1ED000A2F4991ED001AD4
:10449000DFED2E1A41EE210A2A49C1ED000A2C490E
:1044A000D1ED000A2B4991ED001ADFED281A41EEFB
:1044B000210A2749C1ED000A2749D1ED000A274901
:1044C00091ED001ADFED211A41EE210A2249C1EDDA
:1044D000000A1C49D1ED000AF4EEC00AF1EE10FA10
:1044E00026DD1B49D1ED000AF4EEC00AF1EE10FA08
:1044F0001EDD1949D1ED000AF4EEC00AF1EE10FA02
:1045000016DDDFED170AC1ED000A1149C1ED000A01
:104510000C49C1ED000A0020DFED110A1149C1ED7F
:10452000000A1149C1ED000A1049C1ED000A02E07C
:1045300000210F4A1170704700003443F90F4940C1
:104540009A99D93F2401002014010020CDCC4C3D84
:1045500028010020180100202C0100201C0100204F
:1045600000000000EC000020E8000020E400002033
:10457000FC00002010B500210348FEF76BFB0A2069
:1045800001490968486310BDF403002010B52DED02
:10459000068B00249FED2D0AB0EE408A0A202C499C
:1045A000088011E02A4800882A49096848631420D5
:1045B00002F082FD02F0E6FB782002F07DFD244847
:1045C0000088401C22490880214800883328E9DB04
:1045D000214890ED000AB0EE408A002423E01E48F6
:1045E00000EB840090ED000AB4EEC80AF1EE10FA78
:1045F00017D2194800EB840090ED000AB0EE408A13
:104600002046FCF72DF841EC1A0B9FED140B53ECF0
:10461000102BFBF733FF41EC190BFCF75AF811494B
:104620000860601C84B2292CD9DB0E4890ED000A8A
:10463000B5EEC00AF1EE10FA04D0FCF7FFF9012044
:1046400009490870BDEC068B10BD00000000000099
:1046500038010020F4030020D44E002000000000A8
:10466000000012403C0100204001002010B52DED5B
:104670000A8B8E480068406A00B28D4908808D48D8
:104680000068406A00B28C4908808C480068406A23
:1046900000B28B4908800020844909684862854936
:1046A000096848628549096848628148B0F9000094
:1046B000FBF7C5FF41EC1C0B9FED820B53EC102B5D
:1046C000FBF74EFF41EC1B0B9FED800B53EC102BC7
:1046D000FBF746FF41EC1A0B9FED7E0B53EC102BC2
:1046E000FBF7CCFE41EC190B9FED7C0B53EC102B30
:1046F000FBF7C4FE41EC180BFBF7EBFF79490860B0
:104700006D48B0F90000FBF79AFF41EC1C0B9FEDE0
:104710006D0B53EC102BFBF723FF41EC1B0B9FEDB4
:104720006B0B53EC102BFBF71BFF41EC1A0B9FEDAF
:10473000690B53EC102BFBF7A1FE41EC190B9FED1D
:10474000670B53EC102BFBF799FE41EC180BFBF7B2
:10475000C0FF654908605A48B0F90000FBF76FFFD9
:1047600041EC1C0B9FED570B53EC102BFBF7F8FEA5
:1047700041EC180B9FED550B53EC102BFBF7F0FEA3
:1047800041EC1B0B9FED530B53EC102BFBF776FE0C
:1047900041EC1A0B9FED510B53EC102BFBF76EFE07
:1047A00041EC190BFBF795FF504908605048007821
:1047B00018B14F480078FFF74FFE4E4890ED000AC1
:1047C000FFF720FEF0EE408A464890ED000AFFF722
:1047D00019FEB0EE409AF0EE680A4748FFF7EAFC8F
:1047E000B0EE408AFFF70EFEBDEEC00A434880EDF2
:1047F000000A434890ED000AFFF704FEF0EE408AFD
:10480000394890ED000AFFF7FDFDB0EE409AF0EE5A
:10481000680A3C48FFF7CEFCB0EE408AFFF7F2FD95
:10482000BDEEC00A384880ED000A384890ED000A15
:10483000FFF7E8FDF0EE408A2C4890ED000AFFF704
:10484000E1FDB0EE409AF0EE680A3148FFF7B2FCA5
:10485000B0EE408AFFF7D6FDBDEEC00A2D4880EDD0
:10486000000A2D48007801280AD100202B49096848
:1048700048632A490968886328490968C86311E0C0
:104880002548007870B91D480068244909684863C4
:104890001D4800682149096888631E4800681F494F
:1048A0000968C863BDEC0A8B10BD0000FC01002044
:1048B0000C010020440200200E0100208C02002088
:1048C000100100209A9999999999A93F9A999999D3
:1048D00099498D4000000020FF21094000000000A0
:1048E00000002C4014010020180100201C010020B1
:1048F00021010020F0000020FC4D002000010020DC
:10490000F4000020444E002004010020F8000020A4
:104910008C4E002008010020FC000020D402002062
:1049200008B500BF03F0D0F9009000BF0121044892
:10493000FCF7FAFC4FF47A71684602F0EBFBF5E7FE
:104940000008024010B54FF0E020006903F0ACF918
:10495000012801D002F0F6FD10BD000000B593B0B3
:10496000302107A8FBF7D8FC142102A8FBF7D4FCE0
:1049700000BF002001902548006840F08050234986
:1049800008600846006800F08050019000BF00BF3A
:1049900000BF002001901E48006840F480401C4980
:1049A00008600846006800F48040019000BF00BF26
:1049B0000220079001200A9010200B9002200D90F9
:1049C00000210E9108210F91A8211091022111912F
:1049D0000421129107A8FDF739F908B1FCF7D3F8C3
:1049E0000F20029002200390002004904FF4A0506A
:1049F00005904FF480500690052102A8FCF7C4FFF3
:104A000008B1FCF7C0F813B000BD00004038024008
:104A1000007000400348006840F4700001490860DD
:104A20007047000088ED00E010B50348FDF737FF40
:104A30000248FDF734FF10BDFC010020E004002017
:104A400010B50248FDF72BFF10BD0000AC0300209D
:104A500010B50268294B98420ED0B0F1804F0BD0B0
:104A6000274B984208D0274B984205D0264B9842B6
:104A700002D0264B984203D122F070024B681A43B1
:104A80001E4B984220D0B0F1804F1DD01C4B984255
:104A90001AD01C4B984217D01B4B984214D01B4B7A
:104AA000984211D01A4B98420ED01A4B98420BD014
:104AB000194B984208D0194B984205D0184B984290
:104AC00002D0184B984203D122F44072CB681A43AB
:104AD00022F080034C6943EA040202608B68C362DF
:104AE0000B688362054B984202D0084B984201D173
:104AF0000B6903630123436110BD00000000014006
:104B00000004004000080040000C00400004014088
:104B100000400140004401400048014000180040AE
:104B2000001C00400020004030B501F01F050124AA
:104B300004FA05F3046A9C430462046A01F01F0549
:104B400002FA05F52C43046230BD30B50C4681688D
:104B500021F47F4142EA032525432943816030BD8A
:104B60000A46816821F0700142F007031943816011
:104B70007047000030B5056A25F001050562026A3C
:104B80004368846924F0700424F003040D682C4306
:104B900022F002028D682A43104DA84200D103E0A2
:104BA0000F4DA84206D100BF22F00802CD682A436B
:104BB00022F00402094DA84202D0094DA84207D1B3
:104BC00023F4807323F400734D692B438D692B43C9
:104BD000436084614D684563026230BD000001405E
:104BE0000004014030B5056A25F010050562026A2F
:104BF0004368846924F4E04424F440740D6844EA72
:104C0000052422F020028D6842EA0512124DA842C6
:104C100000D103E0114DA84207D100BF22F080026D
:104C2000CD6842EA051222F040020B4DA84202D0A4
:104C30000A4DA84209D123F4806323F400634D692F
:104C400043EA85038D6943EA8503436084614D68C7
:104C50008563026230BD0000000001400004014095
:104C600030B5056A25F480750562026A4368C46937
:104C700024F0700424F003040D682C4322F4007225
:104C80008D6842EA0522124DA84200D103E0114D81
:104C9000A84207D100BF22F40062CD6842EA052293
:104CA00022F480620A4DA84202D00A4DA84209D1DE
:104CB00023F4805323F400534D6943EA05138D69AF
:104CC00043EA05134360C4614D68C563026230BDA9
:104CD000000001400004014030B5056A25F480550C
:104CE0000562036A4468C26922F4E04222F4407219
:104CF0000D6842EA052223F400538D6843EA053328
:104D0000084DA84202D0084DA84204D124F48044A2
:104D10004D6944EA85144460C2614D6805640362CC
:104D200030BD0000000001400004014030B50B46DA
:104D30001446026A056A25F001050562816921F0C1
:104D4000F00141EA041122F00A021A438161026271
:104D500030BD30B50B461446056A25F010050562D6
:104D60008169026A21F4704141EA043122F0A00213
:104D700042EA03128161026230BD70B50546AC6B38
:104D80000020E085E0842046FDF7F8FF70BD70B597
:104D900006460025B46B20684069C0F3C01594F83E
:104DA0003D00212805D125B10020E084204600F0F7
:104DB000C4F820684069C0F3801594F83E002228AA
:104DC00005D125B10020E085204600F070F8206C68
:104DD00040F0100020642046FDF7D0FF70BD70B594
:104DE0000546AC6B2868006800F48070002842D14A
:104DF000E08500BF00BF21680C3151E8001F21F49D
:104E0000807021680C3141E80002002AF3D100BF14
:104E100000BF00BF2168143151E8001F21F00100DC
:104E20002168143141E80002002AF3D100BF00BF1D
:104E300000BF2168143151E8001F21F040002168B3
:104E4000143141E80002002AF3D100BF202084F889
:104E50003E00206B01280ED100BF00BF21680C313D
:104E600051E8001F21F0100021680C3141E80002D8
:104E7000002AF3D100BF206B012804D1A18D204668
:104E8000FDF77BFF02E02046FEF7B6F970BD70B576
:104E90000546AC6B206B012805D1A08D410820464A
:104EA000FDF76BFF02E02046FEF762FA70BD00BF1F
:104EB00000BF02680C3252E8002F22F490710268A1
:104EC0000C3242E80013002BF3D100BF00BF00BF3B
:104ED0000268143252E8002F22F0010102681432F5
:104EE00042E80013002BF3D100BF016B01290ED162
:104EF00000BF00BF02680C3252E8002F22F0100100
:104F000002680C3242E80013002BF3D100BF2021CD
:104F100080F83E1000210163704710B504462068F8
:104F2000C06820F040002168C860202084F83D005F
:104F30002046FEF71EFA002010BD00BF00BF026829
:104F40000C3252E8002F22F0C00102680C3242E815
:104F50000013002BF3D100BF202180F83D107047D3
:104F6000F8B5044694F83E00222873D1A068B0F545
:104F7000805F0CD1206950B90025A66A206840687E
:104F8000C0F308003080A06A801CA06215E0A56A0A
:104F90000026A068B0F5805F03D0A06828B920691A
:104FA00018B920684068287004E02068406800F064
:104FB0007F002870A06A401CA062E08D401E80B275
:104FC000E085002844D12068C06820F020002168D6
:104FD000C8602068C06820F480702168C8602068BC
:104FE000406920F0010021684861202084F83E00DB
:104FF000206B012826D10020206300BF00BF21685C
:105000000C3151E8001F21F0100021680C3141E8FB
:105010000002002AF3D100BF2068006800F01000F1
:1050200010280AD100BF002000902068006800907E
:1050300020684068009000BF00BFA18D2046FDF7AA
:105040009CFE02E02046FEF7D7F80020F8BD01E004
:105050000020FBE70220F9E72DE9F84F044620681D
:10506000006920F44050E168084321680861216923
:10507000A068084361690843E1690843009020681B
:10508000C06849F20C618843009908432168C860F0
:105090002068406920F44070A16908432168486194
:1050A00076492068884203D075492068884203D138
:1050B000FCF764FD814602E0FCF750FD8146E069A3
:1050C000B0F5004F6CD102206168A0FB015003468F
:1050D0001920A9FB007001462A463846FBF7D2F892
:1050E0006421B0FBF1F04FEA001A02206168A0FBD6
:1050F00001510B461920A9FB00712A463846FBF7DF
:10510000C1F8834602206168A0FB015003461920C4
:10511000A9FB00712A463846FBF7B4F86421B0FBBE
:10512000F1F000EBC00101EB0010ABEB800032218D
:1051300001EBC0006421B0FBF1F000F0F8000AEBD5
:10514000400A02206168A0FB015003461920A9FB18
:10515000007001462A463846FBF794F88346022041
:105160006168A0FB015003461920A9FB00712A4683
:105170003846FBF787F86421B0FBF1F000EBC00183
:1051800001EB0010ABEB8000322101EBC000642189
:10519000B0FBF1F000F007005044216888606AE03D
:1051A00004206168A0FB015003461920A9FB007090
:1051B00001462A463846FBF765F8824604206168B6
:1051C000A0FB015003461920A9FB007001462A46A6
:1051D0003846FBF757F86421B0FBF1F000EBC00153
:1051E00001EB0010AAEB8000322101EB00106421DA
:1051F000B0FBF1F000F0F00A04206168A0FB017040
:1052000003461920A9FB00513A462846FBF73AF815
:105210006421B0FBF1F00AEB001A04206168A0FBE6
:1052200001510B461920A9FB00712A463846FBF7AD
:1052300029F8834604206168A0FB01500346192029
:10524000A9FB007001462A463846FBF71BF864218B
:10525000B0FBF1F000EBC00101EB0010ABEB800004
:10526000322101EB00106421B0FBF1F000F00F00DF
:10527000504421688860BDE8F88F000000100140AC
:105280000014014077B581B0044615460298A0622B
:10529000A58500202064222084F83E002A48A16BC6
:1052A000C8632A48A16B08642948A16BC864002020
:1052B000A16B086502AE32682368191D2B46A06BEE
:1052C000FBF764FE00BF002000902068006800909B
:1052D00020684068009000BF00BF00BF002084F835
:1052E0003C0000BF206970B100BF00BF21680C31D5
:1052F00051E8001F41F4807021680C3141E8000240
:10530000002AF3D100BF00BF00BF2168143151E86B
:10531000001F41F001002168143141E80002002A19
:10532000F3D100BF00BF00BF2168143151E8001F56
:1053300041F040002168143141E80002002AF3D115
:1053400000BF002004B070BDDF4D00088F4E000884
:105350008F4D0008014691F83D00212828D188682A
:10536000B0F5805F0BD1086948B90A6A1088C0F3AC
:1053700008000B685860086A801C086205E00B6A28
:10538000581C086218780B685860C88C401E80B2A0
:10539000C88458B90868C06820F080000B68D860DD
:1053A0000868C06840F040000B68D8600020704773
:1053B0000220FCE710B50248FDF7E2FC10BD00003A
:1053C0003C04002008B500BF02F07EFC009000BF46
:1053D00005480078012801D100F008F8322168461C
:1053E00001F098FEF4E700001C00002010B52DED40
:1053F000048B3148007801285BD13048007858B9D7
:105400002D480078012807D19FED2D0A2D4880ED09
:10541000000AFFF7BBF84CE028480078012848D183
:1054200025480078012844D126480068FBF73EF95A
:1054300041EC190B9FED240B53EC102BFBF790F86C
:1054400041EC180BFBF719F9C0B20A302049096882
:105450004863142001F030FE01F094FC194991EDED
:10546000000ABCEEC00A10EE101A88B29FED190AAD
:10547000FBF76CFA184890ED000AF2EE0E0AB4EE53
:10548000E00AF1EE10FA14D2FBF7D8FA9FED0C0AFD
:10549000124880ED000A124880ED000A00200749FA
:1054A00008709FED070A074880ED000A00200249B6
:1054B0000870BDEC048B10BD1C00002040010020D2
:1054C000000000003C01002000000000000012402D
:1054D000F40300200000484234010020E8000020CE
:1054E000E400002000BFFEE73EB5002400BF0FE04F
:1054F0004FF480710122084820441346CDE9012170
:105500000090002278210548FCF70CF8601CC4B21A
:105510001B2CEDDB3EBD00000000002054010020EC
:1055200003B401984100009850EAC12018BF04203C
:105530004A0D18BF40F0010040F2FF72B2EB515F1C
:1055400008BF40F00200012808BF052002B07047E4
:1055500002480068C0F30220704700000CED00E034
:1055600010B5002804DB0A07130E054A135406E0A1
:105570000A07140E034A00F00F031B1FD45410BD7A
:1055800000E400E018ED00E0EFF305807047000054
:1055900010B52F499FED2C1B2DED020B84B0059803
:1055A00020F000408842D8BF9DED040B2DDD294935
:1055B000884209D1049840B94FF0010000F0D4FCB2
:1055C00000F0A2FC06B010BD05DB9DED040B00F061
:1055D0008FFC06B010BD68469DED040B00F0A0F8EE
:1055E00010F0030004BF9DED021B9DED000B0CD0DD
:1055F00001280ED09DED021B9DED000B022817D057
:10560000012000F0DDFB06B010BD00F0A5FA06B0E9
:1056100010BD9DED021B9DED000B012000F0D0FBA5
:1056200051EC100B81F0004106B041EC100B10BDA5
:1056300000F092FA51EC100B81F0004106B041EC01
:10564000100B10BD00000000000000000000000072
:10565000FB21E93F0000F07F10B52F499FED2C1B87
:105660002DED020B84B0059820F000408842DCBF8D
:1056700000209DED040B32DD2849884209D10498B1
:1056800040B94FF0010000F06FFC00F03DFC06B0A7
:1056900010BD05DB9DED040B00F02AFC06B010BD2B
:1056A00068469DED040B00F03BF810F0030011D0AC
:1056B000012818D09DED021B9DED000B02281AD089
:1056C00000F04AFA51EC100B81F0004106B041ECB9
:1056D000100B10BD9DED021B9DED000B012000F095
:1056E0006FFB06B010BD9DED021B9DED000B00F0A1
:1056F00033FA06B010BD012000F062FB51EC100B34
:1057000081F0004106B041EC100B10BD000000001C
:105710000000000000000000FB21E93F0000F07FD6
:105720002DE9F14F04462DED020B2DED088B8AB0CB
:105730009FEDE70B80ED020B139EE74826F0004536
:1057400085420ADC9DED120B002084ED000B0AB0AF
:10575000BDEC088B03B0BDE8F08FE0489FEDE0ABF7
:105760009FEDE1BBA84247DDE14F9FEDE39B9FED3D
:10577000E48B9DED120B53EC1A2B51EC100B002E09
:105780001CDDFAF775FE41EC100BBD4208D053EC5E
:105790001B2B51EC100BFAF76BFEC4E900010BE078
:1057A00053EC192B51EC100BFAF762FE53EC182B4B
:1057B000FAF75EFEC4E900010120C8E7FAF7B7FD79
:1057C00041EC100BBD4208D053EC1B2B51EC100BDD
:1057D000FAF7ADFDC4E900010BE053EC192B51ECD5
:1057E000100BFAF7A4FD53EC182BFAF7A0FDC4E94F
:1057F00000014FF0FF30AAE7C348A84279DB9DEDD6
:10580000120B51EC100B00F0DFFB41EC180B9FED7D
:10581000C00B53EC102BFAF731FE9FEDBF1B53EC7E
:10582000112BFAF784FDFBF747F80746FAF707FF55
:1058300041EC190B53EC1A2BFAF720FE53EC182B02
:10584000FAF719FE41EC180B53EC1B2B51EC190B1A
:10585000FAF714FEDFF8C8A241EC100B4FEA155816
:105860000125FA4453EC102B51EC180BFAF700FE0B
:10587000032DC4E900013DD0C1F30A5005EB4511E9
:10588000A8EB00001139814234DA0AEB051BB0EEB7
:1058900048AA9BED000BF0EE68AA53EC102B51ECDC
:1058A000190BFAF7EBFD41EC1B0B51EC1A0B53EC07
:1058B0001B2BFAF7DDFD41EC180B51EC1A0B53ECE6
:1058C000182BFAF7D5FD53EC1B2BFAF7D1FD9BED06
:1058D000020B41EC1A0B53EC102B51EC190BFAF79D
:1058E000CDFD53EC1A2BFAF7C3FD41EC100B6D1CE8
:1058F000B8E70EE0002EA8BF3846BFF628AF94EDFB
:10590000000B51EC100B81F00041C4E9000178421A
:105910001DE7C6F3130040F4801EC6F30A50A0F240
:10592000F530471100F01F05C5F12000DDF848B043
:1059300008900020069007900520EC467949002D3C
:1059400007EB0002794408BF51F8221009D051F842
:10595000223001EB8201AB404A68089922FA01F13A
:105960001943A1FB0E26A1FB0B131A449A4234BF24
:105970000123002303EB06080CEB8003D3E901A607
:105980000E448E4234BF0121002192448A4411B159
:10599000924502D903E0924501D2012100E00021A5
:1059A000C3E901A641444CF82010011EA0F10100FA
:1059B000C4DC029800F10050850F0298DDE903670E
:1059C0008000DDF81480FAF73AFE41EC1A0B3046FD
:1059D000FAF746FE9FED541B53EC112BFAF74EFDE0
:1059E00041EC1B0B3846FAF73BFE9FED511B53EC85
:1059F000112BFAF743FD41EC180B4046FAF730FE45
:105A00009FED4D1B53EC112BFAF738FD41EC190BB0
:105A100051EC180B53EC192BFAF789FC53EC1B2BA8
:105A2000FAF785FC53EC1A2BFAF781FCCDE9080153
:105A3000002008909DED080B53EC1A2B51EC100B35
:105A4000FAF716FD53EC1B2BFAF712FD53EC182B4B
:105A5000FAF70EFD53EC192BFAF70DFD9FED381BED
:105A600053EC112BFAF70AFD9FED370B41EC180BA5
:105A700053EC102B9DED080B51EC100BFAF7FEFCCC
:105A800053EC182BFAF753FC9FED310B41EC180B3C
:105A900053EC102B9DED080B51EC100BFAF7EEFCBC
:105AA00053EC182BFAF743FC41EC100B139810F051
:105AB000004F06D06D4251EC100B81F0004141ECDB
:105AC000100B284684ED000B41E6000000000000AA
:105AD0000000000000000000FB21E93F7CD90240EB
