:020000040800F2
:10000000384300207D020008F11D0008851D00080E
:10001000ED1D0008451900083F35000800000000EC
:10002000000000000000000000000000E5010008E2
:10003000491900080000000029020008052B0008EB
:10004000970200089702000897020008970200082C
:10005000970200089702000897020008970200081C
:10006000970200089702000897020008970200080C
:1000700097020008970200089702000897020008FC
:1000800097020008970200089702000897020008EC
:1000900097020008970200089702000897020008DC
:1000A00097020008970200089702000897020008CC
:1000B00097020008970200089702000897020008BC
:1000C00097020008970200089702000897020008AC
:1000D0009702000897020008AD3200089702000856
:1000E00097020008970200089702000800F002F843
:1000F00000F068F80AA090E8000C82448344AAF15A
:100100000107DA4501D100F05DF8AFF2090EBAE857
:100110000F0013F0010F18BFFB1A43F0010318473B
:1001200034980000549800000A444FF0000C10F876
:10013000013B13F0070408BF10F8014B1D1108BF65
:1001400010F8015B641E05D010F8016B641E01F805
:10015000016BF9D113F0080F1EBF10F8014BAD1C55
:100160000C1B09D16D1E58BF01F801CBFAD505E073
:1001700014F8016B01F8016B6D1EF9D59142D6D3CD
:10018000704700000023002400250026103A28BFF5
:1001900078C1FBD8520728BF30C148BF0B607047F9
:1001A0001FB500F0BFFA04000020002107F0F2FBA9
:1001B000401C60600020002107F0D6FBE0601FBDFE
:1001C00010B510BD00F088FA1146FFF7E9FF04F002
:1001D0002FF800F0A7FD03B4FFF7F2FF03BC00F017
:1001E000ABFD0000224B19680868B0E8F00F80F3FF
:1001F0000988BFF36F8F4FF0000080F311884EF035
:100200000D0E70470000000006480068006880F38B
:10021000088862B661B6BFF34F8FBFF36F8F00DF00
:1002200000BF00BF08ED00E0EFF30980BFF36F8F60
:100230000F4B1A6820E9F00F106008B54FF050001E
:1002400080F31188BFF34F8FBFF36F8F06F038FE36
:100250004FF0000080F31188BDE808401968086875
:10026000B0E8F00F80F30988BFF36F8F704700BFCD
:1002700070000020EFF305807047000009488047B8
:1002800009480047FEE7FEE7FEE7FEE7FEE7FEE778
:10029000FEE7FEE7FEE7FEE704480549054A064B90
:1002A00070470000152B0008ED000008383D0020C5
:1002B00038430020383F0020383F002070B5064604
:1002C00000F0BAF80468054630460A22002100F022
:1002D00015F92C6070BD032A40F2308010F0030C39
:1002E00000F0158011F8013BBCF1020F624498BF89
:1002F00011F801CB00F8013B38BF11F8013BA2F126
:10030000040298BF00F801CB38BF00F8013B11F0A0
:10031000030300F02B81083AC0F0088051F8043B39
:10032000083A51F804CBA0E80810F5E7121D5CBFAD
:1003300051F8043B40F8043BAFF30080D20724BFE0
:1003400011F8013B11F801CB48BF11F8012B24BF74
:1003500000F8013B00F801CB48BF00F8012B7047C3
:100360004FF0000200B5134694469646203922BF4E
:10037000A0E80C50A0E80C50B1F12001BFF4F7AF99
:10038000090728BFA0E80C5048BF0CC05DF804EB7B
:10039000890028BF40F8042B08BF704748BF20F8E9
:1003A000022B11F0804F18BF00F8012B704700009E
:1003B0004FF0013C50F8042B51F8043B9A4221D1F4
:1003C000A2EB0C03934313EACC1317D150F8042B80
:1003D00051F8043B9A4215D1A2EB0C03934313EA64
:1003E000CC130BD150F8042B51F8043B9A4209D19D
:1003F000A2EB0C03934313EACC13DBD04FF00000C5
:10040000704700BFD01A01BAB1FA81F101F01801AA
:1004100022FA01F0CB40C1F12001DBB2C0B2C01A18
:100420002CFA01F3D11A914311EAC311E6D17047B6
:10043000704770477047000000487047D83C002064
:1004400010B5FFF7F9FF006810BD10B50446FFF7BF
:10045000F3FF046010BD00000FB4002300B589B0A5
:100460000CA900910B99CB60214B7B440693214B47
:100470007B44079304236FF00042CDE901321E4A0A
:100480007A446B4608920246002008F05BFC09B0F3
:100490005DF814FB70B506464FF0FF3015460C466C
:1004A000324686B00091CDE90101694600200490F2
:1004B00004A8FFF7D1FF02460498211825B108B11E
:1004C000084600E020462860049800280DD0002A45
:1004D00002DD0098884208D03246081B6946009425
:1004E000CDE9010404A8FFF7B7FF06B070BD000016
:1004F0008D010000A5010000650100002DE9F04715
:1005000091460F4680460446002614F8015B2DB143
:1005100000F062F80068405DC007F6D12B2D02D0D4
:100520002D2D18D0641E4A463946204600F085F825
:1005300027B13968A14201D1C7F800804FF0020409
:1005400071050BD54042002803DDFFF775FF0460FD
:10055000A007BDE8F08746F48066E4E70028F8DAF3
:10056000FFF76AFF04606FF00040F2E710B5203A31
:10057000C0F00B80B1E81850203AA0E81850B1E85C
:100580001850A0E81850BFF4F5AF5FEA027C24BF12
:10059000B1E81850A0E8185044BF18C918C0BDE809
:1005A00010405FEA827C24BF51F8043B40F8043BD2
:1005B00008BF7047D20728BF31F8023B48BF11F887
:1005C000012B28BF20F8023B48BF00F8012B7047E1
:1005D00000487047D83C002010B500F0A3F8001D7B
:1005E00010BD00BFB173000010B50446FFF7F4FF63
:1005F0000068005D00F0010010BD426842B1016872
:1006000011F8013B23B1521EC0E900121846704791
:100610000121C160881E704742685AB1C3680168F1
:1006200043B983688B4205D0491E521CC0E90012B1
:10063000002070474FF0FF3070472DE9F05F824691
:1006400015468B4600270AF10104B9460078302888
:1006500001D09DB113E014F8010B0127782803D0D5
:10066000582801D045B10AE00DB1102D07D100275F
:1006700014F8010B102502E0082500E00A250026E9
:10068000B0460EE005FB080005FB06F101271FFA46
:1006900080F801EB1046B6F5803F00D3B94614F858
:1006A000010B294600F042F80028EBDABBF1000FFD
:1006B00005D00FB1641E00E05446CBF80040B9F1FC
:1006C000000F06D0FFF7B8FE02210160C81EBDE88A
:1006D000F09F48EA0640FAE77546FFF779FFAE4615
:1006E00005006946534620F00700854618B020B53E
:1006F000FFF7D2FDBDE820404FF000064FF00007A5
:100700004FF000084FF0000B21F00701AC46ACE8B9
:10071000C009ACE8C009ACE8C009ACE8C0098D4626
:100720007047000000487047F83C00203A2800D28B
:10073000303820F02002412A01D3A2F1370088424C
:1007400001D34FF0FF3070472DE9FF4F06468BB0C5
:100750000878FF2806D0491C2D2805D000244FF02A
:10076000000908E000200CE00124F8E709EB890308
:10077000491C00EB43090878FF28F7D114B1C9F1EF
:1007800000008146107800252C46AA4629462D28CF
:1007900001D02B2804D1521C2D2813D000208246D2
:1007A0008B461078FF280FD04FF0000C0A21521C06
:1007B000A5FB017804FB018105FB0C11C5194BEB6E
:1007C0000104EEE70120EAE7002108464FF00000AF
:1007D000BAF1000F02D000EB80004008C0F381574F
:1007E000012F01DD4FF0FF370E9955EA040009EBA8
:1007F00001080BD04FF0020918F5FA7F16DA4FEA1C
:10080000CA70002F706008DD012007E04FEACA704F
:10081000C6E900B00FB0BDE8F08F00203060FFF7F0
:100820000BFEC0F800901821084616E0B8F5FA7FD4
:1008300018DD002F02DAF748784401E0F6487844E2
:10084000D0E90010C6E9001040EACA707060FFF7F6
:10085000F3FDC0F80090142108460FB0BDE8F04F3A
:1008600008F00DBA002108464FF00000B8F1000171
:10087000099002DAC7F1000200E03A4601DAC8F155
:10088000000106A800F0DCF906AB93E8070003AB13
:1008900083E8070044F23E005BEA040100905846FA
:1008A00004D144F21E012C465D460091210C09043E
:1008B000014306D10099240444EA15442D0410395B
:1008C000009104F07F41014306D10099240244EADB
:1008D00015642D020839009104F07041014306D1DE
:1008E0000099240144EA15742D01091F009104F0B8
:1008F0004041014306D10099A40044EA9574AD003B
:10090000891E009104F00041084304D100986D193C
:100910006441401E00904FF001033A466846B8F12A
:10092000000FCDE9014503A902DD00F0D4FE01E08E
:1009300000F0A7FEBAF1000F04460D4601D084F086
:100940000044002108464FF00000099940F2FF776B
:10095000484010F00C0F07D124F00040284303D08A
:10096000C4F30A50B84212D1FFF766FDC0F80090F8
:10097000C4F30A50B8420AD1A8487844D0E900101C
:10098000C6E9001004F000410843706042E7C6E980
:1009900000543FE72DE9FF4F1F464FF0000A4FF08C
:1009A000FF38454691B0D7E90146CDF83CA0FFF7A6
:1009B000B9FEC0680168405C1090B96912986D1C5E
:1009C0008847396A814688470028F6D1B9F1FF3F48
:1009D0000AD0002E24F4D06411DDB9F12B0F08D019
:1009E000B9F12D0F0BD102E0404615B013E744F4E6
:1009F0008064B96912986D1C8847761E814660052F
:100A000004A901D52D2000E02B20002E01F1010BBF
:100A10000DF130088DF810003FDDB9F1690F08D0F5
:100A2000B9F1490F05D0B9F16E0F02D0B9F14E0FEF
:100A30001CD13B4601A8009580E85002DDE9121266
:100A40006FF0020008F082F9C11CCED10EE0B96946
:100A500012986D1C884781461398761E44F40074E2
:100A600005600F98401C002E0F9016DDB9F1300F75
:100A7000EDD0B9F1780F02D0B9F1580F0DD10F9820
:100A800001280AD13B46CDE90054DDE91212001FCE
:100A9000029608F059F9C11CA7D1109989453ED199
:100AA00044F0800406E01399681CAAF1010A44F49A
:100AB00000740860B9696D1C1298761E884730284A
:100AC0008146F0D02BE01099894505D1200603D44A
:100AD000761E44F0800418E0484603F0E8F808B3B6
:100AE000761E0DF123018B4544F4007408D2A9F160
:100AF00030000BF8010B200607D5AAF1010003E036
:100B0000200602D40AF101008246A00502D51399FD
:100B1000681C0860B96912986D1C88478146002ED0
:100B2000D1DC53E0002E51DDB9F1650F02D0B9F1EF
:100B3000450F4BD1A00549D5B9696D1C1298761E99
:100B400024F440748847002E81460CDD2B2804D005
:100B5000B9F12D0F07D144F48074B96912986D1C56
:100B60008847761E8146E00501D52D2100E02B2126
:100B700008F8011BCDF8008021E0761E0DF1390147
:100B8000884544F400740CD2A9F1300010F0FF0045
:100B900088F8000002D10099884509D908F10108B8
:100BA00006E0E00501D51E4801E042F20F708246E2
:100BB000B96912986D1C8847814613980560002E0C
:100BC00004DD484603F073F80028D6D1F96912987D
:100BD0008847FF2053468BF8000088F8000000206B
:100BE0000A900B9004AA0CA90AA8FFF7ADFDA00576
:100BF00002D46FF00100F8E614F0240F12D0E007E1
:100C00001CD13868DDE90A12031D3B600068C0E9A9
:100C1000001213E04091000032910000F68F0000B6
:100C2000F1D8FFFF0AA9684602F0D0FFE00705D11E
:100C30003868009A011D3960006802602846D4E6D1
:100C40002DE9F047814616468AB0354878440DC8EC
:100C50008DE80D0032487844801C03AC0DC884E850
:100C60000D0041F69B300844372190FBF1F290FBD8
:100C7000F1F5A5F1800501FB12041B3C02D564428D
:100C8000012000E00020DFF898A080460027FA4409
:100C9000AAF1BE0A0EE0E0070AD03246684607EB2A
:100CA000470101230AEB810100F000FD8DE80700F8
:100CB00064107F1C002CEED1194F7F44AE3F19E029
:100CC000E80715D007EB04100DF1180A90E80E00A4
:100CD0008AE80E00C068F04201D1981908903246A7
:100CE000012306A903A800F0E1FC03AB83E8070099
:100CF0006D10641C002DE3D14FF0010332466946AC
:100D0000B8F1000F03A802D000F0A6FC01E000F04B
:100D1000CDFCC9E90001C9F808200AB0BDE8F08798
:100D2000EC8C000010B50446AFF300802046BDE80F
:100D30001040FFF750BA000001491820ABBEFEE793
:100D4000260002002DE9FF4F1F464FF03C0987B0F7
:100D50004FF00042DDE9141001F10108DDF858A060
:100D600002EA405003900020059083460546044661
:100D70000490B969461E08988847AAF1010A0290B2
:100D8000BAF1000F3BDD02982E2815D01021FFF795
:100D9000CDFC00282EDB4FF0010B0599014317D045
:100DA000B9F1000F0BDB4A46C11700F0F6F9054315
:100DB0000C43A9F1040905E0012004900BE008B1FF
:100DC00045F0010501200590049820B9361D02E088
:100DD000049800B1361FB969089808F101088847DE
:100DE000BBF1000FAAF1010A0290C9D00999C1F81C
:100DF0000080C5E70298702808D0502806D0F9690D
:100E000008988847BBF1000F14D04FE000200290F3
:100E10000120BBF1000F049009D0B969089808F1CE
:100E200001088847AAF10109B9F1000F07DCF96947
:100E3000089888476FF001000BB0BDE8F08F2B28B1
:100E400004D02D280CD14FF0FF300490B9690898D8
:100E500008F101088847A9F10109B9F1000FE6DDA1
:100E6000411CE4D00A21FFF761FC0028DFDB029976
:100E700008F1010801EB810100EB41000290B96922
:100E8000089888470A21FFF751FC099AA9F101093E
:100E9000B9F1000FC2F8008001DD0028E7DAF96936
:100EA000089888470499029800FB016655EA0400F7
:100EB00004D004F04041090002D006E0039898E015
:100EC000A40044EA9574AD00B61E04F00041080089
:100ED00002D16D196441761E159810F0240F03D0CD
:100EE0004FF00B095C4803E04FF028096FF07D00DC
:100EF0008246564507DAAAEB06018944B9F1410F4B
:100F000001DD4FF0410901200021A9F1010200F0AB
:100F100044F9024628400B462140084301D00121F4
:100F200000E00021501E029143F1FF312840214092
:100F3000084301D0012000E000200299834651EAD5
:100F40000B014FD0002108464FF00000039900F438
:100F5000400039B100EB80004FF4400100EBD0704D
:100F600001EA60008015012802DD4FF0FF3000E04B
:100F700013D0401C36D0029860B3BBF1000F0CD1E7
:100F80004A460120002100F008F92840214008438A
:100F900001D0012000E00020E0B101204A460021FC
:100FA00000F0FBF8034640190A4661412D1A8C41B6
:100FB00011D3B9F1400F09DD159810F0240F02D0BC
:100FC000AAF1340603E0AAF1170600E0761C00251A
:100FD0004FF0004406E05B1E42F1FF3220EA0305B9
:100FE00021EA0204CAF10100B04206DA1B49039863
:100FF00008430190002000900EE0039AC4F3D3212F
:10100000E80A0A43164940EA44500A433146CDE90A
:101010000002684602F040FE159810F0240F0BD035
:101020001598C00715D13868DDE90012031D3B6033
:101030000068C0E900120CE002A8694602F0C6FD93
:101040001598C00705D13868029A011D39600068FB
:1010500002604046F0E6000002FCFFFF0000F07F67
:101060000000F03F2DE9FF4F92461D4685B04FF03E
:101070000041DDE9124BDDE914727F1E01EA4B509D
:10108000414940F0FF4940EA0108002122F02000D8
:101090004928049102D04E2828D04CE03BA00126DC
:1010A00007C88DE80700A9690698641C88477F1E59
:1010B000014606D41DF8060018B121F02001814236
:1010C0000BD0E96906988847032E34D0082E32D019
:1010D0006FF0010009B0BDE8F08F761C032E01D03F
:1010E000082EE0D1601CCAF80000DCE7A969069868
:1010F000641C88477F1E2AD420F02000412826D176
:10110000A9690698641C88477F1E20D420F020001F
:101110004E281CD1A9690698641C88477F1E48F494
:10112000002849F48009CAF8004001D4282806D0D4
:10113000E969069888475FEACB7012D022E0A96976
:101140000698641C88477F1E01D4002803DAE969E9
:1011500006988847BCE72928F1D1641CCAF80040EA
:10116000E9E71BF0240F07D028680499031D2B60C2
:101170000068C0E9001805E02868021D2A600068C0
:10118000C0F800902046A5E70000F07F494E464990
:101190004E495459000000007047B2F120030AD5AF
:1011A000C2F1200301FA02F120FA03F300FA02F07F
:1011B00041EA0301704700FA03F14FF00000704765
:1011C00020F07F4C80EA030023F07F47ACEB07035D
:1011D00003F57C5300F0004003F1FF032DE9804943
:1011E0004FEA154B09B44FEA144325EA0B4E24EAA3
:1011F00003480FF2042606EB132749083E785FEAFE
:10120000320203FB0667C7F5000707FB06F64FEA45
:1012100054374FEAD64606F1020607FB066CCCF1BE
:10122000005C4FEA1C472CEA074C07FB06F40CFB5A
:1012300006F504EB15464FEA961634BF00204FF032
:1012400000404FEAD13706FB07FC4FEA1C4C0CFB71
:101250000BF7D21B03FB0CF761EB07010CFB0EF73E
:10126000B0EB074072EB17420CFB08F734BFA2EB60
:101270000742B2EB074261EB17414FEA0C444FEAD9
:10128000910706FB07FC4FEA1C4C0CFB0BF7B0EB7D
:10129000C74072EB573203FB0CF734BFA2EBC742D7
:1012A000B2EBC74261EB57310CFB0EF7B0EBC70056
:1012B00072EB57720CFB08F734BFA2EBC702B2EB1C
:1012C000C70261EB5771039F4FEA816141EA9211B6
:1012D00004EBCC044FEAD1374FEA826206FB07FCED
:1012E00042EA90124FEA80604FEA1C4C0CFB0BF76D
:1012F000D21B03FB0CF761EB07010CFB0EF7B0EB05
:10130000074072EB17420CFB08F734BFA2EB074211
:10131000B2EB074261EB17414FEA8C554FEA910758
:1013200004EB9C2406FB07FC4FEA1C4C0CFB0BF760
:10133000B0EBC74072EB573203FB0CF734BFA2EBA4
:10134000C742B2EBC74261EB57310CFB0EF7B0EB73
:10135000C70072EB57720CFB08F734BFA2EBC70251
:10136000B2EBC70261EB577115EB4C254FEA816177
:1013700041EA92114FEA82624FEAD13742EA901273
:1013800006FB07FC44F100044FEA80604FEA1C4C66
:101390000CFB0BF7D21B03FB0CF761EB07010CFBFB
:1013A0000EF7B0EB074072EB17420CFB08F734BFA7
:1013B000A2EB0742B2EB074261EB174115EB1C159C
:1013C0004FEA813141EA92414FEA823242EA904249
:1013D0004FEA80304FEA0C7644F1000448EA0343B8
:1013E0004EEA0B484FF0000EB2EB080C71EB03070E
:1013F00024BF624639464EEB0E0E4FF0000B00182C
:10140000524149414BEB0B0BB2EB080C71EB03075C
:101410007BF1000B24BF624639464EEB0E0E4FF0B7
:10142000000B0018524149414BEB0B0BB2EB080C7F
:1014300071EB03077BF1000B24BF624639464EEB8C
:101440000E0E51EA020718BF46F0010616EB0E76A3
:1014500055F1000254F1000103D5BDE88901BDE852
:101460000088BDE88901BDE80048B619524141EB4A
:101470000101A3F10103704780807F7E7D7C7B7A30
:101480007978777676757473727171706F6E6E6D30
:101490006C6C6B6A6A6968686766666564646363D6
:1014A00062616160605F5F5E5E5D5D5C5C5B5B5A5C
:1014B0005A595958585757565655555554545353C9
:1014C00052525251515050504F4F4F4E4E4D4D4D24
:1014D0004C4C4C4B4B4B4A4A4A494949484848476F
:1014E00047474746464645454544444444434343AD
:1014F000434242424241414146EA0646A3F5705307
:101500004FEA164646EA42564FEAD22242EA415292
:1015100010B54FEAD121A3F1010300F02FF820F01C
:10152000004000F1020C00F0004701EB00501146B2
:10153000BCF5006F40EA070000D210BDBAF1000F01
:101540000AD01CB503B44FF004004FF004014FF073
:1015500000000FBCBDE810404FF00001BBF1010FCF
:10156000B9BF04484FF0FF310348002140EA0700AB
:1015700010BD00BFFFFFEF7F0000F07F002B9C46F7
:1015800030D477002BD01CB54FEA370703B44FF0A7
:1015900010004FF01001BAF1000F06D0BCF1000F9F
:1015A000DCBF40F0080040F008014FF000000FBC25
:1015B000BDE810400BF1010BBBF1010F08BF5FEA62
:1015C000170722BF12F1010211F101014FF0004192
:1015D00043F1000300F0004043EA00007047F9D3F4
:1015E0005708D0E746EA064613F1400F4FEA164681
:1015F0001FDD13F1200FDFBF16430A460021203301
:101600005B42BED0C3F1200746EA064602FA07F75E
:101610004FEA164646EA0706C3F1200722FA03F20C
:1016200001FA07F721FA03F14FF0000342EA07023B
:10163000A7E746EA020646EA06464FEA164646EAA3
:101640000106BCBF46EA0646360C4FF000034FF0D9
:1016500000024FF0000194E72DE9804C9A46934632
:1016600070B491E8380007C831EA400C48BF34EA4A
:10167000430C03D5FFF7A4FDFFF780FFF0BCBDE8E6
:10168000008C2DE9804C9A46934670B491E838005E
:1016900007C831EA400C48BF34EA430C03D5FFF7D2
:1016A0008FFDFFF729FFF0BCBDE8008C2DE9804CD1
:1016B0009A46934670B491E8380007C810F0804FFE
:1016C00008BF13F0804F03D100F01AF8FFF756FF60
:1016D000F0BCBDE8008C2DE9804C9A46934670B46E
:1016E00091E8380007C810F0804F08BF13F0804F12
:1016F00003D100F005F8FFF7FFFEF0BCBDE8008C59
:1017000020F07F4780EA030023F07F4C07EB0C03B7
:10171000A3F57C5300F00040A3F1FE0392F0000F0C
:1017200000F0B38095F0000F00F077802DE90149BB
:101730004FEA11404FEA144621EA004800FB06FC3C
:1017400024EA064708FB06F607FB08F800FB07F744
:1017500018EB06484CEB164C4FEA124B18EB0748B7
:101760004FEA15464CEB174022EA0B4E0BFB06FCEA
:1017700025EA06470EFB06F607FB0EFE0BFB07F7F6
:101780001EEB064E4CEB164C4FF000061EEB074EC0
:101790004CEB174B18EB0B0840F1000018EB0E0B4D
:1017A00058EB000840F100008F1A4FF000013CBFD9
:1017B000C943661B14BFB5EB040C00213CBFC943F1
:1017C000F61B4FEA17444EEA8E0E27EA04454FEA0D
:1017D0001C4704FB07622CEA074C05FB07F70CFBD0
:1017E00005F604FB0CFC16EB074642EB174216EB22
:1017F0000C4642EB1C421BEB060658EB0202414131
:1018000046EA9E0601D5BDE80189B619524141EB71
:101810000101A3F10103BDE801894FEA14454FEA34
:10182000114724EA054621EA074C05FB07F406FBAD
:1018300007F70CFB06F105FB0CFC11EB074144EB31
:1018400017444FEA124711EB0C4144EB1C4422EAC7
:10185000074C05FB07F206FB07F70CFB06F605FB3A
:101860000CFC16EB074642EB174216EB0C4642EB1C
:101870001C456A1854F1000148BF7047B61952411F
:1018800041EB0101A3F10103704795F0000F37D040
:101890004FEA11424FEA144721EA024624EA074C74
:1018A00002FB07F106FB07F70CFB06F402FB0CFC3E
:1018B00014EB074441EB17414FEA154714EB0C4476
:1018C00041EB1C4125EA074C02FB07F506FB07F735
:1018D0000CFB06F602FB0CFC16EB074645EB174526
:1018E00016EB0C4645EB1C42121951F1000148BFA2
:1018F0007047B619524141EB0101A3F10103704752
:101900004FEA14454FEA114724EA054621EA074CFD
:1019100005FB07F106FB07F70CFB06F24FF000068C
:1019200005FB0CFC12EB074241EB174112EB0C429A
:1019300051EB1C4148BF7047921841EB0101A3F1E4
:101940000103704700BFFEE77047000010B500F0CC
:10195000BFFF642002F09EFB124801F01FF84FF415
:10196000FA7002F097FB104801F018F8642002F0BA
:1019700091FB0E4801F012F8642002F08BFB0C483A
:1019800001F00CF8642002F085FB0A4801F006F82B
:10199000642002F07FFB084801F000F8642002F0A8
:1019A00079FB10BDF3000020FC0000200A0100209C
:1019B00039010020470100207701002010B54FF0C9
:1019C000804001F033FA04B200214FF0804001F072
:1019D000D6FB204610BD000010B5054801F026FAE0
:1019E00004B20021024801F0CAFB204610BD0000ED
:1019F0000004004010B5054801F018FA04B20021B7
:101A0000024801F0BCFB204610BD00000008004069
:101A100000B587B00121084600F0C2FE0121082070
:101A200000F0CEFE48208DF81B00C020ADF8180055
:101A300003208DF81A0006A91D4800F0DBF80020ED
:101A4000ADF81200ADF80E004FF6FF70ADF81000C3
:101A50000020ADF80C008DF8140003A94FF0804071
:101A600001F0BCFB684601F03BFA0020ADF8000035
:101A70000F20ADF8080069464FF0804001F0DAF918
:101A80000420ADF800000F20ADF8080069464FF0C3
:101A9000804001F0CFF900231A4603214FF0804027
:101AA00001F0A3F90121880701F084F907B000BD16
:101AB000000C014000B587B00121022000F070FE4B
:101AC0000121042000F07CFE48208DF81B00C0207E
:101AD000ADF8180003208DF81A0006A91B4800F085
:101AE00089F80020ADF81200ADF80E004FF6FF7037
:101AF000ADF810000020ADF80C008DF8140003A91B
:101B0000134801F06BFB684601F0EAF90020ADF8DC
:101B100000000F20ADF8080069460D4801F08AF971
:101B20000420ADF800000F20ADF808006946084811
:101B300001F080F900231A460321054801F055F908
:101B40000121034801F036F907B000BD000801404B
:101B50000004004000B587B00121042000F020FE01
:101B60000121042000F02CFE48208DF81B000320EA
:101B7000ADF818008DF81A0006A91C4800F03AF8D4
:101B80000020ADF81200ADF80E004FF6FF70ADF872
:101B900010000020ADF80C008DF8140003A91448C3
:101BA00001F01CFB684601F09BF90020ADF8000035
:101BB0000F20ADF8080069460D4801F03BF90420FC
:101BC000ADF800000F20ADF808006946084801F0A4
:101BD00031F900231A460321054801F006F90121D5
:101BE000034801F0E7F807B000BD0000000801401D
:101BF000000800402DE9F0410246002500260020A3
:101C000000230024002791F803C00CF00F0591F881
:101C100003C00CF0100CBCF1000F03D091F802C00F
:101C20004CEA050591F800C0BCF1000F31D01468F2
:101C300000202BE04FF0010C0CFA00F3B1F800C0CB
:101C40000CEA03069E4220D183004FF00F0C0CFAE1
:101C500003F7BC4305FA03FC4CEA040491F803C003
:101C6000BCF1280F06D14FF0010C0CFA00FCC2F8B1
:101C700014C00AE091F803C0BCF1480F05D14FF041
:101C8000010C0CFA00FCC2F810C0401C0828D1D38B
:101C90001460B1F800C0BCF1FF0F34DD54680020BF
:101CA0002EE000F1080C4FF0010808FA0CF3B1F82F
:101CB00000C00CEA03069E4221D183004FF00F0CB6
:101CC0000CFA03F7BC4305FA03FC4CEA040491F850
:101CD00003C0BCF1280F05D100F1080C08FA0CF87C
:101CE000C2F8148091F803C0BCF1480F07D100F18D
:101CF000080C4FF0010808FA0CF8C2F81080401CDC
:101D00000828CED35460BDE8F081024600209368D5
:101D10000B400BB1012000E000207047416170478B
:101D2000016170470AB1016100E041617047000044
:101D300008B50121082000F043FD10208DF80300B4
:101D40000002ADF8000003208DF8020069460C483F
:101D5000FFF750FF28208DF803004FF40050ADF836
:101D6000000069460648FFF745FF00224FF4805106
:101D70000348FFF7D7FF0F2002F0ACF908BD0000C1
:101D8000000C014000BFFEE710B500244FF4805165
:101D90000A48FFF7BAFF70B9142002F07BF900BFC0
:101DA0004FF480510548FFF7B0FF0028F8D0142009
:101DB00002F070F90224204610BD00000008014026
:101DC00008B50121042000F0FBFC48208DF8030039
:101DD0004FF48050ADF8000003208DF802006946F2
:101DE0000148FFF707FF08BD0008014000BFFEE7FC
:101DF0007047000070B5002100230F22C47804B39F
:101E0000154C246804F4E064C4F5E064210AC1F1CF
:101E10000403CA40447804FA03F18478144021434F
:101E200009010E4C0678A155047804F01F05012421
:101E3000AC4005786D11AD0005F1E025C5F8004115
:101E400009E0047804F01F050124AC40044D067835
:101E5000761145F8264070BD0CED00E000E400E08E
:101E600080E100E002490143024A1160704700002E
:101E70000000FA050CED00E000200CE0002106E077
:101E80000022064B03EBC0135A544A1CD1B28029DE
:101E9000F6DB421CD0B20828F0DB7047D8380020AF
:101EA0002DE9F04304460D4616461F467F2C01DD02
:101EB000BDE8F0833F2D00DDFAE7A119802902DD9E
:101EC000C4F18001CEB2E919402902DDC5F140011B
:101ED000CFB2284630E0234629E04FEAE07C00EB11
:101EE0005C7C4FEAEC0CDFF85C8008EBCC1C1CF847
:101EF00003C002464FEAE07800EB58784FEAE80862
:101F0000A0EBC8094FF0010808FA09F82CEA080C00
:101F100001464FEAE07800EB58784FEAE808DFF82E
:101F2000249009EBC81808F803C0591CCBB2A119BA
:101F30009942D2DC411CC8B2E9198142CBDC00BF16
:101F4000B6E70000D83800202DE9F04F07460E46CE
:101F500091469A46C9F1010B00254C463219D1B27F
:101F60007A19D0B200F05CF9321BD1B27A1BD0B230
:101F700000F056F97219D1B23A19D0B200F050F906
:101F8000721BD1B23A1BD0B200F04AF9BAF1000F7D
:101F90000FD060420FFA80F809E006EB0800C1B2EA
:101FA000384600F03DF908F101000FFA80F8A0452D
:101FB000F3DB75E0681C05B2BBF1000F05DA6800C1
:101FC000401C58440FFA80FB07E0601E04B2281B37
:101FD0004000401C58440FFA80FB3219D1B27A19E4
:101FE000D0B200F01DF97219D1B23A19D0B200F096
:101FF00017F9321BD1B27A1BD0B200F011F9721B63
:10200000D1B23A1BD0B200F00BF9321BD1B27A191F
:10201000D0B200F005F9721BD1B23A19D0B200F07B
:10202000FFF83219D1B27A1BD0B200F0F9F8721968
:10203000D1B23A1BD0B200F0F3F8BAF1000F2FD0B2
:1020400060420FFA80F811E006EB0802D1B27A196B
:10205000D0B200F0E5F806EB0802D1B27A1BD0B29C
:1020600000F0DEF808F101000FFA80F8A045EBDB84
:1020700068420FFA80F811E006EB0802D1B23A1B71
:10208000D0B200F0CDF806EB0802D1B23A19D0B2C6
:1020900000F0C6F808F101000FFA80F8A845EBDB64
:1020A000A54287DBBDE8F08F2DE9FF4F86B0069F84
:1020B000079EDDF82080DDF824900020019000903C
:1020C0004E450FD1474502DDBA464746D0463C460D
:1020D00005E0F1B2E0B200F0A3F8601C04B24445A0
:1020E000F7DD99E047450FD14E4502DDB2464E4639
:1020F000D146354605E0E9B2F8B200F091F8681C27
:1021000005B24D45F7DD87E0474505DDBA46474650
:10211000D046B2464E46D1464E4507DD704206B225
:10212000C9F100000FFA80F901200190A9EB060027
:10213000A8EB0701884207DDBA4637465646C24635
:10214000C846D14601200090A8EB070000B20590D8
:10215000A9EB06000FFA80FB4FEA4B0000B2039098
:102160000598ABEB0000400000B202900598C0EB70
:102170004B0000B204903C463546019838B10098B7
:1021800028B16242D1B2E8B200F04AF812E00198F8
:1021900028B16A42D1B2E0B200F042F80AE00098F9
:1021A00020B1E1B2E8B200F03BF803E0E9B2E0B2FE
:1021B00000F036F82EE0601C04B20498002805DA1E
:1021C000DDE90310084400B2049006E0681C05B283
:1021D00002990498084400B20490019838B100981C
:1021E00028B16242D1B2E8B200F01AF812E00198C8
:1021F00028B16A42D1B2E0B200F012F80AE00098C9
:1022000020B1E1B2E8B200F00BF803E0E9B2E0B2CD
:1022100000F006F84445CEDB0AB0BDE8F08F0000C0
:1022200070B503467F2B00DD70BD3F2900DDFBE765
:10223000CC1701EB5474E4100C4D05EBC414E45CB2
:102240000A46CD1701EB5575ED10A1EBC50601252A
:10225000B5402C430846CD1701EB5575ED10034EE4
:1022600006EBC515EC5400BFDEE70000D8380020AF
:1022700038B5002406E0002500E06D1CB5F57A7F36
:10228000FBD3641CB4F57A7FF5D30121042000F060
:1022900097FA14208DF8030003208DF80200102017
:1022A000ADF8000069460848FFF7A4FC2020ADF80F
:1022B000000069460448FFF79DFC012000F0B4F9D6
:1022C000012000F0BBF938BD0008014070B505469B
:1022D000002411E080212141294009B1012100E0C1
:1022E0000021084600F0AAF9012000F09DF9002025
:1022F00000F09AF9601CC4B2082CEBDB012000F05E
:1023000093F9002000F090F970BD10B5012000F0A5
:1023100095F9012000F088F9002000F08FF90020E5
:1023200000F082F910BD10B5002000F087F90120FF
:1023300000F07AF9012000F081F910BD10B5FFF727
:1023400097FFAE2000F084F9D52000F081F98020BD
:1023500000F07EF9A82000F07BF93F2000F078F92A
:10236000D32000F075F9002000F072F9402000F051
:102370006FF9A12000F06CF9C82000F069F9DA20AB
:1023800000F066F9122000F063F9812000F060F996
:10239000CF2000F05DF9D92000F05AF9F12000F0CB
:1023A00057F9DB2000F054F9302000F051F9A42057
:1023B00000F04EF9A62000F04BF98D2000F048F90E
:1023C000142000F045F9AF2000F042F910BD10B51F
:1023D0000246012000E050430B1EA1F10101FAD199
:1023E00010BD70B505460C4645F0B00000F030F960
:1023F000102141EA141000F02BF904F00F0000F056
:1024000027F970BDF8B506460F4614461D46082D3F
:102410000CD1A4F120000E4901EB0010102308227A
:1024200039460090304600F017F80FE0062D0DD128
:10243000A4F1200000EB4000064901EB4000082316
:10244000062239460090304600F006F8F8BD00003C
:10245000808D0008709300082DE9F04707460C4670
:1024600090469946DDF820A07F2F01DDBDE8F0877A
:102470003F2C00DDFAE74B46424621463846FFF73F
:102480000FFD002570E0002669E0B8197F2800DD07
:1024900067E0E11704EB517105EBE101072900DD6D
:1024A000E4E72046E21704EB527205EBE202344BFC
:1024B00003EBC212BB19D25C2146E31704EB537342
:1024C000DB10A4EBC30305FB086C1AF80CC00CFA74
:1024D00003FC42EA0C02E31704EB537305EBE3033E
:1024E000DFF89CC00CEBC31307EB060C03F80C20C1
:1024F000E11704EB517105EBE101491C072900DDEF
:102500002BE02046E21704EB527205EBE202521C6C
:102510001B4B03EBC212BB19D25C2146E31704EB41
:102520005373DB10A4EBC303C3F1080305FB086C72
:102530001AF80CC04CFA03FC42EA0C02E31704EB55
:10254000537305EBE3035B1CDFF834C00CEBC313E0
:1025500007EB060C03F80C2000BF701CC6B2464502
:1025600093DB00BF681CC5B2A9F10100C11700EBE5
:102570005171012202EBE101A94284DC00BF75E741
:10258000D83800202DE9F0470646894617461D46F3
:10259000DDF82080002417E0281B411E0A20FFF7E9
:1025A00016FFB7FBF0F00A21B0FBF1F201FB1200BD
:1025B00000F1300A04FB0861C8B24346524649465E
:1025C000FFF720FF601CC4B2AC42E5DBBDE8F0873A
:1025D0002DE9F0410646884615461F46002409E0CD
:1025E0002A5D04FB0761C8B23B464146FFF70AFF7C
:1025F000601CC4B2285D0028F2D1BDE8F081000063
:1026000010B500240BE000212046FFF7EAFE054943
:1026100001EBC410802100F02BF8601CC4B2082C20
:10262000F1DB10BDD838002010B504462246202129
:102630000148FFF777FB10BD0008014010B50446C4
:10264000224610210148FFF76DFB10BD0008014034
:1026500010B50446FFF759FE7820FFF737FE00203B
:10266000FFF734FE2046FFF731FEFFF75CFE10BD9A
:1026700070B505460E46FFF748FE7820FFF726FEA8
:102680004020FFF723FE002404E0285DFFF71EFE34
:10269000601CC4B2B442F8DBFFF745FE70BD000019
:1026A00010B504462146024800F060FD10BD000050
:1026B000002C014010B504462146024800F058FDA8
:1026C00010BD0000002C014010B504462146024810
:1026D00000F050FD10BD0000002C014010B5044674
:1026E0002146024800F048FD10BD0000002C0140CA
:1026F00000B589B00121C80200F062F80121042070
:1027000000F05EF84FF4E060ADF8200018208DF87E
:10271000230003208DF8220008A91F48FFF76AFA5A
:102720001E4800F0E6FB0020ADF81A00ADF81600D8
:102730006320ADF8180040F2CF20ADF8140000205F
:102740008DF81C0005A9154800F048FD01A800F00F
:1027500003FD6020ADF804000020ADF80C0001205E
:10276000ADF806000020ADF80A0001210B4800F08A
:102770002DFB01A9094800F0C3FB01A9074800F09F
:102780000BFC01A9054800F059FC0121034800F0A9
:1027900011FB09B000BD000000080140002C014001
:1027A00029B1064AD2690243044BDA6104E0034AC4
:1027B000D2698243014BDA61704700000010024089
:1027C00029B1064A92690243044B9A6104E0034A24
:1027D00092698243014B9A617047000000100240E9
:1027E00030B500210022002400232D4D6D6805F036
:1027F0000C0121B1042905D0082923D105E0294D78
:10280000056022E0274D05601FE0254D6D6805F449
:102810007012234D6D6805F48034022505EB924259
:102820001CB9214D554305600BE01D4D6D6805F445
:1028300000351DB11C4D5543056002E0194D55434F
:10284000056002E0174D056000BF00BF144D6D68C4
:1028500005F0F0010909154D6B5C0568DD40456028
:102860000F4D6D6805F4E061090A104D6B5C456819
:10287000DD4085600A4D6D6805F46051C90A0B4D55
:102880006B5C4568DD40C560054D6D6805F44041F1
:10289000890B074D6B5CC568B5FBF3F5056130BD71
:1028A0000010024000127A0000093D0014000020D0
:1028B0002400002005480078012804D100200349A5
:1028C0000870012070470020FCE70000F0000020A5
:1028D00000B587B001214804FFF762FF0121042001
:1028E000FFF76EFF18208DF81B000420ADF81800CC
:1028F00003208DF81A0006A91E48FFF77BF948202F
:102900008DF81B000820ADF8180003208DF81A0080
:1029100006A91848FFF76EF94FF4E1300290002045
:10292000ADF814000C20ADF812000020ADF8100036
:10293000ADF80E00ADF80C0002A90F4800F08AFDBA
:10294000012240F225510C4800F05EFD26208DF852
:10295000040001208DF807008DF805008DF80600B1
:1029600001A8FFF747FA0121034800F00AFD07B06C
:1029700000BD0000000801400044004010B50446BE
:102980002146054800F0D7FD00BF8021024800F035
:1029900004FD0028F9D010BD0044004070B5044685
:1029A000002504E0605DFFF7E9FF681CC5B2605DCB
:1029B0000028F7D170BD00002DE9F04104460A4916
:1029C000204605F0FBFE8046084906F00DF8074654
:1029D000074905F091FE064605F0CEFF85B2284670
:1029E000FFF77CFEBDE8F081000034430000FA44AC
:1029F0000000FA4310B500F001F810BD0CB500203E
:102A0000019000903348006840F4803031490860FC
:102A100000BF3048006800F4003000900198401C6E
:102A20000190009818B90198B0F5A06FF1D129482C
:102A3000006800F4003010B10120009001E0002097
:102A400000900098012843D12348006840F010000E
:102A5000214908600846006820F003000860084625
:102A6000006840F0020008601A4840681949486050
:102A70000846406848600846406840F48060486006
:102A80000846406820F47C1048600846406840F4DE
:102A9000E81048600846006840F08070086000BF99
:102AA0000C48006800F000700028F9D00948406820
:102AB00020F00300074948600846406840F00200E3
:102AC000486000BF0348406800F00C000828F9D1B6
:102AD0000CBD00000010024000200240042808D174
:102AE0004FF0E021096941F004014FF0E02211614B
:102AF00007E04FF0E021096921F004014FF0E022E6
:102B00001161704710B504F09BFC012801D004F05E
:102B100021FA10BD10B51348006840F001001149BA
:102B2000086008464068104908400E494860084659
:102B300000680E4908400B4908600846006820F408
:102B4000802008600846406820F4FE0048604FF48A
:102B50001F008860FFF74EFF4FF0006004490860D7
:102B600010BD0000001002400000FFF8FFFFF6FE5D
:102B700008ED00E0F0B50C46154600220021068C59
:102B80004FF6FE773E400684028B018C4FF60C76A2
:102B900032407E1C06EA03162E433243104EB042EA
:102BA0000ED0104EB0420BD0B0F1804F08D00E4E78
:102BB000B04205D00D4EB04202D00D4EB04206D10B
:102BC0004FF6FD76314044F00106314305E04FF603
:102BD000F576314044F00106314302830184F0BDB3
:102BE000002C014000340140000400400008004077
:102BF000000C0040F0B50C461546002200210026CE
:102C0000078C4FF6EF7C07EA0C070784028B018CD8
:102C10004FF6FF7707EA041640F6FF473A404FF6B3
:102C2000FF7707EA03373A434FF6FF7707EA0527AE
:102C30003A43114FB8420ED0104FB8420BD0B0F10A
:102C4000804F08D00E4FB84205D00E4FB84202D088
:102C50000D4FB84206D14FF6DF77394046F01007E6
:102C6000394305E04FF65F77394044F010073943A8
:102C700002830184F0BD0000002C014000340140BB
:102C80000004004000080040000C0040F0B50C4675
:102C90001546002200210026078C4FF6FF6C07EA3C
:102CA0000C070784828B018C4FF6FF7707EA042616
:102CB0004FF60C773A404FF6FF7707EA03172F439A
:102CC0003A43114FB8420ED0104FB8420BD0B0F17A
:102CD000804F08D00E4FB84205D00E4FB84202D0F8
:102CE0000D4FB84206D14FF6FF57394046F4807772
:102CF000394305E04FF2FF57394044F480773943B8
:102D000082830184F0BD0000002C014000340140AA
:102D10000004004000080040000C0040F0B50C46E4
:102D20001546002200210026078C4EF6FF7C07EA9C
:102D30000C070784828B018C4FF6FF7707EA043675
:102D400040F6FF473A404FF6FF7707EA05273A4338
:102D50004FF6FF7707EA03373A43114FB8420ED0D8
:102D6000104FB8420BD0B0F1804F08D00E4FB84290
:102D700005D00E4FB84202D00D4FB84206D14DF6E5
:102D8000FF77394046F48057394305E047F6FF574F
:102D9000394044F48057394382830184F0BD0000F8
:102DA000002C0140003401400004004000080040B5
:102DB000000C004021B1028842F00102028004E0D0
:102DC00002884FF6FE731A400280704731B1B0F8A6
:102DD000442042F40042A0F8442005E0B0F844202A
:102DE000C2F30E02A0F844207047F0B50C46154619
:102DF0001E460021002200230189028B038C4FF61E
:102E0000F877394021434FF6FC473A4040F201172A
:102E10003A434FF6DD773B404FF6FF7707EA061758
:102E20002F433B43018102830384F0BD0146888C1C
:102E30007047000070B505460C46244885420ED008
:102E4000234885420BD0B5F1804F08D021488542F8
:102E500005D02148854202D02048854200D100E0BB
:102E600000BF208850B92389A28861882846FFF7CF
:102E700081FEE188284600F084F925E020880428B6
:102E80000AD12389A28861882846FFF7B3FEE1882A
:102E9000284600F07FF917E0208808280AD1238906
:102EA000A28861882846FFF7F1FEE188284600F0F5
:102EB0007EF909E02389A28861882846FFF72EFF62
:102EC000E188284600F07CF970BD0000002C01402C
:102ED000003401400004004000080040000C0040A5
:102EE000002101804180012181800021C180018178
:102EF000704701894FF6F872114001817047000058
:102F000070B5002400220023058C4FF6FE76354074
:102F10000584028C8388048B4FF68F752C40B51E78
:102F20002C400D882C43751E2A400D892A434D885C
:102F30002A43144DA8420BD0134DA84208D0134D7C
:102F4000A84205D0124DA84202D0124DA84213D17A
:102F50004FF6F7752A404D892A434FF6FB752A40F4
:102F60008D882A434FF6FF652B404FF6FF552B40C7
:102F70008D892B43CD892B4383800483CD8885861F
:102F8000028470BD002C014000340140004001402B
:102F9000004401400048014070B500240022002395
:102FA000058C4FF6EF7635400584028C8388048BC0
:102FB00048F6FF752C404FF6FF452C400D884FF624
:102FC000FF7606EA05252C434FF6DF752A400D896A
:102FD00006EA05152A434D8806EA05152A43154DCC
:102FE000A84202D0144DA8421DD14FF67F752A4049
:102FF0004D894FF6FF7606EA05152A434FF6BF7551
:103000002A408D8806EA05152A434FF6FF352B40E6
:103010004FF2FF752B408D8906EA85052B43CD893C
:1030200006EA85052B4383800483CD8805870284C7
:1030300070BD0000002C01400034014070B5002438
:1030400000220023058C4FF6FF6635400584028C74
:103050008388848B4FF68F752C404FF6FC752C407F
:103060000D882C434FF6FF552A400D894FF6FF7609
:1030700006EA05252A434D8806EA05252A43154D0B
:10308000A84202D0144DA8421DD14FF2FF752A402C
:103090004D894FF6FF7606EA05252A434FF6FF35A0
:1030A0002A408D8806EA05252A434EF6FF752B40F7
:1030B0004DF6FF752B408D8906EA05152B43CD890A
:1030C00006EA05152B4383808483CD888587028497
:1030D00070BD0000002C01400034014070B500229A
:1030E00000230024058C4EF6FF7635400584038CC2
:1030F0008488828B48F6FF752A404FF6FF452A40A8
:103100000D884FF6FF7606EA05252A434DF6FF7532
:103110002B400D8906EA05352B434D8806EA053517
:103120002B430B4DA84202D00A4DA84208D14BF6C2
:10313000FF752C408D894FF6FF7606EA85152C43E6
:1031400084808283CD88A0F84050038470BD000045
:10315000002C014000340140002101804180818029
:10316000C180018141818181C18170478186704721
:103170000187704781877047A0F8401070478184AD
:103180007047028B4FF6F3731A400283028B0A4397
:1031900002837047028B4FF2FF331A400283028B87
:1031A0004FF6FF7303EA01231A4302837047828BB1
:1031B0004FF6F3731A408283828B0A4382837047EF
:1031C000828B4FF2FF331A408283828B4FF6FF735C
:1031D00003EA01231A438283704700000022028819
:1031E0001D4B98420ED01D4B98420BD0B0F1804F32
:1031F00008D01B4B984205D01A4B984202D01A4B6C
:10320000984204D14FF68F731A404B881A43174BDC
:10321000984207D0164B984204D04FF6FF431A400D
:10322000CB881A4302808B8883850B8803850A4BE1
:1032300098420BD0094B984208D00E4B984205D0CB
:103240000D4B984202D00D4B984201D10B7A038668
:103250000123838270470000002C014000340140AC
:103260000004004000080040000C00400010004036
:10327000001400400040014000440140004801406B
:1032800010B501460448D0E90040631C40F100003D
:10329000014AC2E9003010BDD0010020024909688E
:1032A000491C014A116070475000002010B540F2DF
:1032B0002551274800F07EF8012847D1244800F026
:1032C00035F9C4B223480078A8B9732C01D0722C08
:1032D00036D12148007808BB01201E490870002023
:1032E0001E4908701E48097844541C480078401C48
:1032F0001A49087024E01748007801280FD10D2CD6
:1033000003D10220134908701AE0154813490978BF
:10331000445412480078401C1049087010E00D48D1
:10332000007802280CD10A2C0AD100200949087023
:1033300000210B48094A127881540120064908707F
:1033400040F22551024800F00DF800BF10BD00000A
:1033500000440040F1000020F0000020F2000020B6
:103360007438002010B50022002340F66A14A142F0
:1033700000D100BF0A1201249440A3B2DC430480B0
:1033800010BD21B1828942F40052828104E0828919
:103390004DF6FF731A408281704702460020B1F556
:1033A000007F00D100BF13880B400BB1012000E06B
:1033B0000020704770B5024600240023002500203D
:1033C00040F66A16B14200D100BFC1F3421501F0C8
:1033D0001F03012606FA03F3012D02D1968933401B
:1033E00006E0022D02D1168A334001E0968A33406E
:1033F0000C12012606FA04F41688344013B10CB1FD
:10340000012000E0002070BDF0B503460024002636
:103410000025002040F66A17B94200D100BF1846C7
:10342000C1F3421401F01F06012707FA06F5012C2B
:1034300001D10C3004E0022C01D1103000E0143036
:103440001AB107682F43076002E00768AF430760BF
:10345000F0BD00002DE9F04786B005460E46002479
:10346000A24600BFA1460027B08900B100BF2F4689
:103470002C8A4CF6FF700440F08804432C82AC89FF
:103480004EF6F3100440B08831890843718908432F
:103490000443AC81AC8A4FF6FF400440B08904433A
:1034A000AC8201A8FFF79CF91F48874202D1DDF8E2
:1034B00010A001E0DDF80CA0A88900F4004040B1A4
:1034C0000AEBCA0000EB0A1031684900B0FBF1F8C2
:1034D00007E00AEBCA0000EB0A1031688900B0FB74
:1034E000F1F86420B8FBF0F004012009642101FB2D
:1034F0001089A88900F4004040B1322000EBC900D7
:10350000B0FBF1F000F00700044308E0322000EBCC
:1035100009106421B0FBF1F000F00F0004432C818E
:1035200006B0BDE8F08700000038014001468888F9
:10353000C0F308007047C1F308028280704700BFE3
:10354000FEE7490050EAC12018BF04204A0D18BF09
:1035500040F0010040F2FF72B2EB515F08BF40F053
:103560000200012808BF0520704700002DE9F74F31
:10357000144694B00021C4E902111599079121F075
:103580000045C9498D4206DC1599C4E9000117B010
:103590000020BDE8F08FC549DFF814A3A9423CDD47
:1035A0000799C44E0029C44FC44A1599534619DDE2
:1035B00004F0B8FF554506D0C14AC24B04F0B2FF33
:1035C000C4E900010AE04FF0D352BE4B04F0AAFF59
:1035D00032463B4604F0A6FFC4E9000117B00120C3
:1035E000BDE8F08F04F01EFA554506D0B44AB54B3D
:1035F00004F018FAC4E900010AE04FF0D352B14BCD
:1036000004F010FA32463B4604F00CFAC4E900011B
:1036100017B04FF0FF30BDE8F08FAB49A9421599C4
:1036200078DB21F0004183468846A84AA84B04F085
:1036300053FD0022A74B04F0F5F904F043FC099078
:1036400004F09DFC06460F469C4A534604F044FD98
:1036500043465A4604F074FE80468A46984A994B7F
:103660003046394604F038FD2A0D01250B924246BA
:10367000534604F065FE032DC4E9000139D00B98D0
:10368000C1F30A51401A05EB45111139814230DA74
:103690009148C346784400EB0510CDF80CA00C907F
:1036A000D0E900233046394604F016FD02460B46A9
:1036B000049106905846039904F034FF80468A46E8
:1036C00002460B465846039904F02CFF049B069AC9
:1036D00004F028FF83460C9803913946D0E9022371
:1036E000304604F0F9FC5A46039B04F01BFF6D1CA6
:1036F000BDE707980028A2BF099817B0BDE8F08F72
:10370000616881F000416160099817B04042BDE8EE
:10371000F08FFFE784461598C1F31301C0F30A50F8
:10372000A0F2F5304FEA601800F01F06C6F1200045
:10373000139000200690079041F4801E05206D46EE
:1037400076B1664A08EB00017A4452F8213002EB68
:103750008101B3404A68139922FA01F1194305E047
:103760005F4908EB0002794451F82210A1FB0E27B3
:10377000A1FB0C131A449A4234BF0123002303EB2C
:10378000070A05EB8003D3E901B70F448F4234BF2A
:103790000121002193448B4411B1934502D903E0E8
:1037A000934501D2012100E00021C3E901B7514452
:1037B00045F82010011EA0F10100C1DC0298059F10
:1037C00000F10050800F12900298DDE9035680004E
:1037D00004F0D5FB834628460D9104F0E7FB6FF01B
:1037E0001D0205F081FACDE90E01304604F0DEFB42
:1037F0006FF03D0205F078FA80468A46384604F0BC
:10380000D5FB6FF05D0205F06FFA0746424653465E
:10381000119104F007F9DDE90E2304F003F95A468B
:103820000D9B04F0FFF800250E465A4628460D9BD6
:1038300004F078FEDDE90E2304F074FE42465346A0
:1038400004F070FE3A46119B04F07AFDDFF898A070
:10385000244A534604F040FC07468846234A244B3A
:103860003146284604F038FC3A46434604F0DAF87C
:10387000074688464FF0A84253463146284604F092
:103880002BFC3A46434604F0CDF8159A12F0004F4F
:1038900004D0129A81F0004152421292C4E9000110
:1038A000129817B0BDE8F08FFB21E93F7CD90240A8
:1038B000FB21F93F7370032E8A19A33B000040548B
:1038C0003163621A61B4D03DFB21394183C8C96DAF
:1038D000305FE43F0000E03F38610000B46000006A
:1038E00096600000182D4454FB21F93D3326A611A3
:1038F000460B113C2DE9FF4D21F0004807460C46D0
:10390000B8F1795F08DA04F0DDFA002801BF002081
:10391000324904B0BDE8F08D3A46234610461946B8
:1039200004F0DAFB054602462D480E460B460621FA
:10393000784400F05DF82A46334604F0CDFBDDE91B
:10394000022382468B463846214604F0C5FB0446D6
:103950000F4652465B462846314604F0BDFB2246E0
:103960003B4604F0DFFD07468A464FF0FF3228460B
:10397000314605F0B9F91B4A90450ADA3A465346F2
:1039800004F0D0FD04B00022BDE8F04D134B04F06C
:10399000D7BC154A4245A8BFA8F500154FF0000452
:1039A000B8BF124D22462B4604F0BCFD06468846A1
:1039B00022462B460020094904F0B4FD04460D467A
:1039C0003A4653463046414604F0ACFD04B0224628
:1039D0002B46BDE8F04D04F0B3BC00000000F03F02
:1039E000645E00003333D33F0000E93F0000D23F64
:1039F0002DE9F0414F1E00EBC7010446D1E900015B
:103A000015461E4637F006020DD02A46334604F00E
:103A100063FB7F1E04EBC703D3E9002304F002F825
:103A200037F00602F1D1022F25D0042F13D0062F34
:103A300018BFBDE8F0812A46334604F04DFBD4E9B7
:103A40000A2303F0EFFF2A46334604F045FBD4E98E
:103A5000082303F0E7FF2A46334604F03DFBD4E990
:103A6000062303F0DFFF2A46334604F035FBD4E992
:103A7000042303F0D7FF2A46334604F02DFBD4E994
:103A8000022303F0CFFF2A46334604F025FBD4E996
:103A90000023BDE8F04103F0C5BF00002DE9FF4D54
:103AA000054621F0004084B00C46B0F1795F0BDA96
:103AB0002846FFF746FD042808BF00F07FF8284697
:103AC00008B02146BDE8F08D2A460B46104604F0AA
:103AD00003FB06460F462A46234604F0FDFA8046BD
:103AE00026488A4632463B4605217844FFF780FF48
:103AF00083461098029160B3214A224B40465146BA
:103B000004F0EAFACDE900015A4640465146029BCC
:103B100004F0E2FA82468846DDE906014FF0FF3202
:103B200005F0E2F85246434604F0FCFC32463B46C0
:103B300004F0D2FADDE9062304F0F4FCDDE9002309
:103B400004F0F0FC08B02A462346BDE8F04D04F02E
:103B5000F7BB0B465A463046394604F0BDFA084AD0
:103B6000084B03F05FFF4246534604F0B5FA08B035
:103B70002A462346BDE8F04D03F054BFAA5D00007D
:103B8000495555555555C5BF0022134610460149A4
:103B900004F004B80000F03F012205F0A5B803F0DE
:103BA00041BF002213461046114603F0F7BF40F212
:103BB000013200204FF0E04105F096B8024A0020A3
:103BC000110705F091B8000001FDFFFF10B5044694
:103BD000D1E9000100F002F8206010BDF8B50446FC
:103BE0000D466A4600F0BEFA00987E30009000282C
:103BF0001EDC002213462046294604F027F917D080
:103C0000002140F608004FF00000064620462946F5
:103C100003F0D6FE044640F6080006EA00014FF025
:103C2000000034F0004004BF0220FCF70EFC29E045
:103C30000098FF2828DB002108464FF0000000F420
:103C40004006002213462046294604F043FB8CBF61
:103C5000002501250220FCF7F8FB4FF0FF4446B198
:103C6000002D0CBF4FF400004FF48000B04218BF8D
:103C7000084C042108464FF00000002D04BF84F0DA
:103C80000040F8BD2046F8BD20462946BDE8F84072
:103C900003F096BEFFFF7F7F10B504460A46D4E9C5
:103CA0000003194600F08AFAC4E9000110BD30385B
:103CB0000A2801D201207047002070472DE9F04DFD
:103CC0000546DFF8388221F000408D4F82B00C4667
:103CD000404520DBA0EB080129430BD089498842ED
:103CE00001DC10D17DB102B028462146BDE8F04D7F
:103CF000FFF752BF002CC7BF00200146824839465B
:103D000002B0BDE8F08D0120FCF79FFB02B0BDE8DA
:103D1000F04DFFF746BF7D49884244DA7C49814235
:103D2000A1BF79487B4902B0BDE8F08D2A46234601
:103D30001046194604F0D0F98346024676480E46EE
:103D40000B4606217844FFF753FE5A46334604F0EB
:103D5000C3F9074671488A465A46334604217844D7
:103D6000FFF746FE5A46334604F0B6F900224346B2
:103D700003F058FE02460B463846514603F00EFF4C
:103D80002A46234604F0A8F9654A664B04F0D8FA9F
:103D90002A46234604F0D4FA02B05B4ABDE8F04D4F
:103DA0005C4B04F0CDBA002C4FF000024BDA4646D3
:103DB00043462846214603F035FE4FF0FF3204F01B
:103DC00093FF0446024658480D460B4606217844A8
:103DD000FFF70EFE22462B4604F07EF9804653483C
:103DE0008A4622462B4604217844FFF701FE2246EC
:103DF0002B4604F071F90022334603F013FE064609
:103E00008B462046294602F031FD04460D463246D7
:103E10005B464046514603F0C1FE22462B4604F065
:103E20005BF93F4A3F4B04F07DFB22462B4603F0F3
:103E3000F9FD012204F058FF02B03B46BDE8F04D09
:103E4000314A04F07DBA2D4B2846214604F078FA19
:103E50004FF0FF3204F048FF05460E4602F006FD23
:103E600000270C4680463A460B4603F0DBFD8246AF
:103E70008B463A4623461046194604F02DF92A4649
:103E8000334604F05DFA52465B4603F087FE8246F5
:103E900027488B462A46334606217844FFF7A8FD7B
:103EA0002A46334604F018F9CDE9000121482A4694
:103EB000334604217844FFF79BFD2A46334604F03D
:103EC0000BF900220D4B03F0ADFD02460B46DDE978
:103ED000000103F063FE4246234604F0FDF852461B
:103EE0005B4603F09FFD3A46234603F09BFD02B07C
:103EF0000122BDE8F04D04F0F7BE00000000F03FE5
:103F0000FB2109400000F07F182D44540000E03FE1
:103F10000000603CFB21F93F785900008E590000F9
:103F2000075C143326A6913CEE58000004590000AB
:103F3000225800003858000030B583B00446FCF722
:103F40007FFA05460020CDE900000246214668467A
:103F5000FCF7A0FA2846FCF778FADDE9000103B087
:103F600030BD000000200349086003490860034990
:103F70000860704704020020080200200C020020A4
:103F8000002003490860034908600349086070473E
:103F9000E4010020E8010020EC010020002003499A
:103FA0000860034908600349086070471802002050
:103FB0001C0200202002002000B5244B21F000420A
:103FC00087B09A42DCBF0022134629DD204B9A427B
:103FD00008D140B94FF00100FCF737FAFFF7E1FDD7
:103FE00007B000BD03DBFFF7D7FD07B000BD02AA95
:103FF000FFF7BCFA10F0030104BF0DF1080C9CE8B8
:104000000F000DD0012001290ED0022914D00DF18E
:10401000080C00909CE80F00FFF740FD07B000BDC2
:10402000FFF768FC07B000BD0DF1080C00909CE89C
:104030000F00FFF733FD05E00DF1080C9CE80F00C1
:10404000FFF758FC07B081F0004100BDFB21E93FBC
:104050000000F07F10B50420FEF740FDA8200B49BA
:104060000870A824322044430020094908804FF0FA
:10407000E020006940F002004FF0E02108610846AE
:104080004461006940F00100086110BD6402002035
:104090006602002070B5044603F0D2F9012810D062
:1040A0000B480088844206D309480088B4FBF0F529
:1040B000284602F0C3FD06480088B4FBF0F100FB7F
:1040C00011444FF47A7104FB01F000F003F870BD65
:1040D0006602002070B5034600224FF0E0267569A5
:1040E0000D4E367803FB06F44FF0E026B16910E080
:1040F0004FF0E026B06988420BD0884202D20E1AF7
:10410000324402E02E1A0E4432440146A24200D349
:1041100000E0EDE700BF70BD640200200121012036
:104120000B4A12680AB1002011E00A4A12680AB16B
:1041300000200CE0084A12680AB1002007E0074A94
:104140001368074A1268521E934200D1022070473A
:10415000500F00209400002090000020780F0020D5
:104160008000002010B5144600222260114A21F080
:1041700000439342A8BF10BD53EA000208BF10BD20
:10418000B3F5801FA8BF226807DA362204F0ACFD21
:104190006FF0350221F000432260DFF81CC06FF39E
:1041A0001E510CEB23531A4441F0FF5141F00051D2
:1041B000226010BD0000F07F02FCFFFF2DE9F041FE
:1041C00006460C4640F2FF75174635EA14502BD0D0
:1041D00000221346304603F039FE25D03A463046D9
:1041E000214604F081FD06460C4635EA145010D0F5
:1041F00000221346304603F029FE15D10220FCF7B9
:1042000024F9FFF7DBFC0A46214662F31E01BDE8F4
:10421000F0810220FCF719F9FFF7C9FC0A46214694
:1042200062F31E01BDE8F08130462146BDE8F08111
:104230001CB54FF4A060FDF715FEFFF70BFFFEF76E
:104240007DF8FDF7E5FBFDF735FCFDF783FCFDF799
:10425000B7FDFDF76DFD0748022100230A02CDE9F5
:10426000001005A1074803F089F802F0B3FD00BF74
:10427000FEE7000060000020737461727474617363
:104280006B000000B968000808B5FEF731FA01219B
:104290000820FEF795FA40F60370ADF800001020F4
:1042A0008DF8030003208DF8020069460448FDF7ED
:1042B000A1FC40F603710248FDF730FD08BD000087
:1042C000000C01402DE9F04704460D46204604F05D
:1042D00073FB0646294604F053FC29490860294827
:1042E00001684FF0804004F07FFB8146264801685A
:1042F0002348006804F000FA8246494604F04AFC6C
:10430000804622480168404604F06EFB06461C4881
:1043100001681F48006804F067FB8146194801687E
:104320001748006804F036FC82461A480168504677
:1043300004F05AFB8046494604F0DEF90746314650
:1043400004F0DAF914490860084601681348006867
:1043500004F0D2F9114908600846006804F0F0FA48
:10436000064601F06BFC07480068074908600448EE
:1043700000680449086009480068BDE8F08700004B
:10438000000200200402002008020020FC0100209E
:10439000F8010020F4010020100200200C0200208F
:1043A0002DE9F04704460D46204604F005FB06467D
:1043B000294604F0E5FB29490860294801684FF0C7
:1043C000804004F011FB81462648016823480068BC
:1043D00004F092F98246494604F0DCFB804622480C
:1043E0000168404604F000FB06461C4801681F486F
:1043F000006804F0F9FA8146194801681748006816
:1044000004F0C8FB82461A480168504604F0ECFAF2
:104410008046494604F070F90746314604F06CF9CD
:1044200014490860084601681348006804F064F9FC
:10443000114908600846006804F082FA064601F057
:10444000FDFB074800680749086004480068044904
:10445000086009480068BDE8F0870000E00100201E
:10446000E4010020E8010020FC010020F801002008
:10447000F4010020F0010020EC0100202DE9F047BC
:1044800004460D46204604F097FA0646294604F0F5
:1044900077FB29490860294801684FF0804004F003
:1044A000A3FA8146264801682348006804F024F9ED
:1044B0008246494604F06EFB804622480168404629
:1044C00004F092FA06461C4801681F48006804F090
:1044D0008BFA8146194801681748006804F05AFBB6
:1044E00082461A480168504604F07EFA80464946E2
:1044F00004F002F90746314604F0FEF8144908605A
:10450000084601681348006804F0F6F8114908608D
:104510000846006804F014FA064601F08FFB0748CD
:1045200000680749086004480068044908600948B1
:104530000068BDE8F0870000140200201802002087
:104540001C020020FC010020F8010020F4010020E2
:1045500024020020200200202DE9F04704460D46E9
:10456000204604F029FA0646294604F009FB2949A9
:104570000860294801684FF0804004F035FA814610
:10458000264801682348006804F0B6F88246494688
:1045900004F000FB804622480168404604F024FAFB
:1045A00006461C4801681F48006804F01DFA814651
:1045B000194801681748006804F0ECFA82461A4866
:1045C0000168504604F010FA8046494604F094F819
:1045D0000746314604F090F814490860084601681F
:1045E0001348006804F088F811490860084600681C
:1045F00004F0A6F9064601F021FB074800680749C8
:104600000860044800680449086009480068BDE87B
:10461000F0870000280200202C0200203002002039
:10462000FC010020F8010020F401002038020020E5
:10463000340200202DE9F04704460D46204604F0E0
:10464000BBF90646294604F09BFA29490860294827
:1046500001684FF0804004F0C7F9814626480168A0
:104660002348006804F048F88246494604F092FA6C
:10467000804622480168404604F0B6F906461C48C8
:1046800001681F48006804F0AFF9814619480168C5
:104690001748006804F07EFA82461A4801685046BE
:1046A00004F0A2F98046494604F026F80746314650
:1046B00004F022F8144908600846016813480068AD
:1046C00004F01AF8114908600846006804F038F947
:1046D000064601F0B3FA0748006807490860044835
:1046E00000680449086009480068BDE8F0870000D8
:1046F0003C0200204002002044020020FC01002077
:10470000F8010020F40100204C02002048020020A3
:104710002DE9F04704460D46204604F04DF90646C3
:10472000294604F02DFA29490860294801684FF00C
:10473000804004F059F98146264801682348006802
:1047400003F0DAFF8246494604F024FA8046224804
:104750000168404604F048F906461C4801681F48B5
:10476000006804F041F9814619480168174800685B
:1047700004F010FA82461A480168504604F034F9F1
:104780008046494603F0B8FF0746314603F0B4FFC0
:1047900014490860084601681348006803F0ACFF3C
:1047A000114908600846006804F0CAF8064601F09E
:1047B00045FA07480068074908600448006804494A
:1047C000086009480068BDE8F0870000500200203A
:1047D0005402002058020020FC010020F8010020B3
:1047E000F4010020600200205C0200202DE9F04D61
:1047F0001D460C4698B0174621F0004123F00043B7
:10480000002814BF4FF0010C4FF0000C0CEB440CCF
:10481000FE4A0CEB02064FEA620C66452BD33E00C3
:1048200018BF012606EB45061644F94A964222D3E4
:10483000F84A53EA070C02D0944205D148B918B09F
:1048400000201146BDE8F08D002808BF4FF0000C95
:1048500001D04FF0010C0CEB440212F5001F0AD8F6
:10486000002F14BF4FF0010C4FF0000C0CEB450271
:1048700012F5001F07D918B03A462B462146BDE86D
:10488000F04DFFF78CB90022DFF88CA3002CB8BFE5
:10489000534526DADFF884C36345A8BF022220DA35
:1048A000DFF870C39C451CDCDFF874C30CEB235CA1
:1048B000BCF1140F08DDCCF1340627FA06FC0CFA23
:1048C00006F6BE420DD108E05FB9CCF1140623FA1A
:1048D00006FC0CFA06F69E4203D10CF00102C2F16E
:1048E000020251EA000C19D1002D17DA002C18BF72
:1048F000022A01D0012A07D00220FBF7A6FD18B03A
:10490000BDE8F04DFFF740B90220FBF79EFDFFF731
:104910003BF918B081F00041BDE8F08DB7F1000C13
:104920006CD1534525D104F1804212F5801201BFAC
:1049300000280020B74918B008BFBDE8F08DB54881
:10494000884207DC002DA1BF6046294618B0BDE8AB
:10495000F08D07E0281E05DA80F0004118B06046AF
:10496000BDE8F08DAF497944D1E9000118B0BDE848
:10497000F08DDFF8A0C2634525D1002D1FDA19B1F3
:10498000514512D1D8B909E0002840F0EC82A24A82
:10499000214618B062F31E01BDE8F08D00202146CB
:1049A00018B060F31E01BDE8F08D08DA18B0234698
:1049B000BDE8F04D02460020614603F0EFB818B0A4
:1049C0002146BDE8F08D514518DAB5F1804F0DD084
:1049D000A5F1005CBCF1FF5C10D1B4F1000C0DDB63
:1049E00018B06146BDE8F04D01F040BF234618B055
:1049F0000246BDE8F04D194603F06EBB060024F0F8
:104A0000004C3BD1D9B1514533D1002C06DD002DEE
:104A1000A1BF0020514618B0BDE8F08D002C01DD8B
:104A2000002D1BDB002C13DA002D11DB012A4FF0C7
:104A3000000014BF78497C4918B0BDE8F08D022A07
:104A400018BF002C0AD0012A08D1002C06DA0AE08F
:104A5000002CB8BF002D11DA012A04D0002018B0B4
:104A60000146BDE8F08D18B000204FF00041BDE8D0
:104A7000F08DA1F14050B0F17F601AD0012000EB21
:104A8000E47050EA020421D0624C521E4FF0000B39
:104A9000104304BF4FF0000B644C654883427CDD3B
:104AA000644A654893421FDD884217DB002D25DBF1
:104AB00037E0002C00DA4AB1022A0CBF01204FF087
:104AC000FF3018B0BDE8F04D03F059BA0120FBF7F4
:104AD000BCFC18B0BDE8F04DFFF763B84D4A8A4200
:104AE00002DC002D0ADC1CE0814202DA002D18DA1B
:104AF00004E0484B994220DD002D12DD0220FBF737
:104B0000A4FCFFF754F805460E46002253465846CB
:104B1000214603F0E1FA18B066F31E012846BDE80D
:104B2000F08D0220FBF791FCFFF748F80A4621467A
:104B300018B062F31E01BDE8F08D002230466146D8
:104B400003F0F0FC80460E466FF0010204F0CCF852
:104B50004FF05532394B03F0F3FB4246334603F036
:104B6000BBFA0022364B03F0EBFB8246424633464B
:104B700004911046194603F0AFFA5246049B03F025
:104B8000ABFA8A4600904FF0C0422E4B4046314669
:104B900003F0A2FA2C4A2B4B00E027E0CDE90601F6
:104BA0005146009803F098FA82460191274A284B13
:104BB0004046314603F090FA5246019B03F0B2FCA6
:104BC00082460B4602460591DDE9060102F02AFF06
:104BD000DDE9062300268846304603F0A3FC524652
:104BE000059B03F0ADFB024600F07EB90020B1F555
:104BF000801F07DA35223046614604F075F8064614
:104C00006FF0340000EB215024E00000FFFF1F0094
:104C1000FFFF0F000000F03F0000F07F0000404366
:104C200001FCFFFF5E4E00000000F0FF0000F0BF3F
:104C30000000E0410000F043FFFFEF3F5555D53F36
:104C40000000E03F4715F73FFE822B6544DF5DF82B
:104C50000BAE543EA0F2FF300190C1F3130040F0C0
:104C60007F6141F040510291FE498842D8BF002047
:104C700004DDFD498142C8BF012001DD0D9008E03F
:104C800000200D900198401C01900298A0F5801022
:104C900002900299F54878440B910D9900EBC10000
:104CA000D0E900230F9330460A920B9903F03AFCA7
:104CB000CDE90601DDE90A2130460F9B02F0B2FE84
:104CC00002460B460020EA4902F068FF05910246C1
:104CD0000B460090DDE9060103F0FEF91490E5486B
:104CE0008A464FF0000878440299006812904FF00D
:104CF000005040EA61010D980F9B01EB804000F5E8
:104D0000002109910A9A129803F00CFC32460B9B81
:104D100003F016FB4246534603F0DEF906460291C5
:104D200040465146099B129A03F0D6F9DDE9062365
:104D300003F006FB3246029B03F0F4FB059B009A4E
:104D400003F0CAF90091149A04905346104619468C
:104D500003F0C2F906460246C7480B4602910621F7
:104D60007844FEF745FECDE90510029B3246104619
:104D7000194603F0B1F9DDE9053203F0ADF905910B
:104D80000646534640461946149A02F04BFE009BD5
:104D9000049A03F0A1F93246059B02F043FECDE9E7
:104DA0000510424653461046194603F095F9002275
:104DB000B24B02910A9002F035FEDDE9053202F0B5
:104DC00031FE0E464246AD4B404603F0ABFB029B24
:104DD0000A9A03F0A7FBDDE9053203F0B1FA424677
:104DE00002910A9033461046514603F075F9CDE919
:104DF00006015346149A02990A9803F06DF98A46FF
:104E00000290334642460099049803F065F95346F0
:104E1000029A02F007FE82460B4602460591DDE942
:104E2000060102F0FFFDDDE9062300208846064664
:104E300003F078FB5246059B03F082FA8246099103
:104E40004FF060428E4B3046414603F045F90490E6
:104E500006918C4A8A4B5046099903F03DF98246E7
:104E60000291894A894B3046414603F035F9524652
:104E7000029B02F0D7FD864B7B440D9A03EBC203E5
:104E8000D3E9002302F0CEFD0E900791019803F0C4
:104E900076F80591DDE9061382460E9A049802F031
:104EA000C1FD7C4A7A440D9B02EBC303D3E9002386
:104EB0000093029202F0B6FD5246059B02F0B2FD4D
:104EC0000026884652463046059B03F02BFB009B8C
:104ED000029A03F027FB069B049A03F023FB079B2F
:104EE0000E9A03F02DFA024600200B460290384637
:104EF000294603F0F1F8824601912B4638461946BF
:104F0000029A03F00FFB3246434603F0E5F852469F
:104F1000019B02F087FD07468A46324643462946F2
:104F2000029803F0D9F805460E463A46534602F079
:104F300079FD594A8846914221DBA8EB020353EAE6
:104F4000000210D12A46334603F0ECFACDE9040101
:104F5000524A534B3846514602F064FDDDE90423C2
:104F600003F0B8F921D20220FBF76FFAFEF71FFE1B
:104F70000A46214618B062F31E01BDE8F08D494B88
:104F800028F000429A4210D3474A08EB020353EA42
:104F900000027FF4C6AD2A46334603F0C3FA3A4610
:104FA000534603F097F97FF6BCAD0022019228F03A
:104FB00000403E493E4A01EB2051824223DA481C20
:104FC0004FF4801121FA00F040443A4AC0F30A51EC
:104FD0007A44394BA1F2FF31CB4020EA0303C0F3FE
:104FE000130040F48010C1F11401C8401268019010
:104FF000B8F1000FBCBF404201902846314603F093
:1050000091FA05460E462A4633463846514602F086
:1050100009FD4FF000084246284B4046059103F039
:105020005BF8CDE90601264A264B4046059903F078
:1050300053F8009102902A4633464046059903F002
:1050400071FA3A46534603F07BF91F4A1F4B03F0AF
:1050500043F8009B029A02F0E5FC074688460246A8
:105060000B4635E08E9803007AB60B00764A0000B6
:105070000000F03FDE4A0000DC490000000008406C
:1050800009C7EE3FFD033ADCF5015B14E02F3EBE9D
:10509000B44800007848000000009040FE822B6574
:1050A0004715973C00CC904000346F3F01FCFFFF58
:1050B0000000E03FF4470000FFFF0F00432EE63FF3
:1050C000396CA80C615C20BEEF39FAFE422EE63F37
:1050D000DDE9060102F0A6FCDDE9062305460E46E1
:1050E00003F020FA3A46434603F02AF90F462A46CF
:1050F000334600901046194602F0EEFF8246024603
:105100002E4888460B4605217844FEF771FC52462E
:10511000434602F0E1FF2A46334603F011F9804688
:105120008A463B4628463146009A02F0D5FF3B4668
:10513000009A02F077FC0691009000224FF0804325
:105140004046514603F0EEF90F460C904246534656
:105150002846314602F0C0FF3B460C9A02F01EFD85
:10516000069B009A03F0DEF92A46334603F0DAF98B
:105170000022134B03F0E4F8054601980E4601EBBC
:1051800000510815002810DC28463146019A03F02A
:10519000ABFDFEF7D6F9042808BFFEF70FFD284641
:1051A0003146019A03F0A0FD05460B4618B02A4689
:1051B00058462146BDE8F04D02F08EBF644600001F
:1051C0000000F03F2DE9F04105460E4626480768ED
:1051D00026480068001D01F085FB50B9234800688F
:1051E00090F82C100120884021490968814320480B
:1051F0000160681CD8B9D6B11E4948681B490968C6
:1052000088601A4982680968CA6018490968091DD6
:105210008268516015490968091D8160154A134962
:1052200009684A6111460968491C11601AE07C1935
:105230000E4800684460BC4207D20C480168091D52
:105240000D48006801F090FB0CE008480168091D5A
:105250000A48006801F088FB09480068844201D2CE
:1052600007480460BDE8F081840000207000002041
:1052700088000020780F00207800002074000020B3
:10528000A000002010B5044601F094FB2F480068F0
:10529000401C2E4908602E48006840B92C48046024
:1052A0000846006801280DD100F012FA0AE02948EA
:1052B000006838B926480068C06AE16A884201D8A7
:1052C0002348046024480068401C2349086094F87F
:1052D0002C10012088402149096808431F490860B3
:1052E000E16A01EB81011E4A02EB81014868A0607E
:1052F0008268E260211D826851608160E16A01EB91
:105300008101174A02EB81026261E16A01EB8101CE
:10531000134A52F82110491CE26A02EB8202104B38
:1053200043F8221001F058FB0A48006868B10848A9
:105330000068C06AE16A884207D24FF0805009498C
:105340000860BFF34F8FBFF36F8F10BD8000002048
:10535000700000208C0000209C00002088000020AD
:10536000A80C002004ED00E008B501F023FB0E4876
:105370000068A8B90D4801F0E7FA0D4801F0E4FA19
:105380000A480C4908600A480B49086000200B4B8A
:105390000B4A0C2100900A2001F0F6FD024908603A
:1053A00001F01AFB08BD0000B80000208C0F00209F
:1053B000A00F0020B0000020B4000020B40F002097
:1053C000FC0F002010B516E001F0F4FA0C48C0689C
:1053D000C468201D01F086FA0A480068401E094989
:1053E000086009480068401E0749086001F0F4FAA7
:1053F000204600F055F8044800680028E4D110BDAC
:10540000640F0020800000207C00002070B504465E
:105410000D46206C70B1216CE0680144E160D4E974
:105420000210884201D32168E1602846226CE168BD
:10543000FAF751FF70BD2DE9F04104460F461546BD
:105440004FF00008A66B206C28B37DB93946226C5A
:105450006068FAF740FF216C606808446060D4E936
:105460000101884217D32068606014E03946226C3D
:10547000E068FAF730FF216CE068411AE1602168CA
:10548000E068884203D2216CA068411AE160022DD5
:1054900001D106B1761E701CA0634046BDE8F081C4
:1054A00010B5044694F8490030B9206B01F0A4FA15
:1054B000204601F0A1FA06E094F84900012802D143
:1054C000204601F099FA10BD002101220C4B1B6807
:1054D000012B00D901210B4A1268D26A0AB10020BF
:1054E0000DE0094A1268012A01D9002007E009B13C
:1054F000002004E0054A1268054B1B68D01A70476B
:105500008800002070000020A80C0020A0000020CF
:10551000840000200146084A126812680AB9012274
:1055200000E000220A600A6822B9034A1268D268C1
:10553000106800E000207047B000002030B54FF444
:105540002053154800F007042CB1C01D20F00700BF
:10555000114C041B1B1B0246104C226000240F4DF3
:105560006C60D018083820F007000D4C2060002433
:105570000B4D2D686C600A4D2D682C601146441A45
:105580004C60074C24680C60064D4C682C60064D3E
:105590004C682C6030BD000074100020C400002056
:1055A000CC000020D4000020D000002000BFFFF776
:1055B00009FF0F480068012807D94FF080500D49B6
:1055C0000860BFF34F8FBFF36F8FFFF77DFF044677
:1055D000022C0BD301F06CFCFFF776FF0446022C83
:1055E00002D3204601F062FA02F08EF8DFE70000F5
:1055F000A80C002004ED00E02DE9F04106460D4620
:1056000017469846069C0DB9246000E02760E663C3
:1056100025640121204601F0D7FCBDE8F0812DE989
:10562000FF5F80460E469146DDE90E7A109CA9F197
:105630000100216B01EB800B2BF0070B7EB10025E5
:1056400007E0715D04F134004155705D00B902E07E
:105650006D1C102DF5D300BF002143200155202FD4
:1056600000D31F27E762201D01F07BF904F1180029
:1056700001F077F92461C7F12000A061646241461E
:105680005846039A00F0E2FA2060BAF1000F01D008
:10569000CAF80040BDE8FF9F2DE9F04705460E46D9
:1056A00017469846DDE90894FFF75EFE2560A6617F
:1056B000C4F81C80C4F82090201D01F052F92FB1CD
:1056C00094F8240040F0040084F82400BDE8F0873A
:1056D00010B5002407E004EB84010F4A02EB8100BF
:1056E00001F032F9641C202CF5D30C4801F02CF9A0
:1056F0000B4801F029F90B4801F026F90A4801F09E
:1057000023F90A4801F020F90448094908600448CF
:105710000849086010BD0000A80C0020280F0020D8
:105720003C0F0020500F0020640F0020780F002055
:10573000740000207800002010B50146164800E0F3
:10574000006803688B42FBD30246436813448B42D4
:1057500004D143684C682344436001460A464B68C1
:1057600013440468A34211D10C4C03682468A3427B
:1057700008D04B680468646823444B6003681B6866
:105780000B6005E0054B1B680B6001E003680B60D4
:10579000884200D0016010BDC4000020CC00002071
:1057A0002DE9F04104460D4616461F464FF000080D
:1057B00065602461B5420CD8F01BA169884202D310
:1057C0004FF0010811E0211D0948006801F0CCF8F4
:1057D0000BE0BE4204D2BD4202D34FF0010804E008
:1057E000211D0448006801F0BFF84046BDE8F08183
:1057F000B4000020B000002070B5054601F0DAF8D2
:10580000A86B08B9012400E0002401F0E5F8204667
:1058100070BD70B5054601F0CDF8A86BE96B884204
:1058200001D1012400E0002401F0D6F8204670BD2B
:1058300070B505460E460E480068C068C468201D55
:1058400001F050F894F8240000F0040028B132462A
:105850002946204600F0C4F805E094F8240000F042
:10586000FE0084F824002046216A884770BD0000AD
:10587000B00000207FB56EE0019800286BDB039C30
:10588000606908B9012000E0002010B9201D01F076
:1058900029F8684600F0D0F8054601980A2858D241
:1058A000DFE800F05705072E364706082F3700BF00
:1058B00000BF00BF94F8240040F0010084F82400E9
:1058C0000298A269811803462A462046FFF768FF1E
:1058D000A8B194F8240000F0040038B10298A2693D
:1058E00081182A46204600F07BF805E094F8240051
:1058F00000F0FE0084F824002046216A884729E051
:1059000000BF94F8240000F0FE0084F8240021E099
:1059100000BF94F8240040F0010084F824000298AD
:10592000A061A06941192B462A462046FFF738FF9F
:1059300010E094F8240000F0020018B9204601F0AD
:105940005BF805E094F8240000F0FE0084F82400E1
:1059500000E000BF00BF002201A90348006801F079
:105960005BFC002888D17FBDB8000020F8B5054653
:105970000C4601F09DFA684600F05EF80646009875
:1059800020BB44B9B54206D801F0BEFE31462846D8
:10599000FFF74EFF1CE03CB10E480068006808B9F4
:1059A000012000E000200446A91B22460A480068A6
:1059B00001F01EF901F0A8FE50B94FF080500749E0
:1059C0000860BFF34F8FBFF36F8F01E001F09CFEC3
:1059D000F8BD0000B4000020B800002004ED00E095
:1059E00070B504460D46164604E0A06905442046FD
:1059F000216A8847A06941192B4632462046FFF7A5
:105A0000CFFE0028F1D170BD09480068006808B9D0
:105A1000012000E0002020B14FF0FF300549086070
:105A200005E003480068C0680068024908607047E4
:105A300074000020A000002070B5044601F010FDA5
:105A4000054607480068854204D200F00BF80120A3
:105A5000206001E00020206001480560284670BDFC
:105A6000C000002070B508E00D480068C0680468F8
:105A70004FF0FF312046FFF7DBFE09480068006861
:105A800008B9012000E000200028EDD00448056896
:105A900004480068024908600248056070BD0000C3
:105AA000B0000020B400002000BF502080F3118817
:105AB000BFF34F8FBFF36F8F00BF00BFFEE708B586
:105AC00000BF6846FFF726FD044620460099FFF711
:105AD0004DFFFFF7CFFEF4E770B5044600F06AFF14
